{
  "contractName": "AssetLogging",
  "abi": [
    {
      "inputs": [],
      "payable": false,
      "stateMutability": "nonpayable",
      "type": "constructor"
    },
    {
      "anonymous": false,
      "inputs": [
        {
          "indexed": false,
          "internalType": "address",
          "name": "sender",
          "type": "address"
        },
        {
          "indexed": false,
          "internalType": "address",
          "name": "to",
          "type": "address"
        },
        {
          "indexed": false,
          "internalType": "address",
          "name": "asset",
          "type": "address"
        },
        {
          "indexed": false,
          "internalType": "uint256",
          "name": "transferTime",
          "type": "uint256"
        }
      ],
      "name": "AssetTransfer",
      "type": "event"
    },
    {
      "anonymous": false,
      "inputs": [
        {
          "indexed": false,
          "internalType": "string",
          "name": "name",
          "type": "string"
        },
        {
          "indexed": false,
          "internalType": "address",
          "name": "pubkey",
          "type": "address"
        },
        {
          "indexed": false,
          "internalType": "uint8",
          "name": "adminType",
          "type": "uint8"
        },
        {
          "indexed": false,
          "internalType": "bool",
          "name": "status",
          "type": "bool"
        },
        {
          "indexed": false,
          "internalType": "uint256",
          "name": "registrationTime",
          "type": "uint256"
        }
      ],
      "name": "NewAdmin",
      "type": "event"
    },
    {
      "anonymous": false,
      "inputs": [
        {
          "indexed": false,
          "internalType": "string",
          "name": "assetOwner",
          "type": "string"
        },
        {
          "indexed": false,
          "internalType": "string",
          "name": "assetType",
          "type": "string"
        },
        {
          "indexed": false,
          "internalType": "address",
          "name": "ownerPubkey",
          "type": "address"
        },
        {
          "indexed": false,
          "internalType": "address",
          "name": "dsoPubkey",
          "type": "address"
        },
        {
          "indexed": false,
          "internalType": "address",
          "name": "assetPubkey",
          "type": "address"
        },
        {
          "indexed": false,
          "internalType": "uint32",
          "name": "voltageLevel",
          "type": "uint32"
        },
        {
          "indexed": false,
          "internalType": "uint32",
          "name": "peakPower",
          "type": "uint32"
        },
        {
          "indexed": false,
          "internalType": "bool",
          "name": "status",
          "type": "bool"
        },
        {
          "indexed": false,
          "internalType": "uint256",
          "name": "registrationTime",
          "type": "uint256"
        }
      ],
      "name": "NewAsset",
      "type": "event"
    },
    {
      "anonymous": false,
      "inputs": [
        {
          "indexed": false,
          "internalType": "string",
          "name": "dsoName",
          "type": "string"
        },
        {
          "indexed": false,
          "internalType": "address",
          "name": "dso",
          "type": "address"
        },
        {
          "indexed": false,
          "internalType": "string",
          "name": "assetOwner",
          "type": "string"
        },
        {
          "indexed": false,
          "internalType": "address",
          "name": "asset",
          "type": "address"
        },
        {
          "indexed": false,
          "internalType": "uint256",
          "name": "value",
          "type": "uint256"
        },
        {
          "indexed": false,
          "internalType": "uint256",
          "name": "time",
          "type": "uint256"
        }
      ],
      "name": "NewDsoValue",
      "type": "event"
    },
    {
      "anonymous": false,
      "inputs": [
        {
          "indexed": false,
          "internalType": "address",
          "name": "asset",
          "type": "address"
        },
        {
          "indexed": false,
          "internalType": "uint256",
          "name": "timestamp",
          "type": "uint256"
        },
        {
          "indexed": false,
          "internalType": "string",
          "name": "startTime",
          "type": "string"
        },
        {
          "indexed": false,
          "internalType": "string",
          "name": "endTime",
          "type": "string"
        },
        {
          "indexed": false,
          "internalType": "uint256",
          "name": "reductionLevel",
          "type": "uint256"
        },
        {
          "indexed": false,
          "internalType": "uint256",
          "name": "price",
          "type": "uint256"
        }
      ],
      "name": "NewFlexibility",
      "type": "event"
    },
    {
      "anonymous": false,
      "inputs": [
        {
          "indexed": false,
          "internalType": "string",
          "name": "assetOwner",
          "type": "string"
        },
        {
          "indexed": false,
          "internalType": "address",
          "name": "inverter",
          "type": "address"
        },
        {
          "indexed": false,
          "internalType": "uint256",
          "name": "outputLevel",
          "type": "uint256"
        },
        {
          "indexed": false,
          "internalType": "uint256",
          "name": "time",
          "type": "uint256"
        }
      ],
      "name": "NewInverterOutput",
      "type": "event"
    },
    {
      "anonymous": false,
      "inputs": [
        {
          "indexed": false,
          "internalType": "string",
          "name": "assetOwner",
          "type": "string"
        },
        {
          "indexed": false,
          "internalType": "address",
          "name": "inverter",
          "type": "address"
        },
        {
          "indexed": false,
          "internalType": "uint256",
          "name": "currentPower",
          "type": "uint256"
        },
        {
          "indexed": false,
          "internalType": "uint256",
          "name": "time",
          "type": "uint256"
        }
      ],
      "name": "NewInverterPower",
      "type": "event"
    },
    {
      "anonymous": false,
      "inputs": [
        {
          "indexed": false,
          "internalType": "string",
          "name": "response",
          "type": "string"
        }
      ],
      "name": "RejectRegistration",
      "type": "event"
    },
    {
      "anonymous": false,
      "inputs": [
        {
          "indexed": false,
          "internalType": "address",
          "name": "dso",
          "type": "address"
        },
        {
          "indexed": false,
          "internalType": "string",
          "name": "response",
          "type": "string"
        }
      ],
      "name": "RejectSetValue",
      "type": "event"
    },
    {
      "anonymous": false,
      "inputs": [
        {
          "indexed": false,
          "internalType": "address",
          "name": "sender",
          "type": "address"
        },
        {
          "indexed": false,
          "internalType": "address",
          "name": "to",
          "type": "address"
        },
        {
          "indexed": false,
          "internalType": "address",
          "name": "asset",
          "type": "address"
        },
        {
          "indexed": false,
          "internalType": "string",
          "name": "response",
          "type": "string"
        }
      ],
      "name": "RejectTransfer",
      "type": "event"
    },
    {
      "constant": false,
      "inputs": [
        {
          "internalType": "string",
          "name": "_name",
          "type": "string"
        },
        {
          "internalType": "address",
          "name": "_adminPubkey",
          "type": "address"
        },
        {
          "internalType": "uint8",
          "name": "_type",
          "type": "uint8"
        }
      ],
      "name": "registerAdmin",
      "outputs": [],
      "payable": false,
      "stateMutability": "nonpayable",
      "type": "function"
    },
    {
      "constant": false,
      "inputs": [
        {
          "internalType": "string",
          "name": "_name",
          "type": "string"
        },
        {
          "internalType": "string",
          "name": "_type",
          "type": "string"
        },
        {
          "internalType": "address",
          "name": "_ownerPubkey",
          "type": "address"
        },
        {
          "internalType": "address",
          "name": "_dsoPubkey",
          "type": "address"
        },
        {
          "internalType": "address",
          "name": "_assetPubkey",
          "type": "address"
        },
        {
          "internalType": "uint32",
          "name": "_voltageLevel",
          "type": "uint32"
        },
        {
          "internalType": "uint32",
          "name": "_peakPower",
          "type": "uint32"
        },
        {
          "internalType": "string",
          "name": "_location",
          "type": "string"
        },
        {
          "internalType": "string",
          "name": "_installDate",
          "type": "string"
        }
      ],
      "name": "registerAsset",
      "outputs": [],
      "payable": false,
      "stateMutability": "nonpayable",
      "type": "function"
    },
    {
      "constant": false,
      "inputs": [
        {
          "internalType": "address",
          "name": "_to",
          "type": "address"
        },
        {
          "internalType": "address",
          "name": "_assetPubkey",
          "type": "address"
        }
      ],
      "name": "transferAsset",
      "outputs": [],
      "payable": false,
      "stateMutability": "nonpayable",
      "type": "function"
    },
    {
      "constant": false,
      "inputs": [
        {
          "internalType": "address",
          "name": "_to",
          "type": "address"
        },
        {
          "internalType": "address",
          "name": "_assetPubkey",
          "type": "address"
        }
      ],
      "name": "changeDSO",
      "outputs": [],
      "payable": false,
      "stateMutability": "nonpayable",
      "type": "function"
    },
    {
      "constant": true,
      "inputs": [
        {
          "internalType": "address",
          "name": "_ownerPubkey",
          "type": "address"
        },
        {
          "internalType": "address",
          "name": "_assetPubkey",
          "type": "address"
        }
      ],
      "name": "isOwnerOf",
      "outputs": [
        {
          "internalType": "bool",
          "name": "",
          "type": "bool"
        }
      ],
      "payable": false,
      "stateMutability": "view",
      "type": "function"
    },
    {
      "constant": true,
      "inputs": [
        {
          "internalType": "address",
          "name": "_pubkey",
          "type": "address"
        }
      ],
      "name": "getAsset",
      "outputs": [
        {
          "internalType": "string",
          "name": "",
          "type": "string"
        },
        {
          "internalType": "address",
          "name": "",
          "type": "address"
        },
        {
          "internalType": "address",
          "name": "",
          "type": "address"
        },
        {
          "internalType": "bool",
          "name": "",
          "type": "bool"
        }
      ],
      "payable": false,
      "stateMutability": "view",
      "type": "function"
    },
    {
      "constant": true,
      "inputs": [
        {
          "internalType": "address",
          "name": "_pubkey",
          "type": "address"
        }
      ],
      "name": "getAdmin",
      "outputs": [
        {
          "internalType": "address",
          "name": "",
          "type": "address"
        },
        {
          "internalType": "string",
          "name": "",
          "type": "string"
        },
        {
          "internalType": "uint8",
          "name": "",
          "type": "uint8"
        },
        {
          "internalType": "bool",
          "name": "",
          "type": "bool"
        }
      ],
      "payable": false,
      "stateMutability": "view",
      "type": "function"
    },
    {
      "constant": false,
      "inputs": [
        {
          "internalType": "address",
          "name": "_assetPubkey",
          "type": "address"
        },
        {
          "internalType": "uint256",
          "name": "_value",
          "type": "uint256"
        }
      ],
      "name": "setDsoValue",
      "outputs": [],
      "payable": false,
      "stateMutability": "nonpayable",
      "type": "function"
    },
    {
      "constant": true,
      "inputs": [
        {
          "internalType": "address",
          "name": "_assetPubkey",
          "type": "address"
        }
      ],
      "name": "getDsoLatestValue",
      "outputs": [
        {
          "internalType": "uint256",
          "name": "",
          "type": "uint256"
        }
      ],
      "payable": false,
      "stateMutability": "view",
      "type": "function"
    },
    {
      "constant": false,
      "inputs": [
        {
          "internalType": "uint256",
          "name": "_currentPower",
          "type": "uint256"
        }
      ],
      "name": "setInverterPower",
      "outputs": [],
      "payable": false,
      "stateMutability": "nonpayable",
      "type": "function"
    },
    {
      "constant": false,
      "inputs": [
        {
          "internalType": "uint256",
          "name": "_outputLevel",
          "type": "uint256"
        }
      ],
      "name": "setInverterOutput",
      "outputs": [],
      "payable": false,
      "stateMutability": "nonpayable",
      "type": "function"
    },
    {
      "constant": false,
      "inputs": [
        {
          "internalType": "string",
          "name": "_startTime",
          "type": "string"
        },
        {
          "internalType": "string",
          "name": "_endTime",
          "type": "string"
        },
        {
          "internalType": "uint256",
          "name": "_reductionLevel",
          "type": "uint256"
        },
        {
          "internalType": "uint256",
          "name": "_price",
          "type": "uint256"
        }
      ],
      "name": "setFlexibility",
      "outputs": [],
      "payable": false,
      "stateMutability": "nonpayable",
      "type": "function"
    },
    {
      "constant": true,
      "inputs": [
        {
          "internalType": "address",
          "name": "_asset",
          "type": "address"
        }
      ],
      "name": "getFlexibility",
      "outputs": [
        {
          "internalType": "uint256",
          "name": "",
          "type": "uint256"
        },
        {
          "internalType": "string",
          "name": "",
          "type": "string"
        },
        {
          "internalType": "string",
          "name": "",
          "type": "string"
        },
        {
          "internalType": "uint256",
          "name": "",
          "type": "uint256"
        },
        {
          "internalType": "uint256",
          "name": "",
          "type": "uint256"
        }
      ],
      "payable": false,
      "stateMutability": "view",
      "type": "function"
    }
  ],
  "bytecode": "0x608060405234801561001057600080fd5b50336000806101000a81548173ffffffffffffffffffffffffffffffffffffffff021916908373ffffffffffffffffffffffffffffffffffffffff160217905550614452806100606000396000f3fe608060405234801561001057600080fd5b50600436106100cf5760003560e01c80638eab45ba1161008c578063a07543f111610066578063a07543f11461099d578063b6b745b314610adb578063ed2b160b14610b09578063f582bceb14610b61576100cf565b80638eab45ba146104d257806396b63735146105365780639dea0f8014610837576100cf565b8063052442e9146100d45780631c04ec97146101bc57806330b8b2c61461020a578063410685451461033857806341c9743e1461036657806364efb22b146103ca575b600080fd5b6101ba600480360360608110156100ea57600080fd5b810190808035906020019064010000000081111561010757600080fd5b82018360208201111561011957600080fd5b8035906020019184600183028401116401000000008311171561013b57600080fd5b91908080601f016020809104026020016040519081016040528093929190818152602001838380828437600081840152601f19601f820116905080830192505050505050509192919290803573ffffffffffffffffffffffffffffffffffffffff169060200190929190803560ff169060200190929190505050610bdd565b005b610208600480360360408110156101d257600080fd5b81019080803573ffffffffffffffffffffffffffffffffffffffff1690602001909291908035906020019092919050505061114a565b005b61024c6004803603602081101561022057600080fd5b81019080803573ffffffffffffffffffffffffffffffffffffffff1690602001909291905050506115f9565b60405180806020018573ffffffffffffffffffffffffffffffffffffffff1673ffffffffffffffffffffffffffffffffffffffff1681526020018473ffffffffffffffffffffffffffffffffffffffff1673ffffffffffffffffffffffffffffffffffffffff16815260200183151515158152602001828103825286818151815260200191508051906020019080838360005b838110156102fa5780820151818401526020810190506102df565b50505050905090810190601f1680156103275780820380516001836020036101000a031916815260200191505b509550505050505060405180910390f35b6103646004803603602081101561034e57600080fd5b8101908080359060200190929190505050611803565b005b6103c86004803603604081101561037c57600080fd5b81019080803573ffffffffffffffffffffffffffffffffffffffff169060200190929190803573ffffffffffffffffffffffffffffffffffffffff169060200190929190505050611abc565b005b61040c600480360360208110156103e057600080fd5b81019080803573ffffffffffffffffffffffffffffffffffffffff16906020019092919050505061215d565b604051808573ffffffffffffffffffffffffffffffffffffffff1673ffffffffffffffffffffffffffffffffffffffff168152602001806020018460ff1660ff16815260200183151515158152602001828103825285818151815260200191508051906020019080838360005b83811015610494578082015181840152602081019050610479565b50505050905090810190601f1680156104c15780820380516001836020036101000a031916815260200191505b509550505050505060405180910390f35b610534600480360360408110156104e857600080fd5b81019080803573ffffffffffffffffffffffffffffffffffffffff169060200190929190803573ffffffffffffffffffffffffffffffffffffffff169060200190929190505050612354565b005b610835600480360361012081101561054d57600080fd5b810190808035906020019064010000000081111561056a57600080fd5b82018360208201111561057c57600080fd5b8035906020019184600183028401116401000000008311171561059e57600080fd5b91908080601f016020809104026020016040519081016040528093929190818152602001838380828437600081840152601f19601f8201169050808301925050505050505091929192908035906020019064010000000081111561060157600080fd5b82018360208201111561061357600080fd5b8035906020019184600183028401116401000000008311171561063557600080fd5b91908080601f016020809104026020016040519081016040528093929190818152602001838380828437600081840152601f19601f820116905080830192505050505050509192919290803573ffffffffffffffffffffffffffffffffffffffff169060200190929190803573ffffffffffffffffffffffffffffffffffffffff169060200190929190803573ffffffffffffffffffffffffffffffffffffffff169060200190929190803563ffffffff169060200190929190803563ffffffff1690602001909291908035906020019064010000000081111561071857600080fd5b82018360208201111561072a57600080fd5b8035906020019184600183028401116401000000008311171561074c57600080fd5b91908080601f016020809104026020016040519081016040528093929190818152602001838380828437600081840152601f19601f820116905080830192505050505050509192919290803590602001906401000000008111156107af57600080fd5b8201836020820111156107c157600080fd5b803590602001918460018302840111640100000000831117156107e357600080fd5b91908080601f016020809104026020016040519081016040528093929190818152602001838380828437600081840152601f19601f820116905080830192505050505050509192919290505050612a5b565b005b61099b6004803603608081101561084d57600080fd5b810190808035906020019064010000000081111561086a57600080fd5b82018360208201111561087c57600080fd5b8035906020019184600183028401116401000000008311171561089e57600080fd5b91908080601f016020809104026020016040519081016040528093929190818152602001838380828437600081840152601f19601f8201169050808301925050505050505091929192908035906020019064010000000081111561090157600080fd5b82018360208201111561091357600080fd5b8035906020019184600183028401116401000000008311171561093557600080fd5b91908080601f016020809104026020016040519081016040528093929190818152602001838380828437600081840152601f19601f82011690508083019250505050505050919291929080359060200190929190803590602001909291905050506135a4565b005b6109df600480360360208110156109b357600080fd5b81019080803573ffffffffffffffffffffffffffffffffffffffff169060200190929190505050613927565b604051808681526020018060200180602001858152602001848152602001838103835287818151815260200191508051906020019080838360005b83811015610a35578082015181840152602081019050610a1a565b50505050905090810190601f168015610a625780820380516001836020036101000a031916815260200191505b50838103825286818151815260200191508051906020019080838360005b83811015610a9b578082015181840152602081019050610a80565b50505050905090810190601f168015610ac85780820380516001836020036101000a031916815260200191505b5097505050505050505060405180910390f35b610b0760048036036020811015610af157600080fd5b8101908080359060200190929190505050613bc7565b005b610b4b60048036036020811015610b1f57600080fd5b81019080803573ffffffffffffffffffffffffffffffffffffffff169060200190929190505050613e80565b6040518082815260200191505060405180910390f35b610bc360048036036040811015610b7757600080fd5b81019080803573ffffffffffffffffffffffffffffffffffffffff169060200190929190803573ffffffffffffffffffffffffffffffffffffffff169060200190929190505050613ec9565b604051808215151515815260200191505060405180910390f35b6000809054906101000a900473ffffffffffffffffffffffffffffffffffffffff1673ffffffffffffffffffffffffffffffffffffffff163373ffffffffffffffffffffffffffffffffffffffff1614610c82576040517f08c379a00000000000000000000000000000000000000000000000000000000081526004018080602001828103825260218152602001806142716021913960400191505060405180910390fd5b600460008373ffffffffffffffffffffffffffffffffffffffff1673ffffffffffffffffffffffffffffffffffffffff16815260200190815260200160002060010160159054906101000a900460ff1680610d295750600360008373ffffffffffffffffffffffffffffffffffffffff1673ffffffffffffffffffffffffffffffffffffffff16815260200190815260200160002060070160009054906101000a900460ff165b15610d7e577f6d0d59fdf2ac0871a671b5687443bbeb629ce41626493893c8a66aa36f36834260405180806020018281038252603a8152602001806143c0603a913960400191505060405180910390a1611145565b6040518060a001604052808481526020018373ffffffffffffffffffffffffffffffffffffffff1681526020018260ff16815260200160011515815260200142815250600460008473ffffffffffffffffffffffffffffffffffffffff1673ffffffffffffffffffffffffffffffffffffffff1681526020019081526020016000206000820151816000019080519060200190610e1c929190614120565b5060208201518160010160006101000a81548173ffffffffffffffffffffffffffffffffffffffff021916908373ffffffffffffffffffffffffffffffffffffffff16021790555060408201518160010160146101000a81548160ff021916908360ff16021790555060608201518160010160156101000a81548160ff021916908315150217905550608082015181600201559050507f07356fd42064f6e7275c83fdf7b96e69d6d86f1f0abb0863f734a914838d17a7600460008473ffffffffffffffffffffffffffffffffffffffff1673ffffffffffffffffffffffffffffffffffffffff168152602001908152602001600020600001600460008573ffffffffffffffffffffffffffffffffffffffff1673ffffffffffffffffffffffffffffffffffffffff16815260200190815260200160002060010160009054906101000a900473ffffffffffffffffffffffffffffffffffffffff16600460008673ffffffffffffffffffffffffffffffffffffffff1673ffffffffffffffffffffffffffffffffffffffff16815260200190815260200160002060010160149054906101000a900460ff16600460008773ffffffffffffffffffffffffffffffffffffffff1673ffffffffffffffffffffffffffffffffffffffff16815260200190815260200160002060010160159054906101000a900460ff16600460008873ffffffffffffffffffffffffffffffffffffffff1673ffffffffffffffffffffffffffffffffffffffff1681526020019081526020016000206002015460405180806020018673ffffffffffffffffffffffffffffffffffffffff1673ffffffffffffffffffffffffffffffffffffffff1681526020018560ff1660ff168152602001841515151581526020018381526020018281038252878181546001816001161561010002031660029004815260200191508054600181600116156101000203166002900480156111325780601f1061110757610100808354040283529160200191611132565b820191906000526020600020905b81548152906001019060200180831161111557829003601f168201915b5050965050505050505060405180910390a15b505050565b61115333613fd0565b15806111e65750600560003373ffffffffffffffffffffffffffffffffffffffff1673ffffffffffffffffffffffffffffffffffffffff16815260200190815260200160002060008373ffffffffffffffffffffffffffffffffffffffff1673ffffffffffffffffffffffffffffffffffffffff16815260200190815260200160002060009054906101000a900460ff16155b1561126f577f4f157992bf426424c29fbf811fe13899af10c81ed0357223775f2032b7606fb733604051808273ffffffffffffffffffffffffffffffffffffffff1673ffffffffffffffffffffffffffffffffffffffff168152602001806020018281038252605581526020018061434a605591396060019250505060405180910390a16115f5565b80600660008473ffffffffffffffffffffffffffffffffffffffff1673ffffffffffffffffffffffffffffffffffffffff168152602001908152602001600020819055506060600360008473ffffffffffffffffffffffffffffffffffffffff1673ffffffffffffffffffffffffffffffffffffffff1681526020019081526020016000206000018054600181600116156101000203166002900480601f01602080910402602001604051908101604052809291908181526020018280546001816001161561010002031660029004801561138b5780601f106113605761010080835404028352916020019161138b565b820191906000526020600020905b81548152906001019060200180831161136e57829003601f168201915b505050505090506060600460003373ffffffffffffffffffffffffffffffffffffffff1673ffffffffffffffffffffffffffffffffffffffff1681526020019081526020016000206000018054600181600116156101000203166002900480601f01602080910402602001604051908101604052809291908181526020018280546001816001161561010002031660029004801561146a5780601f1061143f5761010080835404028352916020019161146a565b820191906000526020600020905b81548152906001019060200180831161144d57829003601f168201915b505050505090507f0cb138c3fc9a11f6ed0434d8a2965001ba8537c6622a6fc7593fafaa26ee969c81338487874260405180806020018773ffffffffffffffffffffffffffffffffffffffff1673ffffffffffffffffffffffffffffffffffffffff168152602001806020018673ffffffffffffffffffffffffffffffffffffffff1673ffffffffffffffffffffffffffffffffffffffff168152602001858152602001848152602001838103835289818151815260200191508051906020019080838360005b8381101561154c578082015181840152602081019050611531565b50505050905090810190601f1680156115795780820380516001836020036101000a031916815260200191505b50838103825287818151815260200191508051906020019080838360005b838110156115b2578082015181840152602081019050611597565b50505050905090810190601f1680156115df5780820380516001836020036101000a031916815260200191505b509850505050505050505060405180910390a150505b5050565b60606000806000600360008673ffffffffffffffffffffffffffffffffffffffff1673ffffffffffffffffffffffffffffffffffffffff168152602001908152602001600020600101600360008773ffffffffffffffffffffffffffffffffffffffff1673ffffffffffffffffffffffffffffffffffffffff16815260200190815260200160002060020160009054906101000a900473ffffffffffffffffffffffffffffffffffffffff16600360008873ffffffffffffffffffffffffffffffffffffffff1673ffffffffffffffffffffffffffffffffffffffff16815260200190815260200160002060030160009054906101000a900473ffffffffffffffffffffffffffffffffffffffff16600360008973ffffffffffffffffffffffffffffffffffffffff1673ffffffffffffffffffffffffffffffffffffffff16815260200190815260200160002060070160009054906101000a900460ff16838054600181600116156101000203166002900480601f0160208091040260200160405190810160405280929190818152602001828054600181600116156101000203166002900480156117ed5780601f106117c2576101008083540402835291602001916117ed565b820191906000526020600020905b8154815290600101906020018083116117d057829003601f168201915b5050505050935093509350935093509193509193565b600360003373ffffffffffffffffffffffffffffffffffffffff1673ffffffffffffffffffffffffffffffffffffffff16815260200190815260200160002060070160009054906101000a900460ff166118f8577f4f157992bf426424c29fbf811fe13899af10c81ed0357223775f2032b7606fb733604051808273ffffffffffffffffffffffffffffffffffffffff1673ffffffffffffffffffffffffffffffffffffffff168152602001806020018281038252601a8152602001807f496e766572746572206973206e6f7420726567697374657265640000000000008152506020019250505060405180910390a1611ab9565b6060600360003373ffffffffffffffffffffffffffffffffffffffff1673ffffffffffffffffffffffffffffffffffffffff1681526020019081526020016000206000018054600181600116156101000203166002900480601f0160208091040260200160405190810160405280929190818152602001828054600181600116156101000203166002900480156119d05780601f106119a5576101008083540402835291602001916119d0565b820191906000526020600020905b8154815290600101906020018083116119b357829003601f168201915b505050505090507fcdc55ecef9bfee239e9db69f50ac028e12947c27164acaef6d15a55c0e2b5ee48133844260405180806020018573ffffffffffffffffffffffffffffffffffffffff1673ffffffffffffffffffffffffffffffffffffffff168152602001848152602001838152602001828103825286818151815260200191508051906020019080838360005b83811015611a7a578082015181840152602081019050611a5f565b50505050905090810190601f168015611aa75780820380516001836020036101000a031916815260200191505b509550505050505060405180910390a1505b50565b611ac581614043565b611bb5577fede62a3dd161bdd1c24656cde7ce7d6c14d9cdba4a8677de5b0c1632a67f3c9c338383604051808473ffffffffffffffffffffffffffffffffffffffff1673ffffffffffffffffffffffffffffffffffffffff1681526020018373ffffffffffffffffffffffffffffffffffffffff1673ffffffffffffffffffffffffffffffffffffffff1681526020018273ffffffffffffffffffffffffffffffffffffffff1673ffffffffffffffffffffffffffffffffffffffff16815260200180602001828103825260278152602001806142926027913960400194505050505060405180910390a1612159565b611bbe33613fd0565b611ccb577fede62a3dd161bdd1c24656cde7ce7d6c14d9cdba4a8677de5b0c1632a67f3c9c338383604051808473ffffffffffffffffffffffffffffffffffffffff1673ffffffffffffffffffffffffffffffffffffffff1681526020018373ffffffffffffffffffffffffffffffffffffffff1673ffffffffffffffffffffffffffffffffffffffff1681526020018273ffffffffffffffffffffffffffffffffffffffff1673ffffffffffffffffffffffffffffffffffffffff168152602001806020018281038252601f8152602001807f53656e646572206973206e6f7420726567697374657265642061732044534f0081525060200194505050505060405180910390a1612159565b611cd482613fd0565b611dc4577fede62a3dd161bdd1c24656cde7ce7d6c14d9cdba4a8677de5b0c1632a67f3c9c338383604051808473ffffffffffffffffffffffffffffffffffffffff1673ffffffffffffffffffffffffffffffffffffffff1681526020018373ffffffffffffffffffffffffffffffffffffffff1673ffffffffffffffffffffffffffffffffffffffff1681526020018273ffffffffffffffffffffffffffffffffffffffff1673ffffffffffffffffffffffffffffffffffffffff16815260200180602001828103825260218152602001806143296021913960400194505050505060405180910390a1612159565b600560003373ffffffffffffffffffffffffffffffffffffffff1673ffffffffffffffffffffffffffffffffffffffff16815260200190815260200160002060008273ffffffffffffffffffffffffffffffffffffffff1673ffffffffffffffffffffffffffffffffffffffff16815260200190815260200160002060009054906101000a900460ff16611f5b577fede62a3dd161bdd1c24656cde7ce7d6c14d9cdba4a8677de5b0c1632a67f3c9c338383604051808473ffffffffffffffffffffffffffffffffffffffff1673ffffffffffffffffffffffffffffffffffffffff1681526020018373ffffffffffffffffffffffffffffffffffffffff1673ffffffffffffffffffffffffffffffffffffffff1681526020018273ffffffffffffffffffffffffffffffffffffffff1673ffffffffffffffffffffffffffffffffffffffff168152602001806020018281038252601f8152602001807f53656e646572206973206e6f742044534f206f6620746869732061737365740081525060200194505050505060405180910390a1612159565b6000600560003373ffffffffffffffffffffffffffffffffffffffff1673ffffffffffffffffffffffffffffffffffffffff16815260200190815260200160002060008373ffffffffffffffffffffffffffffffffffffffff1673ffffffffffffffffffffffffffffffffffffffff16815260200190815260200160002060006101000a81548160ff0219169083151502179055506001600560008473ffffffffffffffffffffffffffffffffffffffff1673ffffffffffffffffffffffffffffffffffffffff16815260200190815260200160002060008373ffffffffffffffffffffffffffffffffffffffff1673ffffffffffffffffffffffffffffffffffffffff16815260200190815260200160002060006101000a81548160ff0219169083151502179055507fa405f30150336d44a72f36a81c570cd0e7c9f9dda44a9e0a152c8458f6b3aa5733838342604051808573ffffffffffffffffffffffffffffffffffffffff1673ffffffffffffffffffffffffffffffffffffffff1681526020018473ffffffffffffffffffffffffffffffffffffffff1673ffffffffffffffffffffffffffffffffffffffff1681526020018373ffffffffffffffffffffffffffffffffffffffff1673ffffffffffffffffffffffffffffffffffffffff16815260200182815260200194505050505060405180910390a15b5050565b60006060600080600460008673ffffffffffffffffffffffffffffffffffffffff1673ffffffffffffffffffffffffffffffffffffffff16815260200190815260200160002060010160009054906101000a900473ffffffffffffffffffffffffffffffffffffffff16600460008773ffffffffffffffffffffffffffffffffffffffff1673ffffffffffffffffffffffffffffffffffffffff168152602001908152602001600020600001600460008873ffffffffffffffffffffffffffffffffffffffff1673ffffffffffffffffffffffffffffffffffffffff16815260200190815260200160002060010160149054906101000a900460ff16600460008973ffffffffffffffffffffffffffffffffffffffff1673ffffffffffffffffffffffffffffffffffffffff16815260200190815260200160002060010160159054906101000a900460ff16828054600181600116156101000203166002900480601f01602080910402602001604051908101604052809291908181526020018280546001816001161561010002031660029004801561233e5780601f106123135761010080835404028352916020019161233e565b820191906000526020600020905b81548152906001019060200180831161232157829003601f168201915b5050505050925093509350935093509193509193565b61235d81614043565b61244d577fede62a3dd161bdd1c24656cde7ce7d6c14d9cdba4a8677de5b0c1632a67f3c9c338383604051808473ffffffffffffffffffffffffffffffffffffffff1673ffffffffffffffffffffffffffffffffffffffff1681526020018373ffffffffffffffffffffffffffffffffffffffff1673ffffffffffffffffffffffffffffffffffffffff1681526020018273ffffffffffffffffffffffffffffffffffffffff1673ffffffffffffffffffffffffffffffffffffffff16815260200180602001828103825260278152602001806142926027913960400194505050505060405180910390a1612a57565b600160ff16600460003373ffffffffffffffffffffffffffffffffffffffff1673ffffffffffffffffffffffffffffffffffffffff16815260200190815260200160002060010160149054906101000a900460ff1660ff1614612596577fede62a3dd161bdd1c24656cde7ce7d6c14d9cdba4a8677de5b0c1632a67f3c9c338383604051808473ffffffffffffffffffffffffffffffffffffffff1673ffffffffffffffffffffffffffffffffffffffff1681526020018373ffffffffffffffffffffffffffffffffffffffff1673ffffffffffffffffffffffffffffffffffffffff1681526020018273ffffffffffffffffffffffffffffffffffffffff1673ffffffffffffffffffffffffffffffffffffffff16815260200180602001828103825260248152602001806143fa6024913960400194505050505060405180910390a1612a57565b600160ff16600460008473ffffffffffffffffffffffffffffffffffffffff1673ffffffffffffffffffffffffffffffffffffffff16815260200190815260200160002060010160149054906101000a900460ff1660ff16146126df577fede62a3dd161bdd1c24656cde7ce7d6c14d9cdba4a8677de5b0c1632a67f3c9c338383604051808473ffffffffffffffffffffffffffffffffffffffff1673ffffffffffffffffffffffffffffffffffffffff1681526020018373ffffffffffffffffffffffffffffffffffffffff1673ffffffffffffffffffffffffffffffffffffffff1681526020018273ffffffffffffffffffffffffffffffffffffffff1673ffffffffffffffffffffffffffffffffffffffff16815260200180602001828103825260268152602001806142da6026913960400194505050505060405180910390a1612a57565b600560003373ffffffffffffffffffffffffffffffffffffffff1673ffffffffffffffffffffffffffffffffffffffff16815260200190815260200160002060008273ffffffffffffffffffffffffffffffffffffffff1673ffffffffffffffffffffffffffffffffffffffff16815260200190815260200160002060009054906101000a900460ff16612859577fede62a3dd161bdd1c24656cde7ce7d6c14d9cdba4a8677de5b0c1632a67f3c9c338383604051808473ffffffffffffffffffffffffffffffffffffffff1673ffffffffffffffffffffffffffffffffffffffff1681526020018373ffffffffffffffffffffffffffffffffffffffff1673ffffffffffffffffffffffffffffffffffffffff1681526020018273ffffffffffffffffffffffffffffffffffffffff1673ffffffffffffffffffffffffffffffffffffffff16815260200180602001828103825260218152602001806142b96021913960400194505050505060405180910390a1612a57565b6000600560003373ffffffffffffffffffffffffffffffffffffffff1673ffffffffffffffffffffffffffffffffffffffff16815260200190815260200160002060008373ffffffffffffffffffffffffffffffffffffffff1673ffffffffffffffffffffffffffffffffffffffff16815260200190815260200160002060006101000a81548160ff0219169083151502179055506001600560008473ffffffffffffffffffffffffffffffffffffffff1673ffffffffffffffffffffffffffffffffffffffff16815260200190815260200160002060008373ffffffffffffffffffffffffffffffffffffffff1673ffffffffffffffffffffffffffffffffffffffff16815260200190815260200160002060006101000a81548160ff0219169083151502179055507fa405f30150336d44a72f36a81c570cd0e7c9f9dda44a9e0a152c8458f6b3aa5733838342604051808573ffffffffffffffffffffffffffffffffffffffff1673ffffffffffffffffffffffffffffffffffffffff1681526020018473ffffffffffffffffffffffffffffffffffffffff1673ffffffffffffffffffffffffffffffffffffffff1681526020018373ffffffffffffffffffffffffffffffffffffffff1673ffffffffffffffffffffffffffffffffffffffff16815260200182815260200194505050505060405180910390a15b5050565b6000809054906101000a900473ffffffffffffffffffffffffffffffffffffffff1673ffffffffffffffffffffffffffffffffffffffff163373ffffffffffffffffffffffffffffffffffffffff1614612b00576040517f08c379a00000000000000000000000000000000000000000000000000000000081526004018080602001828103825260218152602001806142716021913960400191505060405180910390fd5b612b09876140ad565b612b5d577f6d0d59fdf2ac0871a671b5687443bbeb629ce41626493893c8a66aa36f36834260405180806020018281038252602b815260200180614246602b913960400191505060405180910390a1613599565b612b6686613fd0565b612bba577f6d0d59fdf2ac0871a671b5687443bbeb629ce41626493893c8a66aa36f3683426040518080602001828103825260298152602001806143006029913960400191505060405180910390a1613599565b600360008673ffffffffffffffffffffffffffffffffffffffff1673ffffffffffffffffffffffffffffffffffffffff16815260200190815260200160002060070160009054906101000a900460ff1680612c615750600460008673ffffffffffffffffffffffffffffffffffffffff1673ffffffffffffffffffffffffffffffffffffffff16815260200190815260200160002060010160159054906101000a900460ff165b15612cd3577f6d0d59fdf2ac0871a671b5687443bbeb629ce41626493893c8a66aa36f36834260405180806020018281038252601f8152602001807f54686973206164647265737320697320616c726561647920696e207573652e0081525060200191505060405180910390a1613599565b6040518061016001604052808a81526020018981526020018873ffffffffffffffffffffffffffffffffffffffff1681526020018773ffffffffffffffffffffffffffffffffffffffff1681526020018673ffffffffffffffffffffffffffffffffffffffff1681526020018563ffffffff1681526020018463ffffffff16815260200183815260200182815260200160011515815260200142815250600360008773ffffffffffffffffffffffffffffffffffffffff1673ffffffffffffffffffffffffffffffffffffffff1681526020019081526020016000206000820151816000019080519060200190612dcb929190614120565b506020820151816001019080519060200190612de8929190614120565b5060408201518160020160006101000a81548173ffffffffffffffffffffffffffffffffffffffff021916908373ffffffffffffffffffffffffffffffffffffffff16021790555060608201518160030160006101000a81548173ffffffffffffffffffffffffffffffffffffffff021916908373ffffffffffffffffffffffffffffffffffffffff16021790555060808201518160040160006101000a81548173ffffffffffffffffffffffffffffffffffffffff021916908373ffffffffffffffffffffffffffffffffffffffff16021790555060a08201518160040160146101000a81548163ffffffff021916908363ffffffff16021790555060c08201518160040160186101000a81548163ffffffff021916908363ffffffff16021790555060e0820151816005019080519060200190612f28929190614120565b50610100820151816006019080519060200190612f46929190614120565b506101208201518160070160006101000a81548160ff02191690831515021790555061014082015181600801559050506001600560008973ffffffffffffffffffffffffffffffffffffffff1673ffffffffffffffffffffffffffffffffffffffff16815260200190815260200160002060008773ffffffffffffffffffffffffffffffffffffffff1673ffffffffffffffffffffffffffffffffffffffff16815260200190815260200160002060006101000a81548160ff0219169083151502179055506001600560008873ffffffffffffffffffffffffffffffffffffffff1673ffffffffffffffffffffffffffffffffffffffff16815260200190815260200160002060008773ffffffffffffffffffffffffffffffffffffffff1673ffffffffffffffffffffffffffffffffffffffff16815260200190815260200160002060006101000a81548160ff0219169083151502179055507ff672ac9767dddf7534211db1e414dba2a4dadefd04cf600ac11b4fd7c26785a4600360008773ffffffffffffffffffffffffffffffffffffffff1673ffffffffffffffffffffffffffffffffffffffff168152602001908152602001600020600001600360008873ffffffffffffffffffffffffffffffffffffffff1673ffffffffffffffffffffffffffffffffffffffff168152602001908152602001600020600101600360008973ffffffffffffffffffffffffffffffffffffffff1673ffffffffffffffffffffffffffffffffffffffff16815260200190815260200160002060020160009054906101000a900473ffffffffffffffffffffffffffffffffffffffff16600360008a73ffffffffffffffffffffffffffffffffffffffff1673ffffffffffffffffffffffffffffffffffffffff16815260200190815260200160002060030160009054906101000a900473ffffffffffffffffffffffffffffffffffffffff16600360008b73ffffffffffffffffffffffffffffffffffffffff1673ffffffffffffffffffffffffffffffffffffffff16815260200190815260200160002060040160009054906101000a900473ffffffffffffffffffffffffffffffffffffffff16600360008c73ffffffffffffffffffffffffffffffffffffffff1673ffffffffffffffffffffffffffffffffffffffff16815260200190815260200160002060040160149054906101000a900463ffffffff16600360008d73ffffffffffffffffffffffffffffffffffffffff1673ffffffffffffffffffffffffffffffffffffffff16815260200190815260200160002060040160189054906101000a900463ffffffff16600360008e73ffffffffffffffffffffffffffffffffffffffff1673ffffffffffffffffffffffffffffffffffffffff16815260200190815260200160002060070160009054906101000a900460ff16600360008f73ffffffffffffffffffffffffffffffffffffffff1673ffffffffffffffffffffffffffffffffffffffff168152602001908152602001600020600801546040518080602001806020018a73ffffffffffffffffffffffffffffffffffffffff1673ffffffffffffffffffffffffffffffffffffffff1681526020018973ffffffffffffffffffffffffffffffffffffffff1673ffffffffffffffffffffffffffffffffffffffff1681526020018873ffffffffffffffffffffffffffffffffffffffff1673ffffffffffffffffffffffffffffffffffffffff1681526020018763ffffffff1663ffffffff1681526020018663ffffffff1663ffffffff1681526020018515151515815260200184815260200183810383528c8181546001816001161561010002031660029004815260200191508054600181600116156101000203166002900480156134fe5780601f106134d3576101008083540402835291602001916134fe565b820191906000526020600020905b8154815290600101906020018083116134e157829003601f168201915b505083810382528b8181546001816001161561010002031660029004815260200191508054600181600116156101000203166002900480156135815780601f1061355657610100808354040283529160200191613581565b820191906000526020600020905b81548152906001019060200180831161356457829003601f168201915b50509b50505050505050505050505060405180910390a15b505050505050505050565b600360003373ffffffffffffffffffffffffffffffffffffffff1673ffffffffffffffffffffffffffffffffffffffff16815260200190815260200160002060070160009054906101000a900460ff16613649576040517f08c379a000000000000000000000000000000000000000000000000000000000815260040180806020018281038252602181526020018061439f6021913960400191505060405180910390fd5b42600260003373ffffffffffffffffffffffffffffffffffffffff1673ffffffffffffffffffffffffffffffffffffffff1681526020019081526020016000206000018190555083600260003373ffffffffffffffffffffffffffffffffffffffff1673ffffffffffffffffffffffffffffffffffffffff16815260200190815260200160002060010190805190602001906136e69291906141a0565b5082600260003373ffffffffffffffffffffffffffffffffffffffff1673ffffffffffffffffffffffffffffffffffffffff168152602001908152602001600020600201908051906020019061373d9291906141a0565b5081600260003373ffffffffffffffffffffffffffffffffffffffff1673ffffffffffffffffffffffffffffffffffffffff1681526020019081526020016000206003018190555080600260003373ffffffffffffffffffffffffffffffffffffffff1673ffffffffffffffffffffffffffffffffffffffff168152602001908152602001600020600401819055507f8204139cf42a09298fa1da4ed86b305217189ac05dece50e37f6e16287880092334286868686604051808773ffffffffffffffffffffffffffffffffffffffff1673ffffffffffffffffffffffffffffffffffffffff1681526020018681526020018060200180602001858152602001848152602001838103835287818151815260200191508051906020019080838360005b8381101561387b578082015181840152602081019050613860565b50505050905090810190601f1680156138a85780820380516001836020036101000a031916815260200191505b50838103825286818151815260200191508051906020019080838360005b838110156138e15780820151818401526020810190506138c6565b50505050905090810190601f16801561390e5780820380516001836020036101000a031916815260200191505b509850505050505050505060405180910390a150505050565b6000606080600080600260008773ffffffffffffffffffffffffffffffffffffffff1673ffffffffffffffffffffffffffffffffffffffff16815260200190815260200160002060000154600260008873ffffffffffffffffffffffffffffffffffffffff1673ffffffffffffffffffffffffffffffffffffffff168152602001908152602001600020600101600260008973ffffffffffffffffffffffffffffffffffffffff1673ffffffffffffffffffffffffffffffffffffffff168152602001908152602001600020600201600260008a73ffffffffffffffffffffffffffffffffffffffff1673ffffffffffffffffffffffffffffffffffffffff16815260200190815260200160002060030154600260008b73ffffffffffffffffffffffffffffffffffffffff1673ffffffffffffffffffffffffffffffffffffffff16815260200190815260200160002060040154838054600181600116156101000203166002900480601f016020809104026020016040519081016040528092919081815260200182805460018160011615610100020316600290048015613b115780601f10613ae657610100808354040283529160200191613b11565b820191906000526020600020905b815481529060010190602001808311613af457829003601f168201915b50505050509350828054600181600116156101000203166002900480601f016020809104026020016040519081016040528092919081815260200182805460018160011615610100020316600290048015613bad5780601f10613b8257610100808354040283529160200191613bad565b820191906000526020600020905b815481529060010190602001808311613b9057829003601f168201915b505050505092509450945094509450945091939590929450565b600360003373ffffffffffffffffffffffffffffffffffffffff1673ffffffffffffffffffffffffffffffffffffffff16815260200190815260200160002060070160009054906101000a900460ff16613cbc577f4f157992bf426424c29fbf811fe13899af10c81ed0357223775f2032b7606fb733604051808273ffffffffffffffffffffffffffffffffffffffff1673ffffffffffffffffffffffffffffffffffffffff168152602001806020018281038252601a8152602001807f496e766572746572206973206e6f7420726567697374657265640000000000008152506020019250505060405180910390a1613e7d565b6060600360003373ffffffffffffffffffffffffffffffffffffffff1673ffffffffffffffffffffffffffffffffffffffff1681526020019081526020016000206000018054600181600116156101000203166002900480601f016020809104026020016040519081016040528092919081815260200182805460018160011615610100020316600290048015613d945780601f10613d6957610100808354040283529160200191613d94565b820191906000526020600020905b815481529060010190602001808311613d7757829003601f168201915b505050505090507f8f94abe99f16571f4c379ba0037381971ab1cf9bb7716f2a0d435ee28b7445b78133844260405180806020018573ffffffffffffffffffffffffffffffffffffffff1673ffffffffffffffffffffffffffffffffffffffff168152602001848152602001838152602001828103825286818151815260200191508051906020019080838360005b83811015613e3e578082015181840152602081019050613e23565b50505050905090810190601f168015613e6b5780820380516001836020036101000a031916815260200191505b509550505050505060405180910390a1505b50565b6000600660008373ffffffffffffffffffffffffffffffffffffffff1673ffffffffffffffffffffffffffffffffffffffff168152602001908152602001600020549050919050565b6000600560008473ffffffffffffffffffffffffffffffffffffffff1673ffffffffffffffffffffffffffffffffffffffff16815260200190815260200160002060008373ffffffffffffffffffffffffffffffffffffffff1673ffffffffffffffffffffffffffffffffffffffff16815260200190815260200160002060009054906101000a900460ff161580613fb75750600160ff16600460008573ffffffffffffffffffffffffffffffffffffffff1673ffffffffffffffffffffffffffffffffffffffff16815260200190815260200160002060010160149054906101000a900460ff1660ff1614155b15613fc55760009050613fca565b600190505b92915050565b6000600260ff16600460008473ffffffffffffffffffffffffffffffffffffffff1673ffffffffffffffffffffffffffffffffffffffff16815260200190815260200160002060010160149054906101000a900460ff1660ff161415614039576001905061403e565b600090505b919050565b6000600360008373ffffffffffffffffffffffffffffffffffffffff1673ffffffffffffffffffffffffffffffffffffffff16815260200190815260200160002060070160009054906101000a900460ff16156140a357600190506140a8565b600090505b919050565b6000600160ff16600460008473ffffffffffffffffffffffffffffffffffffffff1673ffffffffffffffffffffffffffffffffffffffff16815260200190815260200160002060010160149054906101000a900460ff1660ff161415614116576001905061411b565b600090505b919050565b828054600181600116156101000203166002900490600052602060002090601f016020900481019282601f1061416157805160ff191683800117855561418f565b8280016001018555821561418f579182015b8281111561418e578251825591602001919060010190614173565b5b50905061419c9190614220565b5090565b828054600181600116156101000203166002900490600052602060002090601f016020900481019282601f106141e157805160ff191683800117855561420f565b8280016001018555821561420f579182015b8281111561420e5782518255916020019190600101906141f3565b5b50905061421c9190614220565b5090565b61424291905b8082111561423e576000816000905550600101614226565b5090565b9056fe5468652061646d696e206973206e6f742072656769737465726564206f72206e6f7420616e206f776e65724f6e6c79206f776e65722063616e2063616c6c20746869732066756e6374696f6e4e6f20617373657420776974682074686973207075626b6579206973207265676973746572656453656e646572206973206e6f74206f776e6572206f6620746869732061737365745265636569766572206973206e6f74207265676973746572656420617320616e206f776e65725468652061646d696e206973206e6f742072656769737465726564206f72206e6f7420616e2044534f5265636569766572206973206e6f7420726567697374657265642061732044534f53656e64657220697320656974686572206e6f7420726567697374657265642061732044534f206f722044534f206f6620746865206173736574206f72206173736574206973206e6f742072656769737465726564526567697374726174696f6e206f6620617373657420697320726571756972656454686973206164647265737320697320616c726561647920696e20757365206f722073656e646572206973206e6f7420617574686f72697a656453656e646572206973206e6f74207265676973746572656420617320616e206f776e6572a265627a7a723158202d370eaafdd61c922229eff000a2a22acd002cc67b01a2041758f75a3352870364736f6c63430005100032",
  "source": "pragma solidity >=0.4.16 <0.6.0;\n\n/// @title AssetLogging\n/// @author Oli Systems GmbH\n/// @notice allows admind and asset registration and event logging\n/// @dev methods with safety checks that emits responses as events\ncontract AssetLogging {\n    /// @notice this will be assigned at the construction\n    address owner;\n    /// @notice this will store latest DSO value for the asset\n    uint256 assetDsoValue;\n    /// @notice data structure that stores an admin\n    struct Admin {\n        string adminName;\n        address adminPubkey;\n        uint8 adminType;\n        bool isRegistered;\n        uint256 registrationTime;\n    }\n    /// @notice data structure that stores an asset\n    struct Asset {\n        string assetOwner;\n        string assetType;\n        address ownerPubkey;\n        address dsoPubkey;\n        address assetPubkey;\n        uint32 voltageLevel;\n        uint32 peakPower;\n        string location;\n        string installDate;\n        bool isRegistered;\n        uint256 registrationTime;\n    }\n\n    /// @notice flexibility data structure\n    struct AssetFlexibility {\n        uint256 timestamp;\n        string startTime;\n        string endTime;\n        uint256 reductionLevel;\n        uint256 price;\n    }\n\n    /// @notice map flexibility to asset\n    mapping(address => AssetFlexibility) flexibilities;\n    /// @notice map pubkey to assets\n    mapping(address => Asset) private assets;\n    /// @notice map pubkey to admins\n    mapping(address => Admin) private admins;\n    /// @notice map asset ownership to admin\n    mapping(address => mapping(address => bool)) private ownership;\n    /// @notice map dso latest value to the asset\n    mapping(address => uint256) private dsoValueToAsset;\n    /// @notice map inverter to set power or output level\n    mapping(address => uint256) private inverterSetValue;\n\n    /// @notice event fired when registration is not successful\n    event RejectRegistration(string response);\n    /// @notice event fired when a new admin is registered\n    event NewAdmin(\n        string name,\n        address pubkey,\n        uint8 adminType,\n        bool status,\n        uint256 registrationTime\n    );\n    /// @notice event fired when a new asset is registered\n    event NewAsset(\n        string assetOwner,\n        string assetType,\n        address ownerPubkey,\n        address dsoPubkey,\n        address assetPubkey,\n        uint32 voltageLevel,\n        uint32 peakPower,\n        bool status,\n        uint256 registrationTime\n    );\n    /// @notice event fired when transfer of asset is not successful\n    event RejectTransfer(\n        address sender,\n        address to,\n        address asset,\n        string response\n    );\n    /// @notice event fired when transfer of asset is successful\n    event AssetTransfer(\n        address sender,\n        address to,\n        address asset,\n        uint256 transferTime\n    );\n    /// @notice event fired when set value is not successful\n    event RejectSetValue(address dso, string response);\n    /// @notice event fired when DSO set value is successful\n    event NewDsoValue(\n        string dsoName,\n        address dso,\n        string assetOwner,\n        address asset,\n        uint256 value,\n        uint256 time\n    );\n    /// @notice event fired when inverter set power value is successful\n    event NewInverterPower(\n        string assetOwner,\n        address inverter,\n        uint256 currentPower,\n        uint256 time\n    );\n    /// @notice event fired when inverter set output level is successful\n    event NewInverterOutput(\n        string assetOwner,\n        address inverter,\n        uint256 outputLevel,\n        uint256 time\n    );\n    /// @notice event fired when asset sets flexibility\n    event NewFlexibility(\n        address asset,\n        uint256 timestamp,\n        string startTime,\n        string endTime,\n        uint256 reductionLevel,\n        uint256 price\n    );\n\n    /// @notice assign ownership or the contract to sender\n    constructor() public {\n        owner = msg.sender;\n    }\n\n    /// @notice apply a check that only passes if the function is called by owner\n    modifier onlyOwner {\n        require(msg.sender == owner, \"Only owner can call this function\");\n        _;\n    }\n\n    /// @notice allows to register admin\n    /// @dev throws error is pubkey is already in use\n    /// @param _adminPubkey unique ID to register admin\n    /// @param _name name of the admin\n    /// @param _type 1 = owner, 2 = DSO\n    /// @return emit error response\n    function registerAdmin(\n        string memory _name,\n        address _adminPubkey,\n        uint8 _type\n    ) public onlyOwner {\n        if (\n            admins[_adminPubkey].isRegistered ||\n            assets[_adminPubkey].isRegistered\n        ) {\n            emit RejectRegistration(\n                \"This address is already in use or sender is not authorized\"\n            );\n            return;\n        }\n\n        admins[_adminPubkey] = Admin(_name, _adminPubkey, _type, true, now);\n        emit NewAdmin(\n            admins[_adminPubkey].adminName,\n            admins[_adminPubkey].adminPubkey,\n            admins[_adminPubkey].adminType,\n            admins[_adminPubkey].isRegistered,\n            admins[_adminPubkey].registrationTime\n        );\n    }\n\n    /// @notice allow to register asset\n    /// @dev apply checks for admin and pubkey\n    /// @param _name asset owner name\n    /// @param _type defined asset type i.e. PV\n    /// @param _ownerPubkey specify owner unique ID\n    /// @param _dsoPubkey specify DSO unique ID\n    /// @param _assetPubkey specify asset unique ID\n    /// @param _voltageLevel specify asset voltage level\n    /// @param _voltageLevel specify asset peak power\n    /// @param _location specify asset location\n    /// @param _installDate specify asset installation date\n    /// @return emit error response\n    function registerAsset(\n        string memory _name,\n        string memory _type,\n        address _ownerPubkey,\n        address _dsoPubkey,\n        address _assetPubkey,\n        uint32 _voltageLevel,\n        uint32 _peakPower,\n        string memory _location,\n        string memory _installDate\n    ) public onlyOwner {\n        if (!isOwner(_ownerPubkey)) {\n            emit RejectRegistration(\n                \"The admin is not registered or not an owner\"\n            );\n            return;\n        }\n        if (!isDso(_dsoPubkey)) {\n            emit RejectRegistration(\n                \"The admin is not registered or not an DSO\"\n            );\n            return;\n        }\n        if (\n            assets[_assetPubkey].isRegistered ||\n            admins[_assetPubkey].isRegistered\n        ) {\n            emit RejectRegistration(\"This address is already in use.\");\n            return;\n        }\n\n        assets[_assetPubkey] = Asset(\n            _name,\n            _type,\n            _ownerPubkey,\n            _dsoPubkey,\n            _assetPubkey,\n            _voltageLevel,\n            _peakPower,\n            _location,\n            _installDate,\n            true,\n            now\n        );\n        ownership[_ownerPubkey][_assetPubkey] = true;\n        ownership[_dsoPubkey][_assetPubkey] = true;\n\n        emit NewAsset(\n            assets[_assetPubkey].assetOwner,\n            assets[_assetPubkey].assetType,\n            assets[_assetPubkey].ownerPubkey,\n            assets[_assetPubkey].dsoPubkey,\n            assets[_assetPubkey].assetPubkey,\n            assets[_assetPubkey].voltageLevel,\n            assets[_assetPubkey].peakPower,\n            assets[_assetPubkey].isRegistered,\n            assets[_assetPubkey].registrationTime\n        );\n    }\n\n    /// @notice allows trnasfer of asset\n    /// @dev apply checks for asset registration and ownership\n    /// @param _to address of receiver\n    /// @param _assetPubkey specify asset unique ID\n    /// @return emit error response\n    function transferAsset(address _to, address _assetPubkey) public {\n        if (!isAssetRegistered(_assetPubkey)) {\n            emit RejectTransfer(\n                msg.sender,\n                _to,\n                _assetPubkey,\n                \"No asset with this pubkey is registered\"\n            );\n            return;\n        }\n        if (admins[msg.sender].adminType != uint8(1)) {\n            emit RejectTransfer(\n                msg.sender,\n                _to,\n                _assetPubkey,\n                \"Sender is not registered as an owner\"\n            );\n            return;\n        }\n        if (admins[_to].adminType != uint8(1)) {\n            emit RejectTransfer(\n                msg.sender,\n                _to,\n                _assetPubkey,\n                \"Receiver is not registered as an owner\"\n            );\n            return;\n        }\n        if (!ownership[msg.sender][_assetPubkey]) {\n            emit RejectTransfer(\n                msg.sender,\n                _to,\n                _assetPubkey,\n                \"Sender is not owner of this asset\"\n            );\n            return;\n        }\n\n        ownership[msg.sender][_assetPubkey] = false;\n        ownership[_to][_assetPubkey] = true;\n        emit AssetTransfer(msg.sender, _to, _assetPubkey, block.timestamp);\n    }\n\n    /// @notice allows to change the DSO\n    /// @dev apply checks for asset registration and DSO ownership\n    /// @param _to address of receiver\n    /// @param _assetPubkey specify asset unique ID\n    /// @return emit error response\n    function changeDSO(address _to, address _assetPubkey) public {\n        if (!isAssetRegistered(_assetPubkey)) {\n            emit RejectTransfer(\n                msg.sender,\n                _to,\n                _assetPubkey,\n                \"No asset with this pubkey is registered\"\n            );\n            return;\n        }\n        if (!isDso(msg.sender)) {\n            emit RejectTransfer(\n                msg.sender,\n                _to,\n                _assetPubkey,\n                \"Sender is not registered as DSO\"\n            );\n            return;\n        }\n        if (!isDso(_to)) {\n            emit RejectTransfer(\n                msg.sender,\n                _to,\n                _assetPubkey,\n                \"Receiver is not registered as DSO\"\n            );\n            return;\n        }\n        if (!ownership[msg.sender][_assetPubkey]) {\n            emit RejectTransfer(\n                msg.sender,\n                _to,\n                _assetPubkey,\n                \"Sender is not DSO of this asset\"\n            );\n            return;\n        }\n\n        ownership[msg.sender][_assetPubkey] = false;\n        ownership[_to][_assetPubkey] = true;\n        emit AssetTransfer(msg.sender, _to, _assetPubkey, block.timestamp);\n    }\n\n    /// @notice checks owner registration\n    /// @dev checks if pubkey is registered as owner or not\n    /// @param _ownerPubkey unique ID for owner\n    /// @return return true only for owner, else false\n    function isOwner(address _ownerPubkey) internal view returns (bool) {\n        if (admins[_ownerPubkey].adminType == uint8(1)) {\n            return true;\n        }\n\n        return false;\n    }\n\n    /// @notice checks DSO registration\n    /// @dev checks if pubkey is registered as dso or not\n    /// @param _dsoPubkey unique ID for DSO\n    /// @return return true only for DSO, else false\n    function isDso(address _dsoPubkey) internal view returns (bool) {\n        if (admins[_dsoPubkey].adminType == uint8(2)) {\n            return true;\n        }\n\n        return false;\n    }\n\n    /// @notice checks if owner owns a specific asset\n    /// @dev ownership status is available to public\n    /// @param _ownerPubkey unique ID of owner\n    /// @param _assetPubkey unique ID of asset\n    /// @return true if owner owns a specific asset\n    function isOwnerOf(address _ownerPubkey, address _assetPubkey)\n        public\n        view\n        returns (bool)\n    {\n        if (\n            !ownership[_ownerPubkey][_assetPubkey] ||\n            admins[_ownerPubkey].adminType != uint8(1)\n        ) {\n            return false;\n        }\n\n        return true;\n    }\n\n    /// @notice get asset details\n    /// @dev asset details are public\n    /// @param _pubkey unique ID for the asset\n    /// @return asset details\n    function getAsset(address _pubkey)\n        public\n        view\n        returns (\n            string memory,\n            address,\n            address,\n            bool\n        )\n    {\n        return (\n            assets[_pubkey].assetType,\n            assets[_pubkey].ownerPubkey,\n            assets[_pubkey].dsoPubkey,\n            assets[_pubkey].isRegistered\n        );\n    }\n\n    /// @notice get admin details\n    /// @dev admin details are public\n    /// @param _pubkey unique ID for the admin\n    /// @return admin details\n    function getAdmin(address _pubkey)\n        public\n        view\n        returns (\n            address,\n            string memory,\n            uint8,\n            bool\n        )\n    {\n        return (\n            admins[_pubkey].adminPubkey,\n            admins[_pubkey].adminName,\n            admins[_pubkey].adminType,\n            admins[_pubkey].isRegistered\n        );\n    }\n\n    /// @notice checks asset registartion\n    /// @dev will be available to call inside other methods\n    /// @param _assetPubkey unique ID of asset\n    /// @return true if asset if registered\n    function isAssetRegistered(address _assetPubkey)\n        internal\n        view\n        returns (bool)\n    {\n        if (assets[_assetPubkey].isRegistered) {\n            return true;\n        }\n\n        return false;\n    }\n\n    /// @notice allows dso to set value\n    /// @dev checks asset registration and ownership\n    /// @param _assetPubkey unique ID of asset\n    /// @param _value energy value to set\n    function setDsoValue(address _assetPubkey, uint256 _value) public {\n        if (!isDso(msg.sender) || !ownership[msg.sender][_assetPubkey]) {\n            emit RejectSetValue(\n                msg.sender,\n                \"Sender is either not registered as DSO or DSO of the asset or asset is not registered\"\n            );\n            return;\n        }\n\n        dsoValueToAsset[_assetPubkey] = _value;\n        string memory assetOwnerName = assets[_assetPubkey].assetOwner;\n        string memory dsoName = admins[msg.sender].adminName;\n\n        emit NewDsoValue(\n            dsoName,\n            msg.sender,\n            assetOwnerName,\n            _assetPubkey,\n            _value,\n            now\n        );\n    }\n\n    /// @notice return latest DSO set value for the asset\n    /// @param _assetPubkey ID of asset\n    function getDsoLatestValue(address _assetPubkey)\n        public\n        view\n        returns (uint256)\n    {\n        return (dsoValueToAsset[_assetPubkey]);\n    }\n\n    /// @notice allows inverter to set power value\n    /// @dev checks inverter registration\n    /// @param _currentPower power value to send\n    function setInverterPower(uint256 _currentPower) public {\n        if (!assets[msg.sender].isRegistered) {\n            emit RejectSetValue(msg.sender, \"Inverter is not registered\");\n            return;\n        }\n\n        string memory assetOwnerName = assets[msg.sender].assetOwner;\n        emit NewInverterPower(assetOwnerName, msg.sender, _currentPower, now);\n    }\n\n    /// @notice allows inverter to set output level\n    /// @dev checks inverter registration\n    /// @param _outputLevel output level to send\n    function setInverterOutput(uint256 _outputLevel) public {\n        if (!assets[msg.sender].isRegistered) {\n            emit RejectSetValue(msg.sender, \"Inverter is not registered\");\n            return;\n        }\n\n        string memory assetOwnerName = assets[msg.sender].assetOwner;\n        emit NewInverterOutput(assetOwnerName, msg.sender, _outputLevel, now);\n    }\n\n    /// @notice allow asset to set flexibility\n    /// @dev check asset registration\n    function setFlexibility(\n        string memory _startTime,\n        string memory _endTime,\n        uint256 _reductionLevel,\n        uint256 _price\n    ) public {\n        require(\n            assets[msg.sender].isRegistered,\n            \"Registration of asset is required\"\n        );\n        //flexibilities[msg.sender] = AssetFlexibility(block.timestamp, _startTime, _endTime, _reductionLevel, _price);\n        flexibilities[msg.sender].timestamp = block.timestamp;\n        flexibilities[msg.sender].startTime = _startTime;\n        flexibilities[msg.sender].endTime = _endTime;\n        flexibilities[msg.sender].reductionLevel = _reductionLevel;\n        flexibilities[msg.sender].price = _price;\n        emit NewFlexibility(\n            msg.sender,\n            block.timestamp,\n            _startTime,\n            _endTime,\n            _reductionLevel,\n            _price\n        );\n    }\n\n    function getFlexibility(address _asset)\n        public\n        view\n        returns (\n            uint256,\n            string memory,\n            string memory,\n            uint256,\n            uint256\n        )\n    {\n        return (\n            flexibilities[_asset].timestamp,\n            flexibilities[_asset].startTime,\n            flexibilities[_asset].endTime,\n            flexibilities[_asset].reductionLevel,\n            flexibilities[_asset].price\n        );\n    }\n}\n",
  "sourcePath": "/home/yahya/Documents/GitHub/energy-browser/truffle/contracts/AssetLogging.sol",
  "compiler": {
    "name": "solc",
    "version": "0.5.16+commit.9c3226ce.Emscripten.clang"
  },
  "schemaVersion": "3.3.2",
  "updatedAt": "2021-02-09T00:10:45.716Z",
  "networkType": "ethereum",
  "devdoc": {
    "author": "Oli Systems GmbH",
    "details": "methods with safety checks that emits responses as events",
    "methods": {
      "changeDSO(address,address)": {
        "details": "apply checks for asset registration and DSO ownership",
        "params": {
          "_assetPubkey": "specify asset unique ID",
          "_to": "address of receiver"
        },
        "return": "emit error response"
      },
      "getAdmin(address)": {
        "details": "admin details are public",
        "params": {
          "_pubkey": "unique ID for the admin"
        },
        "return": "admin details"
      },
      "getAsset(address)": {
        "details": "asset details are public",
        "params": {
          "_pubkey": "unique ID for the asset"
        },
        "return": "asset details"
      },
      "getDsoLatestValue(address)": {
        "params": {
          "_assetPubkey": "ID of asset"
        }
      },
      "isOwnerOf(address,address)": {
        "details": "ownership status is available to public",
        "params": {
          "_assetPubkey": "unique ID of asset",
          "_ownerPubkey": "unique ID of owner"
        },
        "return": "true if owner owns a specific asset"
      },
      "registerAdmin(string,address,uint8)": {
        "details": "throws error is pubkey is already in use",
        "params": {
          "_adminPubkey": "unique ID to register admin",
          "_name": "name of the admin",
          "_type": "1 = owner, 2 = DSO"
        },
        "return": "emit error response"
      },
      "registerAsset(string,string,address,address,address,uint32,uint32,string,string)": {
        "details": "apply checks for admin and pubkey",
        "params": {
          "_assetPubkey": "specify asset unique ID",
          "_dsoPubkey": "specify DSO unique ID",
          "_installDate": "specify asset installation date",
          "_location": "specify asset location",
          "_name": "asset owner name",
          "_ownerPubkey": "specify owner unique ID",
          "_type": "defined asset type i.e. PV",
          "_voltageLevel": "specify asset peak power"
        },
        "return": "emit error response"
      },
      "setDsoValue(address,uint256)": {
        "details": "checks asset registration and ownership",
        "params": {
          "_assetPubkey": "unique ID of asset",
          "_value": "energy value to set"
        }
      },
      "setFlexibility(string,string,uint256,uint256)": {
        "details": "check asset registration"
      },
      "setInverterOutput(uint256)": {
        "details": "checks inverter registration",
        "params": {
          "_outputLevel": "output level to send"
        }
      },
      "setInverterPower(uint256)": {
        "details": "checks inverter registration",
        "params": {
          "_currentPower": "power value to send"
        }
      },
      "transferAsset(address,address)": {
        "details": "apply checks for asset registration and ownership",
        "params": {
          "_assetPubkey": "specify asset unique ID",
          "_to": "address of receiver"
        },
        "return": "emit error response"
      }
    },
    "title": "AssetLogging"
  },
  "userdoc": {
    "methods": {
      "changeDSO(address,address)": {
        "notice": "allows to change the DSO"
      },
      "constructor": "assign ownership or the contract to sender",
      "getAdmin(address)": {
        "notice": "get admin details"
      },
      "getAsset(address)": {
        "notice": "get asset details"
      },
      "getDsoLatestValue(address)": {
        "notice": "return latest DSO set value for the asset"
      },
      "isOwnerOf(address,address)": {
        "notice": "checks if owner owns a specific asset"
      },
      "registerAdmin(string,address,uint8)": {
        "notice": "allows to register admin"
      },
      "registerAsset(string,string,address,address,address,uint32,uint32,string,string)": {
        "notice": "allow to register asset"
      },
      "setDsoValue(address,uint256)": {
        "notice": "allows dso to set value"
      },
      "setFlexibility(string,string,uint256,uint256)": {
        "notice": "allow asset to set flexibility"
      },
      "setInverterOutput(uint256)": {
        "notice": "allows inverter to set output level"
      },
      "setInverterPower(uint256)": {
        "notice": "allows inverter to set power value"
      },
      "transferAsset(address,address)": {
        "notice": "allows trnasfer of asset"
      }
    },
    "notice": "allows admind and asset registration and event logging"
  }
}