{
  "contractName": "ChargingOrigin",
  "abi": [
    {
      "constant": true,
      "inputs": [
        {
          "name": "",
          "type": "uint256"
        }
      ],
      "name": "consumerList",
      "outputs": [
        {
          "name": "",
          "type": "address"
        }
      ],
      "payable": false,
      "stateMutability": "view",
      "type": "function"
    },
    {
      "constant": true,
      "inputs": [],
      "name": "totalThuPvProd",
      "outputs": [
        {
          "name": "",
          "type": "uint256"
        }
      ],
      "payable": false,
      "stateMutability": "view",
      "type": "function"
    },
    {
      "constant": true,
      "inputs": [],
      "name": "totalExameshWppProd",
      "outputs": [
        {
          "name": "",
          "type": "uint256"
        }
      ],
      "payable": false,
      "stateMutability": "view",
      "type": "function"
    },
    {
      "constant": true,
      "inputs": [],
      "name": "totalConsumption",
      "outputs": [
        {
          "name": "",
          "type": "uint256"
        }
      ],
      "payable": false,
      "stateMutability": "view",
      "type": "function"
    },
    {
      "constant": true,
      "inputs": [],
      "name": "totalProduction",
      "outputs": [
        {
          "name": "",
          "type": "uint256"
        }
      ],
      "payable": false,
      "stateMutability": "view",
      "type": "function"
    },
    {
      "anonymous": false,
      "inputs": [
        {
          "indexed": false,
          "name": "consumer",
          "type": "address"
        },
        {
          "indexed": false,
          "name": "consumption",
          "type": "uint256"
        },
        {
          "indexed": false,
          "name": "location",
          "type": "string"
        },
        {
          "indexed": false,
          "name": "timestamp",
          "type": "uint256"
        }
      ],
      "name": "Consumption",
      "type": "event"
    },
    {
      "anonymous": false,
      "inputs": [
        {
          "indexed": false,
          "name": "producer",
          "type": "address"
        },
        {
          "indexed": false,
          "name": "name",
          "type": "string"
        },
        {
          "indexed": false,
          "name": "production",
          "type": "uint256"
        },
        {
          "indexed": false,
          "name": "timestamp",
          "type": "uint256"
        }
      ],
      "name": "Production",
      "type": "event"
    },
    {
      "anonymous": false,
      "inputs": [
        {
          "indexed": false,
          "name": "addressCP",
          "type": "address"
        },
        {
          "indexed": false,
          "name": "name",
          "type": "string"
        },
        {
          "indexed": false,
          "name": "latitude",
          "type": "uint32"
        },
        {
          "indexed": false,
          "name": "longitude",
          "type": "uint32"
        }
      ],
      "name": "ConsumerRegistration",
      "type": "event"
    },
    {
      "constant": false,
      "inputs": [
        {
          "name": "_name",
          "type": "string"
        },
        {
          "name": "_latitude",
          "type": "uint32"
        },
        {
          "name": "_longitude",
          "type": "uint32"
        }
      ],
      "name": "registerConsumer",
      "outputs": [],
      "payable": false,
      "stateMutability": "nonpayable",
      "type": "function"
    },
    {
      "constant": false,
      "inputs": [
        {
          "name": "_consumption",
          "type": "uint256"
        },
        {
          "name": "_location",
          "type": "string"
        }
      ],
      "name": "sendConsumption",
      "outputs": [],
      "payable": false,
      "stateMutability": "nonpayable",
      "type": "function"
    },
    {
      "constant": false,
      "inputs": [
        {
          "name": "_production",
          "type": "uint256"
        },
        {
          "name": "_name",
          "type": "string"
        }
      ],
      "name": "sendProduction",
      "outputs": [],
      "payable": false,
      "stateMutability": "nonpayable",
      "type": "function"
    }
  ],
  "bytecode": "0x608060405234801561001057600080fd5b50610c09806100206000396000f3fe608060405234801561001057600080fd5b50600436106100885760003560e01c80636b2d130d1161005b5780636b2d130d146102b9578063b3474e8d1461037e578063c9f9cc521461039c578063e7ad5d79146103ba57610088565b806315baa8c01461008d5780631df3650d146100fb5780632d5447b31461011957806347593709146101de575b600080fd5b6100b9600480360360208110156100a357600080fd5b81019080803590602001909291905050506103d8565b604051808273ffffffffffffffffffffffffffffffffffffffff1673ffffffffffffffffffffffffffffffffffffffff16815260200191505060405180910390f35b610103610414565b6040518082815260200191505060405180910390f35b6101dc6004803603604081101561012f57600080fd5b81019080803590602001909291908035906020019064010000000081111561015657600080fd5b82018360208201111561016857600080fd5b8035906020019184600183028401116401000000008311171561018a57600080fd5b91908080601f016020809104026020016040519081016040528093929190818152602001838380828437600081840152601f19601f82011690508083019250505050505050919291929050505061041a565b005b6102b7600480360360608110156101f457600080fd5b810190808035906020019064010000000081111561021157600080fd5b82018360208201111561022357600080fd5b8035906020019184600183028401116401000000008311171561024557600080fd5b91908080601f016020809104026020016040519081016040528093929190818152602001838380828437600081840152601f19601f820116905080830192505050505050509192919290803563ffffffff169060200190929190803563ffffffff16906020019092919050505061059b565b005b61037c600480360360408110156102cf57600080fd5b8101908080359060200190929190803590602001906401000000008111156102f657600080fd5b82018360208201111561030857600080fd5b8035906020019184600183028401116401000000008311171561032a57600080fd5b91908080601f016020809104026020016040519081016040528093929190818152602001838380828437600081840152601f19601f82011690508083019250505050505050919291929050505061087e565b005b610386610a42565b6040518082815260200191505060405180910390f35b6103a4610a48565b6040518082815260200191505060405180910390f35b6103c2610a4e565b6040518082815260200191505060405180910390f35b600481815481106103e557fe5b906000526020600020016000915054906101000a900473ffffffffffffffffffffffffffffffffffffffff1681565b60025481565b6001151561042733610a54565b15151461049c576040517f08c379a00000000000000000000000000000000000000000000000000000000081526004018080602001828103825260188152602001807f526567697374726174696f6e206973207265717569726564000000000000000081525060200191505060405180910390fd5b6104b182600054610ab090919063ffffffff16565b6000819055507f9115a28596ce1a0dab842933229083017e74850d31e0ebf8c13137151f85b91d33838342604051808573ffffffffffffffffffffffffffffffffffffffff1673ffffffffffffffffffffffffffffffffffffffff16815260200184815260200180602001838152602001828103825284818151815260200191508051906020019080838360005b8381101561055a57808201518184015260208101905061053f565b50505050905090810190601f1680156105875780820380516001836020036101000a031916815260200191505b509550505050505060405180910390a15050565b600115156105a833610a54565b1515141561061e576040517f08c379a000000000000000000000000000000000000000000000000000000000815260040180806020018281038252601e8152602001807f436f6e73756d657220697320616c72656164792072656769737465726564000081525060200191505060405180910390fd5b60405180608001604052808481526020018363ffffffff1681526020018263ffffffff16815260200160011515815250600560003373ffffffffffffffffffffffffffffffffffffffff1673ffffffffffffffffffffffffffffffffffffffff16815260200190815260200160002060008201518160000190805190602001906106a9929190610b38565b5060208201518160010160006101000a81548163ffffffff021916908363ffffffff16021790555060408201518160010160046101000a81548163ffffffff021916908363ffffffff16021790555060608201518160010160086101000a81548160ff02191690831515021790555090505060043390806001815401808255809150509060018203906000526020600020016000909192909190916101000a81548173ffffffffffffffffffffffffffffffffffffffff021916908373ffffffffffffffffffffffffffffffffffffffff160217905550507f5ec73e291cbb321963a3e86e88759691b12f1ef5c99121452a6dd1c793f9437c33848484604051808573ffffffffffffffffffffffffffffffffffffffff1673ffffffffffffffffffffffffffffffffffffffff168152602001806020018463ffffffff1663ffffffff1681526020018363ffffffff1663ffffffff168152602001828103825285818151815260200191508051906020019080838360005b8381101561083c578082015181840152602081019050610821565b50505050905090810190601f1680156108695780820380516001836020036101000a031916815260200191505b509550505050505060405180910390a1505050565b60405180807f544855205056000000000000000000000000000000000000000000000000000081525060060190506040518091039020818051906020012014156108e2576108d782600254610ab090919063ffffffff16565b600281905550610943565b60405180807f4578616d65736820575050000000000000000000000000000000000000000000815250600b0190506040518091039020818051906020012014156109425761093b82600354610ab090919063ffffffff16565b6003819055505b5b61095882600154610ab090919063ffffffff16565b6001819055507f3a01907507513d0c2c3fb6f71952c21d086ea616f1edf79b5e25372dbbd7424933828442604051808573ffffffffffffffffffffffffffffffffffffffff1673ffffffffffffffffffffffffffffffffffffffff16815260200180602001848152602001838152602001828103825285818151815260200191508051906020019080838360005b83811015610a015780820151818401526020810190506109e6565b50505050905090810190601f168015610a2e5780820380516001836020036101000a031916815260200191505b509550505050505060405180910390a15050565b60035481565b60005481565b60015481565b6000600560008373ffffffffffffffffffffffffffffffffffffffff1673ffffffffffffffffffffffffffffffffffffffff16815260200190815260200160002060010160089054906101000a900460ff169050809050919050565b600080828401905083811015610b2e576040517f08c379a000000000000000000000000000000000000000000000000000000000815260040180806020018281038252601b8152602001807f536166654d6174683a206164646974696f6e206f766572666c6f77000000000081525060200191505060405180910390fd5b8091505092915050565b828054600181600116156101000203166002900490600052602060002090601f016020900481019282601f10610b7957805160ff1916838001178555610ba7565b82800160010185558215610ba7579182015b82811115610ba6578251825591602001919060010190610b8b565b5b509050610bb49190610bb8565b5090565b610bda91905b80821115610bd6576000816000905550600101610bbe565b5090565b9056fea165627a7a723058205a97a1ea14729faeab0c558a54ad5f8da73777caea70ded1c1d299fb4e35821c0029",
  "source": "pragma solidity >=0.4.16 <0.6.0;\n\nimport \"../node_modules/openzeppelin-solidity/contracts/math/SafeMath.sol\";\n\ncontract ChargingOrigin {\n    using SafeMath for uint256;\n\n    // data variables\n    uint256 public totalConsumption;\n    uint256 public totalProduction;\n    uint256 public totalThuPvProd;\n    uint256 public totalExameshWppProd;\n\n    // consumer struct\n    struct Consumer {\n        string name;\n        uint32 latitude;\n        uint32 longitude;\n        bool isRegistered;\n    }\n\n    // list of registered consumer\n    address[] public consumerList;\n\n    // events\n    event Consumption(address consumer, uint256 consumption, string location, uint256 timestamp);\n    event Production(address producer, string name, uint256 production, uint256 timestamp);\n    event ConsumerRegistration(address addressCP, string name, uint32 latitude, uint32 longitude);\n\n    // map address to consumer\n    mapping(address => Consumer)consumers;\n\n    // functions\n    // register consumer\n    function registerConsumer(string memory _name, uint32 _latitude, uint32 _longitude) public {\n        require(_isRegistered(msg.sender) != true, 'Consumer is already registered');\n        consumers[msg.sender] = Consumer(_name, _latitude, _longitude, true);\n        consumerList.push(msg.sender);\n        emit ConsumerRegistration(msg.sender, _name, _latitude, _longitude);\n    }\n\n    // check registration\n    function _isRegistered(address _address) internal view returns (bool status){\n        status = consumers[_address].isRegistered;\n        return status;\n    }\n\n    function sendConsumption(uint256 _consumption, string memory _location) public {\n        require(_isRegistered(msg.sender) == true, 'Registration is required');\n        totalConsumption = totalConsumption.add(_consumption);\n        emit Consumption(msg.sender, _consumption, _location, block.timestamp);\n    }\n\n    function sendProduction(uint256 _production, string memory _name) public {\n        if (keccak256(bytes(_name)) == keccak256('THU PV')) {\n            totalThuPvProd = totalThuPvProd.add(_production);\n        } else if (keccak256(bytes(_name)) == keccak256('Examesh WPP')) {\n            totalExameshWppProd = totalExameshWppProd.add(_production);\n        }\n\n        totalProduction = totalProduction.add(_production);\n        emit Production(msg.sender, _name, _production, block.timestamp);\n    }\n\n}",
  "sourcePath": "/home/yahya/Documents/GitHub/charging-origin/contracts/ChargingOrigin.sol",
  "compiler": {
    "name": "solc",
    "version": "0.5.8+commit.23d335f2.Emscripten.clang"
  },
  "schemaVersion": "3.0.16",
  "updatedAt": "2019-12-17T14:53:00.617Z",
  "devdoc": {
    "methods": {}
  },
  "userdoc": {
    "methods": {}
  }
}