{
  "contractName": "EnergyProduction",
  "abi": [
    {
      "anonymous": false,
      "inputs": [
        {
          "indexed": false,
          "internalType": "address",
          "name": "oliAddr",
          "type": "address"
        },
        {
          "indexed": false,
          "internalType": "uint256",
          "name": "eTime",
          "type": "uint256"
        },
        {
          "indexed": false,
          "internalType": "uint32",
          "name": "enerAmount",
          "type": "uint32"
        }
      ],
      "name": "EnerProductionEvent",
      "type": "event"
    },
    {
      "anonymous": false,
      "inputs": [
        {
          "indexed": false,
          "internalType": "address",
          "name": "oliAddr",
          "type": "address"
        },
        {
          "indexed": false,
          "internalType": "uint256",
          "name": "eTime",
          "type": "uint256"
        },
        {
          "indexed": false,
          "internalType": "uint32",
          "name": "enerAmount",
          "type": "uint32"
        },
        {
          "indexed": false,
          "internalType": "uint256",
          "name": "blockNumber",
          "type": "uint256"
        },
        {
          "indexed": false,
          "internalType": "bytes32",
          "name": "blockHash",
          "type": "bytes32"
        },
        {
          "indexed": false,
          "internalType": "uint256",
          "name": "txGasPrice",
          "type": "uint256"
        }
      ],
      "name": "ProTransactionEvent",
      "type": "event"
    },
    {
      "anonymous": false,
      "inputs": [
        {
          "indexed": false,
          "internalType": "address",
          "name": "pvAddr",
          "type": "address"
        },
        {
          "indexed": false,
          "internalType": "string",
          "name": "owner",
          "type": "string"
        },
        {
          "indexed": false,
          "internalType": "string",
          "name": "deviceType",
          "type": "string"
        },
        {
          "indexed": false,
          "internalType": "uint32",
          "name": "peakPowerPos",
          "type": "uint32"
        },
        {
          "indexed": false,
          "internalType": "uint32",
          "name": "peakPowerNeg",
          "type": "uint32"
        },
        {
          "indexed": false,
          "internalType": "uint32",
          "name": "latitude",
          "type": "uint32"
        },
        {
          "indexed": false,
          "internalType": "uint32",
          "name": "longitude",
          "type": "uint32"
        },
        {
          "indexed": false,
          "internalType": "uint32",
          "name": "voltageLevel",
          "type": "uint32"
        },
        {
          "indexed": false,
          "internalType": "string",
          "name": "location",
          "type": "string"
        },
        {
          "indexed": false,
          "internalType": "string",
          "name": "installDate",
          "type": "string"
        }
      ],
      "name": "ProducerRegs",
      "type": "event"
    },
    {
      "anonymous": false,
      "inputs": [
        {
          "indexed": false,
          "internalType": "address",
          "name": "oliAddr",
          "type": "address"
        },
        {
          "indexed": false,
          "internalType": "uint256",
          "name": "eTime",
          "type": "uint256"
        },
        {
          "indexed": false,
          "internalType": "uint32",
          "name": "enerAmount",
          "type": "uint32"
        },
        {
          "indexed": false,
          "internalType": "uint256[]",
          "name": "txTime",
          "type": "uint256[]"
        },
        {
          "indexed": false,
          "internalType": "uint32[]",
          "name": "txValue",
          "type": "uint32[]"
        },
        {
          "indexed": false,
          "internalType": "uint256[]",
          "name": "blockNumber",
          "type": "uint256[]"
        },
        {
          "indexed": false,
          "internalType": "bytes32[]",
          "name": "blockHash",
          "type": "bytes32[]"
        },
        {
          "indexed": false,
          "internalType": "uint256[]",
          "name": "txGasPrice",
          "type": "uint256[]"
        }
      ],
      "name": "TestEvent",
      "type": "event"
    },
    {
      "constant": true,
      "inputs": [
        {
          "internalType": "uint256",
          "name": "",
          "type": "uint256"
        }
      ],
      "name": "proAccntList",
      "outputs": [
        {
          "internalType": "address",
          "name": "",
          "type": "address"
        }
      ],
      "payable": false,
      "stateMutability": "view",
      "type": "function"
    },
    {
      "constant": false,
      "inputs": [
        {
          "internalType": "string",
          "name": "_owner",
          "type": "string"
        },
        {
          "internalType": "string",
          "name": "_deviceType",
          "type": "string"
        },
        {
          "internalType": "uint32",
          "name": "_peakPowerPos",
          "type": "uint32"
        },
        {
          "internalType": "uint32",
          "name": "_peakPowerNeg",
          "type": "uint32"
        },
        {
          "internalType": "uint32",
          "name": "_latitude",
          "type": "uint32"
        },
        {
          "internalType": "uint32",
          "name": "_longitude",
          "type": "uint32"
        },
        {
          "internalType": "uint32",
          "name": "_voltageLevel",
          "type": "uint32"
        },
        {
          "internalType": "string",
          "name": "_location",
          "type": "string"
        },
        {
          "internalType": "string",
          "name": "_installDate",
          "type": "string"
        }
      ],
      "name": "setProducer",
      "outputs": [],
      "payable": false,
      "stateMutability": "nonpayable",
      "type": "function"
    },
    {
      "constant": true,
      "inputs": [
        {
          "internalType": "address",
          "name": "producerAddr",
          "type": "address"
        }
      ],
      "name": "proAccntsArr",
      "outputs": [
        {
          "internalType": "bool",
          "name": "",
          "type": "bool"
        }
      ],
      "payable": false,
      "stateMutability": "view",
      "type": "function"
    },
    {
      "constant": true,
      "inputs": [],
      "name": "getProducer",
      "outputs": [
        {
          "internalType": "address",
          "name": "",
          "type": "address"
        },
        {
          "internalType": "string",
          "name": "",
          "type": "string"
        },
        {
          "internalType": "string",
          "name": "",
          "type": "string"
        },
        {
          "internalType": "uint32",
          "name": "",
          "type": "uint32"
        },
        {
          "internalType": "uint32",
          "name": "",
          "type": "uint32"
        },
        {
          "internalType": "uint32",
          "name": "",
          "type": "uint32"
        },
        {
          "internalType": "uint32",
          "name": "",
          "type": "uint32"
        },
        {
          "internalType": "uint32",
          "name": "",
          "type": "uint32"
        },
        {
          "internalType": "string",
          "name": "",
          "type": "string"
        },
        {
          "internalType": "string",
          "name": "",
          "type": "string"
        }
      ],
      "payable": false,
      "stateMutability": "view",
      "type": "function"
    },
    {
      "constant": true,
      "inputs": [
        {
          "internalType": "address",
          "name": "_proAccntAddr",
          "type": "address"
        }
      ],
      "name": "getProAccntDetails",
      "outputs": [
        {
          "internalType": "string",
          "name": "",
          "type": "string"
        },
        {
          "internalType": "string",
          "name": "",
          "type": "string"
        },
        {
          "internalType": "uint32",
          "name": "",
          "type": "uint32"
        },
        {
          "internalType": "string",
          "name": "",
          "type": "string"
        },
        {
          "internalType": "uint32",
          "name": "",
          "type": "uint32"
        },
        {
          "internalType": "uint32",
          "name": "",
          "type": "uint32"
        },
        {
          "internalType": "string",
          "name": "",
          "type": "string"
        }
      ],
      "payable": false,
      "stateMutability": "view",
      "type": "function"
    },
    {
      "constant": true,
      "inputs": [],
      "name": "getProAccntsList",
      "outputs": [
        {
          "internalType": "address[]",
          "name": "",
          "type": "address[]"
        }
      ],
      "payable": false,
      "stateMutability": "view",
      "type": "function"
    },
    {
      "constant": true,
      "inputs": [],
      "name": "countProducers",
      "outputs": [
        {
          "internalType": "uint256",
          "name": "",
          "type": "uint256"
        }
      ],
      "payable": false,
      "stateMutability": "view",
      "type": "function"
    },
    {
      "constant": false,
      "inputs": [
        {
          "internalType": "uint32",
          "name": "_enerValue",
          "type": "uint32"
        }
      ],
      "name": "setEnerProduction",
      "outputs": [],
      "payable": false,
      "stateMutability": "nonpayable",
      "type": "function"
    },
    {
      "constant": true,
      "inputs": [],
      "name": "getEnerProduction",
      "outputs": [
        {
          "internalType": "address",
          "name": "",
          "type": "address"
        },
        {
          "internalType": "uint256",
          "name": "",
          "type": "uint256"
        },
        {
          "internalType": "uint32",
          "name": "",
          "type": "uint32"
        }
      ],
      "payable": false,
      "stateMutability": "view",
      "type": "function"
    },
    {
      "constant": true,
      "inputs": [
        {
          "internalType": "address",
          "name": "_proAccntAddr",
          "type": "address"
        }
      ],
      "name": "getProEnerProduction",
      "outputs": [
        {
          "internalType": "address",
          "name": "",
          "type": "address"
        },
        {
          "internalType": "uint256[]",
          "name": "",
          "type": "uint256[]"
        },
        {
          "internalType": "uint32[]",
          "name": "",
          "type": "uint32[]"
        },
        {
          "internalType": "uint256[]",
          "name": "",
          "type": "uint256[]"
        },
        {
          "internalType": "bytes32[]",
          "name": "",
          "type": "bytes32[]"
        },
        {
          "internalType": "uint256[]",
          "name": "",
          "type": "uint256[]"
        }
      ],
      "payable": false,
      "stateMutability": "view",
      "type": "function"
    },
    {
      "constant": true,
      "inputs": [
        {
          "internalType": "address",
          "name": "_proAccntAddr",
          "type": "address"
        }
      ],
      "name": "getProBalance",
      "outputs": [
        {
          "internalType": "uint256",
          "name": "",
          "type": "uint256"
        }
      ],
      "payable": false,
      "stateMutability": "view",
      "type": "function"
    },
    {
      "constant": true,
      "inputs": [
        {
          "internalType": "address",
          "name": "addr",
          "type": "address"
        }
      ],
      "name": "getDeviceTypeForCoin",
      "outputs": [
        {
          "internalType": "string",
          "name": "",
          "type": "string"
        }
      ],
      "payable": false,
      "stateMutability": "view",
      "type": "function"
    },
    {
      "constant": true,
      "inputs": [
        {
          "internalType": "address",
          "name": "addr",
          "type": "address"
        }
      ],
      "name": "getLocationForCoin",
      "outputs": [
        {
          "internalType": "string",
          "name": "",
          "type": "string"
        }
      ],
      "payable": false,
      "stateMutability": "view",
      "type": "function"
    },
    {
      "constant": true,
      "inputs": [
        {
          "internalType": "address",
          "name": "addr",
          "type": "address"
        }
      ],
      "name": "getEnerProductionForCoin",
      "outputs": [
        {
          "internalType": "uint32[]",
          "name": "",
          "type": "uint32[]"
        }
      ],
      "payable": false,
      "stateMutability": "view",
      "type": "function"
    }
  ],
  "bytecode": "0x608060405234801561001057600080fd5b50612a43806100206000396000f3fe608060405234801561001057600080fd5b50600436106100ea5760003560e01c8063ba0cfdce1161008c578063db9a89b511610066578063db9a89b51461088d578063dd1063aa1461094a578063e1a9249c14610b84578063f1f1ecb714610e55576100ea565b8063ba0cfdce1461079d578063c15ab975146107bb578063ce0ccd091461081f576100ea565b80632f183cfd116100c85780632f183cfd1461029d5780633ddc0835146104f65780634bb4577f146106e25780637d0691fb14610741576100ea565b806303e85f52146100ef57806312a32118146101ac57806329b4806914610245575b600080fd5b6101316004803603602081101561010557600080fd5b81019080803573ffffffffffffffffffffffffffffffffffffffff169060200190929190505050610e89565b6040518080602001828103825283818151815260200191508051906020019080838360005b83811015610171578082015181840152602081019050610156565b50505050905090810190601f16801561019e5780820380516001836020036101000a031916815260200191505b509250505060405180910390f35b6101ee600480360360208110156101c257600080fd5b81019080803573ffffffffffffffffffffffffffffffffffffffff169060200190929190505050610f6c565b6040518080602001828103825283818151815260200191508051906020019060200280838360005b83811015610231578082015181840152602081019050610216565b505050509050019250505060405180910390f35b6102876004803603602081101561025b57600080fd5b81019080803573ffffffffffffffffffffffffffffffffffffffff169060200190929190505050611032565b6040518082815260200191505060405180910390f35b6102a561107b565b604051808b73ffffffffffffffffffffffffffffffffffffffff1673ffffffffffffffffffffffffffffffffffffffff16815260200180602001806020018a63ffffffff1663ffffffff1681526020018963ffffffff1663ffffffff1681526020018863ffffffff1663ffffffff1681526020018763ffffffff1663ffffffff1681526020018663ffffffff1663ffffffff168152602001806020018060200185810385528e818151815260200191508051906020019080838360005b8381101561037d578082015181840152602081019050610362565b50505050905090810190601f1680156103aa5780820380516001836020036101000a031916815260200191505b5085810384528d818151815260200191508051906020019080838360005b838110156103e35780820151818401526020810190506103c8565b50505050905090810190601f1680156104105780820380516001836020036101000a031916815260200191505b50858103835287818151815260200191508051906020019080838360005b8381101561044957808201518184015260208101905061042e565b50505050905090810190601f1680156104765780820380516001836020036101000a031916815260200191505b50858103825286818151815260200191508051906020019080838360005b838110156104af578082015181840152602081019050610494565b50505050905090810190601f1680156104dc5780820380516001836020036101000a031916815260200191505b509e50505050505050505050505050505060405180910390f35b6105386004803603602081101561050c57600080fd5b81019080803573ffffffffffffffffffffffffffffffffffffffff1690602001909291905050506115bd565b604051808773ffffffffffffffffffffffffffffffffffffffff1673ffffffffffffffffffffffffffffffffffffffff168152602001806020018060200180602001806020018060200186810386528b818151815260200191508051906020019060200280838360005b838110156105bd5780820151818401526020810190506105a2565b5050505090500186810385528a818151815260200191508051906020019060200280838360005b838110156105ff5780820151818401526020810190506105e4565b50505050905001868103845289818151815260200191508051906020019060200280838360005b83811015610641578082015181840152602081019050610626565b50505050905001868103835288818151815260200191508051906020019060200280838360005b83811015610683578082015181840152602081019050610668565b50505050905001868103825287818151815260200191508051906020019060200280838360005b838110156106c55780820151818401526020810190506106aa565b505050509050019b50505050505050505050505060405180910390f35b6106ea6118ed565b6040518080602001828103825283818151815260200191508051906020019060200280838360005b8381101561072d578082015181840152602081019050610712565b505050509050019250505060405180910390f35b6107836004803603602081101561075757600080fd5b81019080803573ffffffffffffffffffffffffffffffffffffffff16906020019092919050505061197b565b604051808215151515815260200191505060405180910390f35b6107a56119d7565b6040518082815260200191505060405180910390f35b6107c36119e4565b604051808473ffffffffffffffffffffffffffffffffffffffff1673ffffffffffffffffffffffffffffffffffffffff1681526020018381526020018263ffffffff1663ffffffff168152602001935050505060405180910390f35b61084b6004803603602081101561083557600080fd5b8101908080359060200190929190505050611a8e565b604051808273ffffffffffffffffffffffffffffffffffffffff1673ffffffffffffffffffffffffffffffffffffffff16815260200191505060405180910390f35b6108cf600480360360208110156108a357600080fd5b81019080803573ffffffffffffffffffffffffffffffffffffffff169060200190929190505050611aca565b6040518080602001828103825283818151815260200191508051906020019080838360005b8381101561090f5780820151818401526020810190506108f4565b50505050905090810190601f16801561093c5780820380516001836020036101000a031916815260200191505b509250505060405180910390f35b61098c6004803603602081101561096057600080fd5b81019080803573ffffffffffffffffffffffffffffffffffffffff169060200190929190505050611bad565b6040518080602001806020018863ffffffff1663ffffffff168152602001806020018763ffffffff1663ffffffff1681526020018663ffffffff1663ffffffff1681526020018060200185810385528c818151815260200191508051906020019080838360005b83811015610a0e5780820151818401526020810190506109f3565b50505050905090810190601f168015610a3b5780820380516001836020036101000a031916815260200191505b5085810384528b818151815260200191508051906020019080838360005b83811015610a74578082015181840152602081019050610a59565b50505050905090810190601f168015610aa15780820380516001836020036101000a031916815260200191505b50858103835289818151815260200191508051906020019080838360005b83811015610ada578082015181840152602081019050610abf565b50505050905090810190601f168015610b075780820380516001836020036101000a031916815260200191505b50858103825286818151815260200191508051906020019080838360005b83811015610b40578082015181840152602081019050610b25565b50505050905090810190601f168015610b6d5780820380516001836020036101000a031916815260200191505b509b50505050505050505050505060405180910390f35b610e536004803603610120811015610b9b57600080fd5b8101908080359060200190640100000000811115610bb857600080fd5b820183602082011115610bca57600080fd5b80359060200191846001830284011164010000000083111715610bec57600080fd5b91908080601f016020809104026020016040519081016040528093929190818152602001838380828437600081840152601f19601f82011690508083019250505050505050919291929080359060200190640100000000811115610c4f57600080fd5b820183602082011115610c6157600080fd5b80359060200191846001830284011164010000000083111715610c8357600080fd5b91908080601f016020809104026020016040519081016040528093929190818152602001838380828437600081840152601f19601f820116905080830192505050505050509192919290803563ffffffff169060200190929190803563ffffffff169060200190929190803563ffffffff169060200190929190803563ffffffff169060200190929190803563ffffffff16906020019092919080359060200190640100000000811115610d3657600080fd5b820183602082011115610d4857600080fd5b80359060200191846001830284011164010000000083111715610d6a57600080fd5b91908080601f016020809104026020016040519081016040528093929190818152602001838380828437600081840152601f19601f82011690508083019250505050505050919291929080359060200190640100000000811115610dcd57600080fd5b820183602082011115610ddf57600080fd5b80359060200191846001830284011164010000000083111715610e0157600080fd5b91908080601f016020809104026020016040519081016040528093929190818152602001838380828437600081840152601f19601f82011690508083019250505050505050919291929050505061203c565b005b610e8760048036036020811015610e6b57600080fd5b81019080803563ffffffff169060200190929190505050612559565b005b60606000808373ffffffffffffffffffffffffffffffffffffffff1673ffffffffffffffffffffffffffffffffffffffff1681526020019081526020016000206003018054600181600116156101000203166002900480601f016020809104026020016040519081016040528092919081815260200182805460018160011615610100020316600290048015610f605780601f10610f3557610100808354040283529160200191610f60565b820191906000526020600020905b815481529060010190602001808311610f4357829003601f168201915b50505050509050919050565b6060600460008373ffffffffffffffffffffffffffffffffffffffff1673ffffffffffffffffffffffffffffffffffffffff16815260200190815260200160002060010180548060200260200160405190810160405280929190818152602001828054801561102657602002820191906000526020600020906000905b82829054906101000a900463ffffffff1663ffffffff1681526020019060040190602082600301049283019260010382029150808411610fe95790505b50505050509050919050565b6000600360008373ffffffffffffffffffffffffffffffffffffffff1673ffffffffffffffffffffffffffffffffffffffff168152602001908152602001600020549050919050565b60006060806000806000806000606080336000803373ffffffffffffffffffffffffffffffffffffffff1673ffffffffffffffffffffffffffffffffffffffff1681526020019081526020016000206000016000803373ffffffffffffffffffffffffffffffffffffffff1673ffffffffffffffffffffffffffffffffffffffff1681526020019081526020016000206001016000803373ffffffffffffffffffffffffffffffffffffffff1673ffffffffffffffffffffffffffffffffffffffff16815260200190815260200160002060020160009054906101000a900463ffffffff166000803373ffffffffffffffffffffffffffffffffffffffff1673ffffffffffffffffffffffffffffffffffffffff16815260200190815260200160002060020160049054906101000a900463ffffffff166000803373ffffffffffffffffffffffffffffffffffffffff1673ffffffffffffffffffffffffffffffffffffffff16815260200190815260200160002060020160089054906101000a900463ffffffff166000803373ffffffffffffffffffffffffffffffffffffffff1673ffffffffffffffffffffffffffffffffffffffff168152602001908152602001600020600201600c9054906101000a900463ffffffff166000803373ffffffffffffffffffffffffffffffffffffffff1673ffffffffffffffffffffffffffffffffffffffff16815260200190815260200160002060020160109054906101000a900463ffffffff166000803373ffffffffffffffffffffffffffffffffffffffff1673ffffffffffffffffffffffffffffffffffffffff1681526020019081526020016000206003016000803373ffffffffffffffffffffffffffffffffffffffff1673ffffffffffffffffffffffffffffffffffffffff168152602001908152602001600020600401899950888054600181600116156101000203166002900480601f0160208091040260200160405190810160405280929190818152602001828054600181600116156101000203166002900480156113c25780601f10611397576101008083540402835291602001916113c2565b820191906000526020600020905b8154815290600101906020018083116113a557829003601f168201915b50505050509850878054600181600116156101000203166002900480601f01602080910402602001604051908101604052809291908181526020018280546001816001161561010002031660029004801561145e5780601f106114335761010080835404028352916020019161145e565b820191906000526020600020905b81548152906001019060200180831161144157829003601f168201915b50505050509750818054600181600116156101000203166002900480601f0160208091040260200160405190810160405280929190818152602001828054600181600116156101000203166002900480156114fa5780601f106114cf576101008083540402835291602001916114fa565b820191906000526020600020905b8154815290600101906020018083116114dd57829003601f168201915b50505050509150808054600181600116156101000203166002900480601f0160208091040260200160405190810160405280929190818152602001828054600181600116156101000203166002900480156115965780601f1061156b57610100808354040283529160200191611596565b820191906000526020600020905b81548152906001019060200180831161157957829003601f168201915b50505050509050995099509950995099509950995099509950995090919293949596979899565b6000606080606080606086600460008973ffffffffffffffffffffffffffffffffffffffff1673ffffffffffffffffffffffffffffffffffffffff168152602001908152602001600020600001600460008a73ffffffffffffffffffffffffffffffffffffffff1673ffffffffffffffffffffffffffffffffffffffff168152602001908152602001600020600101600460008b73ffffffffffffffffffffffffffffffffffffffff1673ffffffffffffffffffffffffffffffffffffffff168152602001908152602001600020600201600460008c73ffffffffffffffffffffffffffffffffffffffff1673ffffffffffffffffffffffffffffffffffffffff168152602001908152602001600020600301600460008d73ffffffffffffffffffffffffffffffffffffffff1673ffffffffffffffffffffffffffffffffffffffff1681526020019081526020016000206004018480548060200260200160405190810160405280929190818152602001828054801561175d57602002820191906000526020600020905b815481526020019060010190808311611749575b50505050509450838054806020026020016040519081016040528092919081815260200182805480156117db57602002820191906000526020600020906000905b82829054906101000a900463ffffffff1663ffffffff168152602001906004019060208260030104928301926001038202915080841161179e5790505b505050505093508280548060200260200160405190810160405280929190818152602001828054801561182d57602002820191906000526020600020905b815481526020019060010190808311611819575b505050505092508180548060200260200160405190810160405280929190818152602001828054801561187f57602002820191906000526020600020905b81548152602001906001019080831161186b575b50505050509150808054806020026020016040519081016040528092919081815260200182805480156118d157602002820191906000526020600020905b8154815260200190600101908083116118bd575b5050505050905095509550955095509550955091939550919395565b6060600580548060200260200160405190810160405280929190818152602001828054801561197157602002820191906000526020600020905b8160009054906101000a900473ffffffffffffffffffffffffffffffffffffffff1673ffffffffffffffffffffffffffffffffffffffff1681526020019060010190808311611927575b5050505050905090565b600080600160008473ffffffffffffffffffffffffffffffffffffffff1673ffffffffffffffffffffffffffffffffffffffff1681526020019081526020016000205411156119cd57600190506119d2565b600090505b919050565b6000600580549050905090565b600080600033600260003373ffffffffffffffffffffffffffffffffffffffff1673ffffffffffffffffffffffffffffffffffffffff16815260200190815260200160002060000154600260003373ffffffffffffffffffffffffffffffffffffffff1673ffffffffffffffffffffffffffffffffffffffff16815260200190815260200160002060010160009054906101000a900463ffffffff16829250925092509250909192565b60058181548110611a9b57fe5b906000526020600020016000915054906101000a900473ffffffffffffffffffffffffffffffffffffffff1681565b60606000808373ffffffffffffffffffffffffffffffffffffffff1673ffffffffffffffffffffffffffffffffffffffff1681526020019081526020016000206001018054600181600116156101000203166002900480601f016020809104026020016040519081016040528092919081815260200182805460018160011615610100020316600290048015611ba15780601f10611b7657610100808354040283529160200191611ba1565b820191906000526020600020905b815481529060010190602001808311611b8457829003601f168201915b50505050509050919050565b6060806000606060008060606000808973ffffffffffffffffffffffffffffffffffffffff1673ffffffffffffffffffffffffffffffffffffffff1681526020019081526020016000206000016000808a73ffffffffffffffffffffffffffffffffffffffff1673ffffffffffffffffffffffffffffffffffffffff1681526020019081526020016000206001016000808b73ffffffffffffffffffffffffffffffffffffffff1673ffffffffffffffffffffffffffffffffffffffff16815260200190815260200160002060020160009054906101000a900463ffffffff166000808c73ffffffffffffffffffffffffffffffffffffffff1673ffffffffffffffffffffffffffffffffffffffff1681526020019081526020016000206003016000808d73ffffffffffffffffffffffffffffffffffffffff1673ffffffffffffffffffffffffffffffffffffffff16815260200190815260200160002060020160089054906101000a900463ffffffff166000808e73ffffffffffffffffffffffffffffffffffffffff1673ffffffffffffffffffffffffffffffffffffffff168152602001908152602001600020600201600c9054906101000a900463ffffffff166000808f73ffffffffffffffffffffffffffffffffffffffff1673ffffffffffffffffffffffffffffffffffffffff168152602001908152602001600020600401868054600181600116156101000203166002900480601f016020809104026020016040519081016040528092919081815260200182805460018160011615610100020316600290048015611e485780601f10611e1d57610100808354040283529160200191611e48565b820191906000526020600020905b815481529060010190602001808311611e2b57829003601f168201915b50505050509650858054600181600116156101000203166002900480601f016020809104026020016040519081016040528092919081815260200182805460018160011615610100020316600290048015611ee45780601f10611eb957610100808354040283529160200191611ee4565b820191906000526020600020905b815481529060010190602001808311611ec757829003601f168201915b50505050509550838054600181600116156101000203166002900480601f016020809104026020016040519081016040528092919081815260200182805460018160011615610100020316600290048015611f805780601f10611f5557610100808354040283529160200191611f80565b820191906000526020600020905b815481529060010190602001808311611f6357829003601f168201915b50505050509350808054600181600116156101000203166002900480601f01602080910402602001604051908101604052809291908181526020018280546001816001161561010002031660029004801561201c5780601f10611ff15761010080835404028352916020019161201c565b820191906000526020600020905b815481529060010190602001808311611fff57829003601f168201915b505050505090509650965096509650965096509650919395979092949650565b6120453361197b565b61254e57600580549050600160003373ffffffffffffffffffffffffffffffffffffffff1673ffffffffffffffffffffffffffffffffffffffff168152602001908152602001600020819055506040518061012001604052808a81526020018981526020018863ffffffff1681526020018763ffffffff1681526020018663ffffffff1681526020018563ffffffff1681526020018463ffffffff168152602001838152602001828152506000803373ffffffffffffffffffffffffffffffffffffffff1673ffffffffffffffffffffffffffffffffffffffff168152602001908152602001600020600082015181600001908051906020019061214a929190612969565b506020820151816001019080519060200190612167929190612969565b5060408201518160020160006101000a81548163ffffffff021916908363ffffffff16021790555060608201518160020160046101000a81548163ffffffff021916908363ffffffff16021790555060808201518160020160086101000a81548163ffffffff021916908363ffffffff16021790555060a082015181600201600c6101000a81548163ffffffff021916908363ffffffff16021790555060c08201518160020160106101000a81548163ffffffff021916908363ffffffff16021790555060e0820151816003019080519060200190612247929190612969565b50610100820151816004019080519060200190612265929190612969565b50905050600160053390806001815401808255809150509060018203906000526020600020016000909192909190916101000a81548173ffffffffffffffffffffffffffffffffffffffff021916908373ffffffffffffffffffffffffffffffffffffffff16021790555050507f5bba84d3568a0b013b9eac75d4ba0c2aa6affa2d3d931aff1565c817e7438c40338a8a8a8a8a8a8a8a8a604051808b73ffffffffffffffffffffffffffffffffffffffff1673ffffffffffffffffffffffffffffffffffffffff16815260200180602001806020018a63ffffffff1663ffffffff1681526020018963ffffffff1663ffffffff1681526020018863ffffffff1663ffffffff1681526020018763ffffffff1663ffffffff1681526020018663ffffffff1663ffffffff168152602001806020018060200185810385528e818151815260200191508051906020019080838360005b838110156123d55780820151818401526020810190506123ba565b50505050905090810190601f1680156124025780820380516001836020036101000a031916815260200191505b5085810384528d818151815260200191508051906020019080838360005b8381101561243b578082015181840152602081019050612420565b50505050905090810190601f1680156124685780820380516001836020036101000a031916815260200191505b50858103835287818151815260200191508051906020019080838360005b838110156124a1578082015181840152602081019050612486565b50505050905090810190601f1680156124ce5780820380516001836020036101000a031916815260200191505b50858103825286818151815260200191508051906020019080838360005b838110156125075780820151818401526020810190506124ec565b50505050905090810190601f1680156125345780820380516001836020036101000a031916815260200191505b509e50505050505050505050505050505060405180910390a15b505050505050505050565b6125623361197b565b156128cb576040518060a001604052804281526020018263ffffffff168152602001438152602001600143034081526020013a815250600260003373ffffffffffffffffffffffffffffffffffffffff1673ffffffffffffffffffffffffffffffffffffffff1681526020019081526020016000206000820151816000015560208201518160010160006101000a81548163ffffffff021916908363ffffffff1602179055506040820151816002015560608201518160030155608082015181600401559050508063ffffffff16600360003373ffffffffffffffffffffffffffffffffffffffff1673ffffffffffffffffffffffffffffffffffffffff168152602001908152602001600020600082825401925050819055506001600460003373ffffffffffffffffffffffffffffffffffffffff1673ffffffffffffffffffffffffffffffffffffffff168152602001908152602001600020600001429080600181540180825580915050906001820390600052602060002001600090919290919091505550506001600460003373ffffffffffffffffffffffffffffffffffffffff1673ffffffffffffffffffffffffffffffffffffffff16815260200190815260200160002060010182908060018154018082558091505090600182039060005260206000209060089182820401919006600402909192909190916101000a81548163ffffffff021916908363ffffffff1602179055505050600460003373ffffffffffffffffffffffffffffffffffffffff1673ffffffffffffffffffffffffffffffffffffffff168152602001908152602001600020600201439080600181540180825580915050906001820390600052602060002001600090919290919091505550600460003373ffffffffffffffffffffffffffffffffffffffff1673ffffffffffffffffffffffffffffffffffffffff168152602001908152602001600020600301600143034090806001815401808255809150509060018203906000526020600020016000909192909190915055506001600460003373ffffffffffffffffffffffffffffffffffffffff1673ffffffffffffffffffffffffffffffffffffffff1681526020019081526020016000206004013a9080600181540180825580915050906001820390600052602060002001600090919290919091505550505b7fe347f86fcdca34abcd53a9182178f7819057387ce2d5b3ffae27cd924f02018d3342834360014303403a604051808773ffffffffffffffffffffffffffffffffffffffff1673ffffffffffffffffffffffffffffffffffffffff1681526020018681526020018563ffffffff1663ffffffff168152602001848152602001838152602001828152602001965050505050505060405180910390a150565b828054600181600116156101000203166002900490600052602060002090601f016020900481019282601f106129aa57805160ff19168380011785556129d8565b828001600101855582156129d8579182015b828111156129d75782518255916020019190600101906129bc565b5b5090506129e591906129e9565b5090565b612a0b91905b80821115612a075760008160009055506001016129ef565b5090565b9056fea265627a7a72315820f5b7295758e0520ce7bc22b5d9b3a21914120318939c620e26c48687ba8b8a6c64736f6c63430005100032",
  "source": "pragma solidity >=0.4.16 <0.6.0;\n\ncontract EnergyProduction {\n    struct Producer {\n        string owner;\n        string deviceType;\n        uint32 peakPowerPos;\n        uint32 peakPowerNeg;\n        uint32 latitude;\n        uint32 longitude;\n        uint32 voltageLevel;\n        string location;\n        string installDate;\n    }\n\n    struct EnerProduction {\n        uint256 enerTime;\n        uint32 enerValue;\n        uint256 blockNumber;\n        bytes32 blockHash;\n        uint256 txGasPrice;\n    }\n\n    struct ProTransaction {\n        uint256[] txTime;\n        uint32[] txValue;\n        uint256[] blockNumber;\n        bytes32[] blockHash;\n        uint256[] txGasPrice;\n    }\n\n    event ProducerRegs(\n        address pvAddr,\n        string owner,\n        string deviceType,\n        uint32 peakPowerPos,\n        uint32 peakPowerNeg,\n        uint32 latitude,\n        uint32 longitude,\n        uint32 voltageLevel,\n        string location,\n        string installDate\n    );\n    event EnerProductionEvent(\n        address oliAddr,\n        uint256 eTime,\n        uint32 enerAmount\n    );\n    event TestEvent(\n        address oliAddr,\n        uint256 eTime,\n        uint32 enerAmount,\n        uint256[] txTime,\n        uint32[] txValue,\n        uint256[] blockNumber,\n        bytes32[] blockHash,\n        uint256[] txGasPrice\n    );\n    event ProTransactionEvent(\n        address oliAddr,\n        uint256 eTime,\n        uint32 enerAmount,\n        uint256 blockNumber,\n        bytes32 blockHash,\n        uint256 txGasPrice\n    );\n\n    mapping(address => Producer) producers;\n    mapping(address => uint256) accntIndexArr;\n    mapping(address => EnerProduction) enerProductions;\n    mapping(address => uint256) proBalance;\n    mapping(address => ProTransaction) transactions;\n\n    address[] public proAccntList;\n\n    /*\n     * Registration\n     */\n\n    function setProducer(\n        string memory _owner,\n        string memory _deviceType,\n        uint32 _peakPowerPos,\n        uint32 _peakPowerNeg,\n        uint32 _latitude,\n        uint32 _longitude,\n        uint32 _voltageLevel,\n        string memory _location,\n        string memory _installDate\n    ) public {\n        if (!proAccntsArr(msg.sender)) {\n            // mapping address to index\n            accntIndexArr[msg.sender] = proAccntList.length;\n            producers[msg.sender] = Producer(\n                _owner,\n                _deviceType,\n                _peakPowerPos,\n                _peakPowerNeg,\n                _latitude,\n                _longitude,\n                _voltageLevel,\n                _location,\n                _installDate\n            );\n            proAccntList.push(msg.sender) - 1;\n            emit ProducerRegs(\n                msg.sender,\n                _owner,\n                _deviceType,\n                _peakPowerPos,\n                _peakPowerNeg,\n                _latitude,\n                _longitude,\n                _voltageLevel,\n                _location,\n                _installDate\n            );\n        }\n    }\n\n    // check if an address is already registered or not\n    function proAccntsArr(address producerAddr) public view returns (bool) {\n        if (accntIndexArr[producerAddr] > 0) {\n            return true;\n        }\n        return false;\n    }\n\n    // getting registration details\n    function getProducer()\n        public\n        view\n        returns (\n            address,\n            string memory,\n            string memory,\n            uint32,\n            uint32,\n            uint32,\n            uint32,\n            uint32,\n            string memory,\n            string memory\n        )\n    {\n        return (\n            msg.sender,\n            producers[msg.sender].owner,\n            producers[msg.sender].deviceType,\n            producers[msg.sender].peakPowerPos,\n            producers[msg.sender].peakPowerNeg,\n            producers[msg.sender].latitude,\n            producers[msg.sender].longitude,\n            producers[msg.sender].voltageLevel,\n            producers[msg.sender].location,\n            producers[msg.sender].installDate\n        );\n    }\n\n    // get registation details for individual accounts\n    function getProAccntDetails(address _proAccntAddr)\n        public\n        view\n        returns (\n            string memory,\n            string memory,\n            uint32,\n            string memory,\n            uint32,\n            uint32,\n            string memory\n        )\n    {\n        return (\n            producers[_proAccntAddr].owner,\n            producers[_proAccntAddr].deviceType,\n            producers[_proAccntAddr].peakPowerPos,\n            producers[_proAccntAddr].location,\n            producers[_proAccntAddr].latitude,\n            producers[_proAccntAddr].longitude,\n            producers[_proAccntAddr].installDate\n        );\n    }\n\n    // producer accounts list\n    function getProAccntsList() public view returns (address[] memory) {\n        return proAccntList;\n    }\n\n    // count for producer accounts\n    function countProducers() public view returns (uint256) {\n        return proAccntList.length;\n    }\n\n    /*\n     * Energy mapping setup\n     */\n\n    // getting energy time and amount\n    function setEnerProduction(uint32 _enerValue) public {\n        // check if producer already exist\n        if (proAccntsArr(msg.sender)) {\n            enerProductions[msg.sender] = EnerProduction(\n                now,\n                _enerValue,\n                block.number,\n                blockhash(block.number - 1),\n                tx.gasprice\n            );\n\n            // total energy balance\n            proBalance[msg.sender] += _enerValue;\n\n            // indidual accounts transaction history\n            transactions[msg.sender].txTime.push(now) - 1;\n            transactions[msg.sender].txValue.push(_enerValue) - 1;\n            transactions[msg.sender].blockNumber.push(block.number);\n            transactions[msg.sender].blockHash.push(\n                blockhash(block.number - 1)\n            );\n            transactions[msg.sender].txGasPrice.push(tx.gasprice) - 1;\n        }\n\n        // emit EnerProductionEvent(msg.sender, now, _enerValue);\n        emit ProTransactionEvent(\n            msg.sender,\n            now,\n            _enerValue,\n            block.number,\n            blockhash(block.number - 1),\n            tx.gasprice\n        );\n    }\n\n    function getEnerProduction()\n        public\n        view\n        returns (\n            address,\n            uint256,\n            uint32\n        )\n    {\n        return (\n            msg.sender,\n            enerProductions[msg.sender].enerTime,\n            enerProductions[msg.sender].enerValue\n        );\n    }\n\n    // getting energy production details for individual accounts\n\n    function getProEnerProduction(address _proAccntAddr)\n        public\n        view\n        returns (\n            address,\n            uint256[] memory,\n            uint32[] memory,\n            uint256[] memory,\n            bytes32[] memory,\n            uint256[] memory\n        )\n    {\n        return (\n            _proAccntAddr,\n            transactions[_proAccntAddr].txTime,\n            transactions[_proAccntAddr].txValue,\n            transactions[_proAccntAddr].blockNumber,\n            transactions[_proAccntAddr].blockHash,\n            transactions[_proAccntAddr].txGasPrice\n        );\n    }\n\n    // retrieving individula producer total amount of energy produced\n\n    function getProBalance(address _proAccntAddr)\n        public\n        view\n        returns (uint256)\n    {\n        return proBalance[_proAccntAddr];\n    }\n\n    /* Oli Coin Stuff */\n\n    function getDeviceTypeForCoin(address addr)\n        public\n        view\n        returns (string memory)\n    {\n        return producers[addr].deviceType;\n    }\n\n    function getLocationForCoin(address addr)\n        public\n        view\n        returns (string memory)\n    {\n        return producers[addr].location;\n    }\n\n    function getEnerProductionForCoin(address addr)\n        public\n        view\n        returns (uint32[] memory)\n    {\n        return transactions[addr].txValue;\n    }\n}\n",
  "sourcePath": "/home/yahya/Documents/GitHub/energy-browser/truffle/contracts/EnergyProduction.sol",
  "compiler": {
    "name": "solc",
    "version": "0.5.16+commit.9c3226ce.Emscripten.clang"
  },
  "schemaVersion": "3.2.4",
  "updatedAt": "2020-10-17T11:17:30.276Z",
  "networkType": "ethereum",
  "devdoc": {
    "methods": {}
  },
  "userdoc": {
    "methods": {}
  }
}