{
  "contractName": "EnergyProduction",
  "abi": [
    {
      "constant": true,
      "inputs": [
        {
          "name": "",
          "type": "uint256"
        }
      ],
      "name": "proAccntList",
      "outputs": [
        {
          "name": "",
          "type": "address"
        }
      ],
      "payable": false,
      "stateMutability": "view",
      "type": "function"
    },
    {
      "anonymous": false,
      "inputs": [
        {
          "indexed": false,
          "name": "pvAddr",
          "type": "address"
        },
        {
          "indexed": false,
          "name": "owner",
          "type": "string"
        },
        {
          "indexed": false,
          "name": "deviceType",
          "type": "string"
        },
        {
          "indexed": false,
          "name": "peakPowerPos",
          "type": "uint32"
        },
        {
          "indexed": false,
          "name": "peakPowerNeg",
          "type": "uint32"
        },
        {
          "indexed": false,
          "name": "latitude",
          "type": "uint32"
        },
        {
          "indexed": false,
          "name": "longitude",
          "type": "uint32"
        },
        {
          "indexed": false,
          "name": "voltageLevel",
          "type": "uint32"
        },
        {
          "indexed": false,
          "name": "location",
          "type": "string"
        },
        {
          "indexed": false,
          "name": "installDate",
          "type": "string"
        }
      ],
      "name": "ProducerRegs",
      "type": "event"
    },
    {
      "anonymous": false,
      "inputs": [
        {
          "indexed": false,
          "name": "oliAddr",
          "type": "address"
        },
        {
          "indexed": false,
          "name": "eTime",
          "type": "uint256"
        },
        {
          "indexed": false,
          "name": "enerAmount",
          "type": "uint32"
        }
      ],
      "name": "EnerProductionEvent",
      "type": "event"
    },
    {
      "anonymous": false,
      "inputs": [
        {
          "indexed": false,
          "name": "oliAddr",
          "type": "address"
        },
        {
          "indexed": false,
          "name": "eTime",
          "type": "uint256"
        },
        {
          "indexed": false,
          "name": "enerAmount",
          "type": "uint32"
        },
        {
          "indexed": false,
          "name": "txTime",
          "type": "uint256[]"
        },
        {
          "indexed": false,
          "name": "txValue",
          "type": "uint32[]"
        },
        {
          "indexed": false,
          "name": "blockNumber",
          "type": "uint256[]"
        },
        {
          "indexed": false,
          "name": "blockHash",
          "type": "bytes32[]"
        },
        {
          "indexed": false,
          "name": "txGasPrice",
          "type": "uint256[]"
        }
      ],
      "name": "TestEvent",
      "type": "event"
    },
    {
      "anonymous": false,
      "inputs": [
        {
          "indexed": false,
          "name": "oliAddr",
          "type": "address"
        },
        {
          "indexed": false,
          "name": "eTime",
          "type": "uint256"
        },
        {
          "indexed": false,
          "name": "enerAmount",
          "type": "uint32"
        },
        {
          "indexed": false,
          "name": "blockNumber",
          "type": "uint256"
        },
        {
          "indexed": false,
          "name": "blockHash",
          "type": "bytes32"
        },
        {
          "indexed": false,
          "name": "txGasPrice",
          "type": "uint256"
        }
      ],
      "name": "ProTransactionEvent",
      "type": "event"
    },
    {
      "constant": false,
      "inputs": [
        {
          "name": "_owner",
          "type": "string"
        },
        {
          "name": "_deviceType",
          "type": "string"
        },
        {
          "name": "_peakPowerPos",
          "type": "uint32"
        },
        {
          "name": "_peakPowerNeg",
          "type": "uint32"
        },
        {
          "name": "_latitude",
          "type": "uint32"
        },
        {
          "name": "_longitude",
          "type": "uint32"
        },
        {
          "name": "_voltageLevel",
          "type": "uint32"
        },
        {
          "name": "_location",
          "type": "string"
        },
        {
          "name": "_installDate",
          "type": "string"
        }
      ],
      "name": "setProducer",
      "outputs": [],
      "payable": false,
      "stateMutability": "nonpayable",
      "type": "function"
    },
    {
      "constant": true,
      "inputs": [
        {
          "name": "producerAddr",
          "type": "address"
        }
      ],
      "name": "proAccntsArr",
      "outputs": [
        {
          "name": "",
          "type": "bool"
        }
      ],
      "payable": false,
      "stateMutability": "view",
      "type": "function"
    },
    {
      "constant": true,
      "inputs": [],
      "name": "getProducer",
      "outputs": [
        {
          "name": "",
          "type": "address"
        },
        {
          "name": "",
          "type": "string"
        },
        {
          "name": "",
          "type": "string"
        },
        {
          "name": "",
          "type": "uint32"
        },
        {
          "name": "",
          "type": "uint32"
        },
        {
          "name": "",
          "type": "uint32"
        },
        {
          "name": "",
          "type": "uint32"
        },
        {
          "name": "",
          "type": "uint32"
        },
        {
          "name": "",
          "type": "string"
        },
        {
          "name": "",
          "type": "string"
        }
      ],
      "payable": false,
      "stateMutability": "view",
      "type": "function"
    },
    {
      "constant": true,
      "inputs": [
        {
          "name": "_proAccntAddr",
          "type": "address"
        }
      ],
      "name": "getProAccntDetails",
      "outputs": [
        {
          "name": "",
          "type": "string"
        },
        {
          "name": "",
          "type": "string"
        },
        {
          "name": "",
          "type": "uint32"
        },
        {
          "name": "",
          "type": "string"
        },
        {
          "name": "",
          "type": "uint32"
        },
        {
          "name": "",
          "type": "uint32"
        },
        {
          "name": "",
          "type": "string"
        }
      ],
      "payable": false,
      "stateMutability": "view",
      "type": "function"
    },
    {
      "constant": true,
      "inputs": [],
      "name": "getProAccntsList",
      "outputs": [
        {
          "name": "",
          "type": "address[]"
        }
      ],
      "payable": false,
      "stateMutability": "view",
      "type": "function"
    },
    {
      "constant": true,
      "inputs": [],
      "name": "countProducers",
      "outputs": [
        {
          "name": "",
          "type": "uint256"
        }
      ],
      "payable": false,
      "stateMutability": "view",
      "type": "function"
    },
    {
      "constant": false,
      "inputs": [
        {
          "name": "_enerValue",
          "type": "uint32"
        }
      ],
      "name": "setEnerProduction",
      "outputs": [],
      "payable": false,
      "stateMutability": "nonpayable",
      "type": "function"
    },
    {
      "constant": true,
      "inputs": [],
      "name": "getEnerProduction",
      "outputs": [
        {
          "name": "",
          "type": "address"
        },
        {
          "name": "",
          "type": "uint256"
        },
        {
          "name": "",
          "type": "uint32"
        }
      ],
      "payable": false,
      "stateMutability": "view",
      "type": "function"
    },
    {
      "constant": true,
      "inputs": [
        {
          "name": "_proAccntAddr",
          "type": "address"
        }
      ],
      "name": "getProEnerProduction",
      "outputs": [
        {
          "name": "",
          "type": "address"
        },
        {
          "name": "",
          "type": "uint256[]"
        },
        {
          "name": "",
          "type": "uint32[]"
        },
        {
          "name": "",
          "type": "uint256[]"
        },
        {
          "name": "",
          "type": "bytes32[]"
        },
        {
          "name": "",
          "type": "uint256[]"
        }
      ],
      "payable": false,
      "stateMutability": "view",
      "type": "function"
    },
    {
      "constant": true,
      "inputs": [
        {
          "name": "_proAccntAddr",
          "type": "address"
        }
      ],
      "name": "getProBalance",
      "outputs": [
        {
          "name": "",
          "type": "uint256"
        }
      ],
      "payable": false,
      "stateMutability": "view",
      "type": "function"
    },
    {
      "constant": true,
      "inputs": [
        {
          "name": "addr",
          "type": "address"
        }
      ],
      "name": "getDeviceTypeForCoin",
      "outputs": [
        {
          "name": "",
          "type": "string"
        }
      ],
      "payable": false,
      "stateMutability": "view",
      "type": "function"
    },
    {
      "constant": true,
      "inputs": [
        {
          "name": "addr",
          "type": "address"
        }
      ],
      "name": "getLocationForCoin",
      "outputs": [
        {
          "name": "",
          "type": "string"
        }
      ],
      "payable": false,
      "stateMutability": "view",
      "type": "function"
    },
    {
      "constant": true,
      "inputs": [
        {
          "name": "addr",
          "type": "address"
        }
      ],
      "name": "getEnerProductionForCoin",
      "outputs": [
        {
          "name": "",
          "type": "uint32[]"
        }
      ],
      "payable": false,
      "stateMutability": "view",
      "type": "function"
    }
  ],
  "bytecode": "0x608060405234801561001057600080fd5b50612a3d806100206000396000f3fe608060405234801561001057600080fd5b50600436106100ea5760003560e01c8063ba0cfdce1161008c578063db9a89b511610066578063db9a89b51461088d578063dd1063aa1461094a578063e1a9249c14610b84578063f1f1ecb714610e55576100ea565b8063ba0cfdce1461079d578063c15ab975146107bb578063ce0ccd091461081f576100ea565b80632f183cfd116100c85780632f183cfd1461029d5780633ddc0835146104f65780634bb4577f146106e25780637d0691fb14610741576100ea565b806303e85f52146100ef57806312a32118146101ac57806329b4806914610245575b600080fd5b6101316004803603602081101561010557600080fd5b81019080803573ffffffffffffffffffffffffffffffffffffffff169060200190929190505050610e89565b6040518080602001828103825283818151815260200191508051906020019080838360005b83811015610171578082015181840152602081019050610156565b50505050905090810190601f16801561019e5780820380516001836020036101000a031916815260200191505b509250505060405180910390f35b6101ee600480360360208110156101c257600080fd5b81019080803573ffffffffffffffffffffffffffffffffffffffff169060200190929190505050610f6c565b6040518080602001828103825283818151815260200191508051906020019060200280838360005b83811015610231578082015181840152602081019050610216565b505050509050019250505060405180910390f35b6102876004803603602081101561025b57600080fd5b81019080803573ffffffffffffffffffffffffffffffffffffffff169060200190929190505050611032565b6040518082815260200191505060405180910390f35b6102a561107b565b604051808b73ffffffffffffffffffffffffffffffffffffffff1673ffffffffffffffffffffffffffffffffffffffff16815260200180602001806020018a63ffffffff1663ffffffff1681526020018963ffffffff1663ffffffff1681526020018863ffffffff1663ffffffff1681526020018763ffffffff1663ffffffff1681526020018663ffffffff1663ffffffff168152602001806020018060200185810385528e818151815260200191508051906020019080838360005b8381101561037d578082015181840152602081019050610362565b50505050905090810190601f1680156103aa5780820380516001836020036101000a031916815260200191505b5085810384528d818151815260200191508051906020019080838360005b838110156103e35780820151818401526020810190506103c8565b50505050905090810190601f1680156104105780820380516001836020036101000a031916815260200191505b50858103835287818151815260200191508051906020019080838360005b8381101561044957808201518184015260208101905061042e565b50505050905090810190601f1680156104765780820380516001836020036101000a031916815260200191505b50858103825286818151815260200191508051906020019080838360005b838110156104af578082015181840152602081019050610494565b50505050905090810190601f1680156104dc5780820380516001836020036101000a031916815260200191505b509e50505050505050505050505050505060405180910390f35b6105386004803603602081101561050c57600080fd5b81019080803573ffffffffffffffffffffffffffffffffffffffff1690602001909291905050506115bd565b604051808773ffffffffffffffffffffffffffffffffffffffff1673ffffffffffffffffffffffffffffffffffffffff168152602001806020018060200180602001806020018060200186810386528b818151815260200191508051906020019060200280838360005b838110156105bd5780820151818401526020810190506105a2565b5050505090500186810385528a818151815260200191508051906020019060200280838360005b838110156105ff5780820151818401526020810190506105e4565b50505050905001868103845289818151815260200191508051906020019060200280838360005b83811015610641578082015181840152602081019050610626565b50505050905001868103835288818151815260200191508051906020019060200280838360005b83811015610683578082015181840152602081019050610668565b50505050905001868103825287818151815260200191508051906020019060200280838360005b838110156106c55780820151818401526020810190506106aa565b505050509050019b50505050505050505050505060405180910390f35b6106ea6118ed565b6040518080602001828103825283818151815260200191508051906020019060200280838360005b8381101561072d578082015181840152602081019050610712565b505050509050019250505060405180910390f35b6107836004803603602081101561075757600080fd5b81019080803573ffffffffffffffffffffffffffffffffffffffff16906020019092919050505061197b565b604051808215151515815260200191505060405180910390f35b6107a56119d7565b6040518082815260200191505060405180910390f35b6107c36119e7565b604051808473ffffffffffffffffffffffffffffffffffffffff1673ffffffffffffffffffffffffffffffffffffffff1681526020018381526020018263ffffffff1663ffffffff168152602001935050505060405180910390f35b61084b6004803603602081101561083557600080fd5b8101908080359060200190929190505050611a91565b604051808273ffffffffffffffffffffffffffffffffffffffff1673ffffffffffffffffffffffffffffffffffffffff16815260200191505060405180910390f35b6108cf600480360360208110156108a357600080fd5b81019080803573ffffffffffffffffffffffffffffffffffffffff169060200190929190505050611acd565b6040518080602001828103825283818151815260200191508051906020019080838360005b8381101561090f5780820151818401526020810190506108f4565b50505050905090810190601f16801561093c5780820380516001836020036101000a031916815260200191505b509250505060405180910390f35b61098c6004803603602081101561096057600080fd5b81019080803573ffffffffffffffffffffffffffffffffffffffff169060200190929190505050611bb0565b6040518080602001806020018863ffffffff1663ffffffff168152602001806020018763ffffffff1663ffffffff1681526020018663ffffffff1663ffffffff1681526020018060200185810385528c818151815260200191508051906020019080838360005b83811015610a0e5780820151818401526020810190506109f3565b50505050905090810190601f168015610a3b5780820380516001836020036101000a031916815260200191505b5085810384528b818151815260200191508051906020019080838360005b83811015610a74578082015181840152602081019050610a59565b50505050905090810190601f168015610aa15780820380516001836020036101000a031916815260200191505b50858103835289818151815260200191508051906020019080838360005b83811015610ada578082015181840152602081019050610abf565b50505050905090810190601f168015610b075780820380516001836020036101000a031916815260200191505b50858103825286818151815260200191508051906020019080838360005b83811015610b40578082015181840152602081019050610b25565b50505050905090810190601f168015610b6d5780820380516001836020036101000a031916815260200191505b509b50505050505050505050505060405180910390f35b610e536004803603610120811015610b9b57600080fd5b8101908080359060200190640100000000811115610bb857600080fd5b820183602082011115610bca57600080fd5b80359060200191846001830284011164010000000083111715610bec57600080fd5b91908080601f016020809104026020016040519081016040528093929190818152602001838380828437600081840152601f19601f82011690508083019250505050505050919291929080359060200190640100000000811115610c4f57600080fd5b820183602082011115610c6157600080fd5b80359060200191846001830284011164010000000083111715610c8357600080fd5b91908080601f016020809104026020016040519081016040528093929190818152602001838380828437600081840152601f19601f820116905080830192505050505050509192919290803563ffffffff169060200190929190803563ffffffff169060200190929190803563ffffffff169060200190929190803563ffffffff169060200190929190803563ffffffff16906020019092919080359060200190640100000000811115610d3657600080fd5b820183602082011115610d4857600080fd5b80359060200191846001830284011164010000000083111715610d6a57600080fd5b91908080601f016020809104026020016040519081016040528093929190818152602001838380828437600081840152601f19601f82011690508083019250505050505050919291929080359060200190640100000000811115610dcd57600080fd5b820183602082011115610ddf57600080fd5b80359060200191846001830284011164010000000083111715610e0157600080fd5b91908080601f016020809104026020016040519081016040528093929190818152602001838380828437600081840152601f19601f82011690508083019250505050505050919291929050505061203f565b005b610e8760048036036020811015610e6b57600080fd5b81019080803563ffffffff16906020019092919050505061255c565b005b60606000808373ffffffffffffffffffffffffffffffffffffffff1673ffffffffffffffffffffffffffffffffffffffff1681526020019081526020016000206003018054600181600116156101000203166002900480601f016020809104026020016040519081016040528092919081815260200182805460018160011615610100020316600290048015610f605780601f10610f3557610100808354040283529160200191610f60565b820191906000526020600020905b815481529060010190602001808311610f4357829003601f168201915b50505050509050919050565b6060600460008373ffffffffffffffffffffffffffffffffffffffff1673ffffffffffffffffffffffffffffffffffffffff16815260200190815260200160002060010180548060200260200160405190810160405280929190818152602001828054801561102657602002820191906000526020600020906000905b82829054906101000a900463ffffffff1663ffffffff1681526020019060040190602082600301049283019260010382029150808411610fe95790505b50505050509050919050565b6000600360008373ffffffffffffffffffffffffffffffffffffffff1673ffffffffffffffffffffffffffffffffffffffff168152602001908152602001600020549050919050565b60006060806000806000806000606080336000803373ffffffffffffffffffffffffffffffffffffffff1673ffffffffffffffffffffffffffffffffffffffff1681526020019081526020016000206000016000803373ffffffffffffffffffffffffffffffffffffffff1673ffffffffffffffffffffffffffffffffffffffff1681526020019081526020016000206001016000803373ffffffffffffffffffffffffffffffffffffffff1673ffffffffffffffffffffffffffffffffffffffff16815260200190815260200160002060020160009054906101000a900463ffffffff166000803373ffffffffffffffffffffffffffffffffffffffff1673ffffffffffffffffffffffffffffffffffffffff16815260200190815260200160002060020160049054906101000a900463ffffffff166000803373ffffffffffffffffffffffffffffffffffffffff1673ffffffffffffffffffffffffffffffffffffffff16815260200190815260200160002060020160089054906101000a900463ffffffff166000803373ffffffffffffffffffffffffffffffffffffffff1673ffffffffffffffffffffffffffffffffffffffff168152602001908152602001600020600201600c9054906101000a900463ffffffff166000803373ffffffffffffffffffffffffffffffffffffffff1673ffffffffffffffffffffffffffffffffffffffff16815260200190815260200160002060020160109054906101000a900463ffffffff166000803373ffffffffffffffffffffffffffffffffffffffff1673ffffffffffffffffffffffffffffffffffffffff1681526020019081526020016000206003016000803373ffffffffffffffffffffffffffffffffffffffff1673ffffffffffffffffffffffffffffffffffffffff168152602001908152602001600020600401899950888054600181600116156101000203166002900480601f0160208091040260200160405190810160405280929190818152602001828054600181600116156101000203166002900480156113c25780601f10611397576101008083540402835291602001916113c2565b820191906000526020600020905b8154815290600101906020018083116113a557829003601f168201915b50505050509850878054600181600116156101000203166002900480601f01602080910402602001604051908101604052809291908181526020018280546001816001161561010002031660029004801561145e5780601f106114335761010080835404028352916020019161145e565b820191906000526020600020905b81548152906001019060200180831161144157829003601f168201915b50505050509750818054600181600116156101000203166002900480601f0160208091040260200160405190810160405280929190818152602001828054600181600116156101000203166002900480156114fa5780601f106114cf576101008083540402835291602001916114fa565b820191906000526020600020905b8154815290600101906020018083116114dd57829003601f168201915b50505050509150808054600181600116156101000203166002900480601f0160208091040260200160405190810160405280929190818152602001828054600181600116156101000203166002900480156115965780601f1061156b57610100808354040283529160200191611596565b820191906000526020600020905b81548152906001019060200180831161157957829003601f168201915b50505050509050995099509950995099509950995099509950995090919293949596979899565b6000606080606080606086600460008973ffffffffffffffffffffffffffffffffffffffff1673ffffffffffffffffffffffffffffffffffffffff168152602001908152602001600020600001600460008a73ffffffffffffffffffffffffffffffffffffffff1673ffffffffffffffffffffffffffffffffffffffff168152602001908152602001600020600101600460008b73ffffffffffffffffffffffffffffffffffffffff1673ffffffffffffffffffffffffffffffffffffffff168152602001908152602001600020600201600460008c73ffffffffffffffffffffffffffffffffffffffff1673ffffffffffffffffffffffffffffffffffffffff168152602001908152602001600020600301600460008d73ffffffffffffffffffffffffffffffffffffffff1673ffffffffffffffffffffffffffffffffffffffff1681526020019081526020016000206004018480548060200260200160405190810160405280929190818152602001828054801561175d57602002820191906000526020600020905b815481526020019060010190808311611749575b50505050509450838054806020026020016040519081016040528092919081815260200182805480156117db57602002820191906000526020600020906000905b82829054906101000a900463ffffffff1663ffffffff168152602001906004019060208260030104928301926001038202915080841161179e5790505b505050505093508280548060200260200160405190810160405280929190818152602001828054801561182d57602002820191906000526020600020905b815481526020019060010190808311611819575b505050505092508180548060200260200160405190810160405280929190818152602001828054801561187f57602002820191906000526020600020905b81548152602001906001019080831161186b575b50505050509150808054806020026020016040519081016040528092919081815260200182805480156118d157602002820191906000526020600020905b8154815260200190600101908083116118bd575b5050505050905095509550955095509550955091939550919395565b6060600580548060200260200160405190810160405280929190818152602001828054801561197157602002820191906000526020600020905b8160009054906101000a900473ffffffffffffffffffffffffffffffffffffffff1673ffffffffffffffffffffffffffffffffffffffff1681526020019060010190808311611927575b5050505050905090565b600080600160008473ffffffffffffffffffffffffffffffffffffffff1673ffffffffffffffffffffffffffffffffffffffff1681526020019081526020016000205411156119cd57600190506119d2565b600090505b919050565b6000600160058054905003905090565b600080600033600260003373ffffffffffffffffffffffffffffffffffffffff1673ffffffffffffffffffffffffffffffffffffffff16815260200190815260200160002060000154600260003373ffffffffffffffffffffffffffffffffffffffff1673ffffffffffffffffffffffffffffffffffffffff16815260200190815260200160002060010160009054906101000a900463ffffffff16829250925092509250909192565b60058181548110611a9e57fe5b906000526020600020016000915054906101000a900473ffffffffffffffffffffffffffffffffffffffff1681565b60606000808373ffffffffffffffffffffffffffffffffffffffff1673ffffffffffffffffffffffffffffffffffffffff1681526020019081526020016000206001018054600181600116156101000203166002900480601f016020809104026020016040519081016040528092919081815260200182805460018160011615610100020316600290048015611ba45780601f10611b7957610100808354040283529160200191611ba4565b820191906000526020600020905b815481529060010190602001808311611b8757829003601f168201915b50505050509050919050565b6060806000606060008060606000808973ffffffffffffffffffffffffffffffffffffffff1673ffffffffffffffffffffffffffffffffffffffff1681526020019081526020016000206000016000808a73ffffffffffffffffffffffffffffffffffffffff1673ffffffffffffffffffffffffffffffffffffffff1681526020019081526020016000206001016000808b73ffffffffffffffffffffffffffffffffffffffff1673ffffffffffffffffffffffffffffffffffffffff16815260200190815260200160002060020160009054906101000a900463ffffffff166000808c73ffffffffffffffffffffffffffffffffffffffff1673ffffffffffffffffffffffffffffffffffffffff1681526020019081526020016000206003016000808d73ffffffffffffffffffffffffffffffffffffffff1673ffffffffffffffffffffffffffffffffffffffff16815260200190815260200160002060020160089054906101000a900463ffffffff166000808e73ffffffffffffffffffffffffffffffffffffffff1673ffffffffffffffffffffffffffffffffffffffff168152602001908152602001600020600201600c9054906101000a900463ffffffff166000808f73ffffffffffffffffffffffffffffffffffffffff1673ffffffffffffffffffffffffffffffffffffffff168152602001908152602001600020600401868054600181600116156101000203166002900480601f016020809104026020016040519081016040528092919081815260200182805460018160011615610100020316600290048015611e4b5780601f10611e2057610100808354040283529160200191611e4b565b820191906000526020600020905b815481529060010190602001808311611e2e57829003601f168201915b50505050509650858054600181600116156101000203166002900480601f016020809104026020016040519081016040528092919081815260200182805460018160011615610100020316600290048015611ee75780601f10611ebc57610100808354040283529160200191611ee7565b820191906000526020600020905b815481529060010190602001808311611eca57829003601f168201915b50505050509550838054600181600116156101000203166002900480601f016020809104026020016040519081016040528092919081815260200182805460018160011615610100020316600290048015611f835780601f10611f5857610100808354040283529160200191611f83565b820191906000526020600020905b815481529060010190602001808311611f6657829003601f168201915b50505050509350808054600181600116156101000203166002900480601f01602080910402602001604051908101604052809291908181526020018280546001816001161561010002031660029004801561201f5780601f10611ff45761010080835404028352916020019161201f565b820191906000526020600020905b81548152906001019060200180831161200257829003601f168201915b505050505090509650965096509650965096509650919395979092949650565b6120483361197b565b61255157600580549050600160003373ffffffffffffffffffffffffffffffffffffffff1673ffffffffffffffffffffffffffffffffffffffff168152602001908152602001600020819055506040518061012001604052808a81526020018981526020018863ffffffff1681526020018763ffffffff1681526020018663ffffffff1681526020018563ffffffff1681526020018463ffffffff168152602001838152602001828152506000803373ffffffffffffffffffffffffffffffffffffffff1673ffffffffffffffffffffffffffffffffffffffff168152602001908152602001600020600082015181600001908051906020019061214d92919061296c565b50602082015181600101908051906020019061216a92919061296c565b5060408201518160020160006101000a81548163ffffffff021916908363ffffffff16021790555060608201518160020160046101000a81548163ffffffff021916908363ffffffff16021790555060808201518160020160086101000a81548163ffffffff021916908363ffffffff16021790555060a082015181600201600c6101000a81548163ffffffff021916908363ffffffff16021790555060c08201518160020160106101000a81548163ffffffff021916908363ffffffff16021790555060e082015181600301908051906020019061224a92919061296c565b5061010082015181600401908051906020019061226892919061296c565b50905050600160053390806001815401808255809150509060018203906000526020600020016000909192909190916101000a81548173ffffffffffffffffffffffffffffffffffffffff021916908373ffffffffffffffffffffffffffffffffffffffff16021790555050507f5bba84d3568a0b013b9eac75d4ba0c2aa6affa2d3d931aff1565c817e7438c40338a8a8a8a8a8a8a8a8a604051808b73ffffffffffffffffffffffffffffffffffffffff1673ffffffffffffffffffffffffffffffffffffffff16815260200180602001806020018a63ffffffff1663ffffffff1681526020018963ffffffff1663ffffffff1681526020018863ffffffff1663ffffffff1681526020018763ffffffff1663ffffffff1681526020018663ffffffff1663ffffffff168152602001806020018060200185810385528e818151815260200191508051906020019080838360005b838110156123d85780820151818401526020810190506123bd565b50505050905090810190601f1680156124055780820380516001836020036101000a031916815260200191505b5085810384528d818151815260200191508051906020019080838360005b8381101561243e578082015181840152602081019050612423565b50505050905090810190601f16801561246b5780820380516001836020036101000a031916815260200191505b50858103835287818151815260200191508051906020019080838360005b838110156124a4578082015181840152602081019050612489565b50505050905090810190601f1680156124d15780820380516001836020036101000a031916815260200191505b50858103825286818151815260200191508051906020019080838360005b8381101561250a5780820151818401526020810190506124ef565b50505050905090810190601f1680156125375780820380516001836020036101000a031916815260200191505b509e50505050505050505050505050505060405180910390a15b505050505050505050565b6125653361197b565b156128ce576040518060a001604052804281526020018263ffffffff168152602001438152602001600143034081526020013a815250600260003373ffffffffffffffffffffffffffffffffffffffff1673ffffffffffffffffffffffffffffffffffffffff1681526020019081526020016000206000820151816000015560208201518160010160006101000a81548163ffffffff021916908363ffffffff1602179055506040820151816002015560608201518160030155608082015181600401559050508063ffffffff16600360003373ffffffffffffffffffffffffffffffffffffffff1673ffffffffffffffffffffffffffffffffffffffff168152602001908152602001600020600082825401925050819055506001600460003373ffffffffffffffffffffffffffffffffffffffff1673ffffffffffffffffffffffffffffffffffffffff168152602001908152602001600020600001429080600181540180825580915050906001820390600052602060002001600090919290919091505550506001600460003373ffffffffffffffffffffffffffffffffffffffff1673ffffffffffffffffffffffffffffffffffffffff16815260200190815260200160002060010182908060018154018082558091505090600182039060005260206000209060089182820401919006600402909192909190916101000a81548163ffffffff021916908363ffffffff1602179055505050600460003373ffffffffffffffffffffffffffffffffffffffff1673ffffffffffffffffffffffffffffffffffffffff168152602001908152602001600020600201439080600181540180825580915050906001820390600052602060002001600090919290919091505550600460003373ffffffffffffffffffffffffffffffffffffffff1673ffffffffffffffffffffffffffffffffffffffff168152602001908152602001600020600301600143034090806001815401808255809150509060018203906000526020600020016000909192909190915055506001600460003373ffffffffffffffffffffffffffffffffffffffff1673ffffffffffffffffffffffffffffffffffffffff1681526020019081526020016000206004013a9080600181540180825580915050906001820390600052602060002001600090919290919091505550505b7fe347f86fcdca34abcd53a9182178f7819057387ce2d5b3ffae27cd924f02018d3342834360014303403a604051808773ffffffffffffffffffffffffffffffffffffffff1673ffffffffffffffffffffffffffffffffffffffff1681526020018681526020018563ffffffff1663ffffffff168152602001848152602001838152602001828152602001965050505050505060405180910390a150565b828054600181600116156101000203166002900490600052602060002090601f016020900481019282601f106129ad57805160ff19168380011785556129db565b828001600101855582156129db579182015b828111156129da5782518255916020019190600101906129bf565b5b5090506129e891906129ec565b5090565b612a0e91905b80821115612a0a5760008160009055506001016129f2565b5090565b9056fea165627a7a7230582063d96e7f1f8ad70635cdf49241d585f08609cc2e1a97483f786b8e2091f9e7d40029",
  "source": "pragma solidity >=0.4.16 <0.6.0;\n\ncontract EnergyProduction {\n\n    struct Producer {\n        string owner;\n        string deviceType;\n        uint32 peakPowerPos;\n        uint32 peakPowerNeg;\n        uint32 latitude;\n        uint32 longitude;\n        uint32 voltageLevel;\n        string location;\n        string installDate;\n    }\n\n    struct EnerProduction {\n        uint enerTime;\n        uint32 enerValue;\n        uint blockNumber;\n        bytes32 blockHash;\n        uint txGasPrice;\n    }\n\n    struct ProTransaction {\n        uint[] txTime;\n        uint32[] txValue;\n        uint[] blockNumber;\n        bytes32[] blockHash;\n        uint[] txGasPrice;\n    }\n\n    event ProducerRegs(address pvAddr, string owner, string deviceType, uint32 peakPowerPos, uint32 peakPowerNeg, uint32 latitude, uint32 longitude, uint32 voltageLevel, string location, string installDate);\n    event EnerProductionEvent(address oliAddr, uint256 eTime, uint32 enerAmount);\n    event TestEvent(address oliAddr, uint256 eTime, uint32 enerAmount, uint[] txTime, uint32[] txValue, uint[] blockNumber, bytes32[] blockHash, uint[] txGasPrice);\n    event ProTransactionEvent(address oliAddr, uint256 eTime, uint32 enerAmount, uint blockNumber, bytes32 blockHash, uint txGasPrice);\n\n    mapping(address => Producer) producers;\n    mapping(address => uint) accntIndexArr;\n    mapping(address => EnerProduction) enerProductions;\n    mapping(address => uint) proBalance;\n    mapping(address => ProTransaction) transactions;\n\n    address[] public proAccntList;\n\n    /*\n    * Registration\n    */\n\n    function setProducer(string memory _owner, string memory _deviceType, uint32 _peakPowerPos, uint32 _peakPowerNeg, uint32 _latitude, uint32 _longitude, uint32 _voltageLevel, string memory _location, string memory _installDate) public {\n        if (!proAccntsArr(msg.sender)) {\n            // mapping address to index\n            accntIndexArr[msg.sender] = proAccntList.length;\n            producers[msg.sender] = Producer(_owner, _deviceType, _peakPowerPos, _peakPowerNeg, _latitude, _longitude, _voltageLevel, _location, _installDate);\n            proAccntList.push(msg.sender) - 1;\n            emit ProducerRegs(msg.sender, _owner, _deviceType, _peakPowerPos, _peakPowerNeg, _latitude, _longitude, _voltageLevel, _location, _installDate);\n        }\n    }\n\n    // check if an address is already registered or not\n    function proAccntsArr(address producerAddr) public view returns (bool) {\n\n        if (accntIndexArr[producerAddr] > 0) {\n            return true;\n        }\n        return false;\n    }\n\n    // getting registration details\n    function getProducer() public view returns (address, string memory, string memory, uint32, uint32, uint32, uint32, uint32, string memory, string memory) {\n        return (msg.sender, producers[msg.sender].owner, producers[msg.sender].deviceType, producers[msg.sender].peakPowerPos, producers[msg.sender].peakPowerNeg, producers[msg.sender].latitude, producers[msg.sender].longitude, producers[msg.sender].voltageLevel, producers[msg.sender].location, producers[msg.sender].installDate);\n    }\n\n    // get registation details for individual accounts\n    function getProAccntDetails(address _proAccntAddr) public view returns (string memory, string memory, uint32, string memory, uint32, uint32, string memory) {\n        return (producers[_proAccntAddr].owner, producers[_proAccntAddr].deviceType, producers[_proAccntAddr].peakPowerPos, producers[_proAccntAddr].location, producers[_proAccntAddr].latitude, producers[_proAccntAddr].longitude, producers[_proAccntAddr].installDate);\n    }\n\n    // producer accounts list\n    function getProAccntsList() public view returns (address[] memory) {\n        return proAccntList;\n    }\n\n    // count for producer accounts\n    function countProducers() public view returns (uint) {\n        return (proAccntList.length) - 1;\n    }\n\n    /*\n    * Energy mapping setup\n    */\n\n    // getting energy time and amount\n    function setEnerProduction(uint32 _enerValue) public {\n        // check if producer already exist\n        if (proAccntsArr(msg.sender)) {\n            enerProductions[msg.sender] = EnerProduction(now, _enerValue, block.number, blockhash(block.number - 1), tx.gasprice);\n\n            // total energy balance\n            proBalance[msg.sender] += _enerValue;\n\n            // indidual accounts transaction history\n            transactions[msg.sender].txTime.push(now) - 1;\n            transactions[msg.sender].txValue.push(_enerValue) - 1;\n            transactions[msg.sender].blockNumber.push(block.number);\n            transactions[msg.sender].blockHash.push(blockhash(block.number - 1));\n            transactions[msg.sender].txGasPrice.push(tx.gasprice) - 1;\n        }\n\n        // emit EnerProductionEvent(msg.sender, now, _enerValue);\n        emit ProTransactionEvent(msg.sender, now, _enerValue, block.number, blockhash(block.number - 1), tx.gasprice);\n\n    }\n\n    function getEnerProduction() public view returns (address, uint, uint32) {\n        return (msg.sender, enerProductions[msg.sender].enerTime, enerProductions[msg.sender].enerValue);\n    }\n\n    // getting energy production details for individual accounts\n\n    function getProEnerProduction(address _proAccntAddr) public view returns (address, uint[] memory, uint32[] memory, uint[] memory, bytes32[] memory, uint[] memory) {\n        return (_proAccntAddr, transactions[_proAccntAddr].txTime, transactions[_proAccntAddr].txValue, transactions[_proAccntAddr].blockNumber, transactions[_proAccntAddr].blockHash, transactions[_proAccntAddr].txGasPrice);\n    }\n\n    // retrieving individula producer total amount of energy produced\n\n    function getProBalance(address _proAccntAddr) public view returns (uint) {\n        return (proBalance[_proAccntAddr]);\n    }\n\n    /* Oli Coin Stuff */\n\n    function getDeviceTypeForCoin(address addr) public view returns (string memory) {\n        return producers[addr].deviceType;\n    }\n\n    function getLocationForCoin(address addr) public view returns (string memory) {\n        return producers[addr].location;\n    }\n\n    function getEnerProductionForCoin(address addr) public view returns (uint32[] memory) {\n        return transactions[addr].txValue;\n    }\n\n}",
  "sourcePath": "/home/yahya/Documents/GitHub/energy-browser/contracts/EnergyProduction.sol",
  "compiler": {
    "name": "solc",
    "version": "0.5.8+commit.23d335f2.Emscripten.clang"
  },
  "schemaVersion": "3.0.16",
  "updatedAt": "2020-04-07T06:42:47.051Z",
  "devdoc": {
    "methods": {}
  },
  "userdoc": {
    "methods": {}
  }
}