{
  "contractName": "EnergyConsumption",
  "abi": [
    {
      "constant": true,
      "inputs": [
        {
          "name": "",
          "type": "uint256"
        }
      ],
      "name": "consAccntList",
      "outputs": [
        {
          "name": "",
          "type": "address"
        }
      ],
      "payable": false,
      "stateMutability": "view",
      "type": "function"
    },
    {
      "anonymous": false,
      "inputs": [
        {
          "indexed": false,
          "name": "pvAddr",
          "type": "address"
        },
        {
          "indexed": false,
          "name": "owner",
          "type": "string"
        },
        {
          "indexed": false,
          "name": "deviceType",
          "type": "string"
        },
        {
          "indexed": false,
          "name": "peakPowerPos",
          "type": "uint32"
        },
        {
          "indexed": false,
          "name": "peakPowerNeg",
          "type": "uint32"
        },
        {
          "indexed": false,
          "name": "latitude",
          "type": "uint32"
        },
        {
          "indexed": false,
          "name": "longitude",
          "type": "uint32"
        },
        {
          "indexed": false,
          "name": "voltageLevel",
          "type": "uint32"
        },
        {
          "indexed": false,
          "name": "location",
          "type": "string"
        },
        {
          "indexed": false,
          "name": "installDate",
          "type": "string"
        }
      ],
      "name": "ConsumerRegs",
      "type": "event"
    },
    {
      "anonymous": false,
      "inputs": [
        {
          "indexed": false,
          "name": "oliAddr",
          "type": "address"
        },
        {
          "indexed": false,
          "name": "eTime",
          "type": "uint256"
        },
        {
          "indexed": false,
          "name": "enerAmount",
          "type": "uint32"
        }
      ],
      "name": "EnerConsumptionEvent",
      "type": "event"
    },
    {
      "anonymous": false,
      "inputs": [
        {
          "indexed": false,
          "name": "oliAddr",
          "type": "address"
        },
        {
          "indexed": false,
          "name": "txTime",
          "type": "uint256[]"
        },
        {
          "indexed": false,
          "name": "txValue",
          "type": "uint32[]"
        },
        {
          "indexed": false,
          "name": "blockNumber",
          "type": "uint256[]"
        },
        {
          "indexed": false,
          "name": "blockHash",
          "type": "bytes32[]"
        },
        {
          "indexed": false,
          "name": "txGasPrice",
          "type": "uint256[]"
        }
      ],
      "name": "TestEvent",
      "type": "event"
    },
    {
      "anonymous": false,
      "inputs": [
        {
          "indexed": false,
          "name": "oliAddr",
          "type": "address"
        },
        {
          "indexed": false,
          "name": "eTime",
          "type": "uint256"
        },
        {
          "indexed": false,
          "name": "enerAmount",
          "type": "uint32"
        },
        {
          "indexed": false,
          "name": "blockNumber",
          "type": "uint256"
        },
        {
          "indexed": false,
          "name": "blockHash",
          "type": "bytes32"
        },
        {
          "indexed": false,
          "name": "txGasPrice",
          "type": "uint256"
        }
      ],
      "name": "ConsTransactionEvent",
      "type": "event"
    },
    {
      "constant": false,
      "inputs": [
        {
          "name": "_owner",
          "type": "string"
        },
        {
          "name": "_deviceType",
          "type": "string"
        },
        {
          "name": "_peakPowerPos",
          "type": "uint32"
        },
        {
          "name": "_peakPowerNeg",
          "type": "uint32"
        },
        {
          "name": "_latitude",
          "type": "uint32"
        },
        {
          "name": "_longitude",
          "type": "uint32"
        },
        {
          "name": "_voltageLevel",
          "type": "uint32"
        },
        {
          "name": "_location",
          "type": "string"
        },
        {
          "name": "_installDate",
          "type": "string"
        }
      ],
      "name": "setConsumer",
      "outputs": [],
      "payable": false,
      "stateMutability": "nonpayable",
      "type": "function"
    },
    {
      "constant": true,
      "inputs": [
        {
          "name": "consumerAddr",
          "type": "address"
        }
      ],
      "name": "consAccntsArr",
      "outputs": [
        {
          "name": "",
          "type": "bool"
        }
      ],
      "payable": false,
      "stateMutability": "view",
      "type": "function"
    },
    {
      "constant": true,
      "inputs": [],
      "name": "getConsumer",
      "outputs": [
        {
          "name": "",
          "type": "address"
        },
        {
          "name": "",
          "type": "string"
        },
        {
          "name": "",
          "type": "string"
        },
        {
          "name": "",
          "type": "uint32"
        },
        {
          "name": "",
          "type": "uint32"
        },
        {
          "name": "",
          "type": "uint32"
        },
        {
          "name": "",
          "type": "uint32"
        },
        {
          "name": "",
          "type": "uint32"
        },
        {
          "name": "",
          "type": "string"
        },
        {
          "name": "",
          "type": "string"
        }
      ],
      "payable": false,
      "stateMutability": "view",
      "type": "function"
    },
    {
      "constant": true,
      "inputs": [
        {
          "name": "_consAccntAddr",
          "type": "address"
        }
      ],
      "name": "getConsAccntDetails",
      "outputs": [
        {
          "name": "",
          "type": "string"
        },
        {
          "name": "",
          "type": "string"
        },
        {
          "name": "",
          "type": "uint32"
        },
        {
          "name": "",
          "type": "string"
        },
        {
          "name": "",
          "type": "uint32"
        },
        {
          "name": "",
          "type": "uint32"
        },
        {
          "name": "",
          "type": "string"
        }
      ],
      "payable": false,
      "stateMutability": "view",
      "type": "function"
    },
    {
      "constant": true,
      "inputs": [],
      "name": "getConsAccntsList",
      "outputs": [
        {
          "name": "",
          "type": "address[]"
        }
      ],
      "payable": false,
      "stateMutability": "view",
      "type": "function"
    },
    {
      "constant": true,
      "inputs": [],
      "name": "countConsumers",
      "outputs": [
        {
          "name": "",
          "type": "uint256"
        }
      ],
      "payable": false,
      "stateMutability": "view",
      "type": "function"
    },
    {
      "constant": false,
      "inputs": [
        {
          "name": "_enerValue",
          "type": "uint32"
        }
      ],
      "name": "setEnerConsumption",
      "outputs": [],
      "payable": false,
      "stateMutability": "nonpayable",
      "type": "function"
    },
    {
      "constant": true,
      "inputs": [],
      "name": "getEnerConsumption",
      "outputs": [
        {
          "name": "",
          "type": "address"
        },
        {
          "name": "",
          "type": "uint256"
        },
        {
          "name": "",
          "type": "uint32"
        }
      ],
      "payable": false,
      "stateMutability": "view",
      "type": "function"
    },
    {
      "constant": true,
      "inputs": [
        {
          "name": "_consAccntAddr",
          "type": "address"
        }
      ],
      "name": "getConsEnerConsumption",
      "outputs": [
        {
          "name": "",
          "type": "address"
        },
        {
          "name": "",
          "type": "uint256[]"
        },
        {
          "name": "",
          "type": "uint32[]"
        },
        {
          "name": "",
          "type": "uint256[]"
        },
        {
          "name": "",
          "type": "bytes32[]"
        },
        {
          "name": "",
          "type": "uint256[]"
        }
      ],
      "payable": false,
      "stateMutability": "view",
      "type": "function"
    },
    {
      "constant": true,
      "inputs": [
        {
          "name": "_consAccntAddr",
          "type": "address"
        }
      ],
      "name": "getConsBalance",
      "outputs": [
        {
          "name": "",
          "type": "uint256"
        }
      ],
      "payable": false,
      "stateMutability": "view",
      "type": "function"
    }
  ],
  "bytecode": "0x608060405234801561001057600080fd5b5061255d806100206000396000f3fe608060405234801561001057600080fd5b50600436106100a95760003560e01c8063739ae78511610071578063739ae785146104945780637ed8917f146104b25780639926188f1461050a578063a64062fc1461053e578063b1b79dbf1461080f578063fd3c13ab14610a49576100a9565b806318cbdce3146100ae57806319bccb9c1461011c578063203aec331461017b57806324a0d6bc146101df5780636c07681f1461023b575b600080fd5b6100da600480360360208110156100c457600080fd5b8101908080359060200190929190505050610c35565b604051808273ffffffffffffffffffffffffffffffffffffffff1673ffffffffffffffffffffffffffffffffffffffff16815260200191505060405180910390f35b610124610c71565b6040518080602001828103825283818151815260200191508051906020019060200280838360005b8381101561016757808201518184015260208101905061014c565b505050509050019250505060405180910390f35b610183610cff565b604051808473ffffffffffffffffffffffffffffffffffffffff1673ffffffffffffffffffffffffffffffffffffffff1681526020018381526020018263ffffffff1663ffffffff168152602001935050505060405180910390f35b610221600480360360208110156101f557600080fd5b81019080803573ffffffffffffffffffffffffffffffffffffffff169060200190929190505050610da9565b604051808215151515815260200191505060405180910390f35b610243610e05565b604051808b73ffffffffffffffffffffffffffffffffffffffff1673ffffffffffffffffffffffffffffffffffffffff16815260200180602001806020018a63ffffffff1663ffffffff1681526020018963ffffffff1663ffffffff1681526020018863ffffffff1663ffffffff1681526020018763ffffffff1663ffffffff1681526020018663ffffffff1663ffffffff168152602001806020018060200185810385528e818151815260200191508051906020019080838360005b8381101561031b578082015181840152602081019050610300565b50505050905090810190601f1680156103485780820380516001836020036101000a031916815260200191505b5085810384528d818151815260200191508051906020019080838360005b83811015610381578082015181840152602081019050610366565b50505050905090810190601f1680156103ae5780820380516001836020036101000a031916815260200191505b50858103835287818151815260200191508051906020019080838360005b838110156103e75780820151818401526020810190506103cc565b50505050905090810190601f1680156104145780820380516001836020036101000a031916815260200191505b50858103825286818151815260200191508051906020019080838360005b8381101561044d578082015181840152602081019050610432565b50505050905090810190601f16801561047a5780820380516001836020036101000a031916815260200191505b509e50505050505050505050505050505060405180910390f35b61049c611347565b6040518082815260200191505060405180910390f35b6104f4600480360360208110156104c857600080fd5b81019080803573ffffffffffffffffffffffffffffffffffffffff169060200190929190505050611357565b6040518082815260200191505060405180910390f35b61053c6004803603602081101561052057600080fd5b81019080803563ffffffff1690602001909291905050506113a0565b005b61080d600480360361012081101561055557600080fd5b810190808035906020019064010000000081111561057257600080fd5b82018360208201111561058457600080fd5b803590602001918460018302840111640100000000831117156105a657600080fd5b91908080601f016020809104026020016040519081016040528093929190818152602001838380828437600081840152601f19601f8201169050808301925050505050505091929192908035906020019064010000000081111561060957600080fd5b82018360208201111561061b57600080fd5b8035906020019184600183028401116401000000008311171561063d57600080fd5b91908080601f016020809104026020016040519081016040528093929190818152602001838380828437600081840152601f19601f820116905080830192505050505050509192919290803563ffffffff169060200190929190803563ffffffff169060200190929190803563ffffffff169060200190929190803563ffffffff169060200190929190803563ffffffff169060200190929190803590602001906401000000008111156106f057600080fd5b82018360208201111561070257600080fd5b8035906020019184600183028401116401000000008311171561072457600080fd5b91908080601f016020809104026020016040519081016040528093929190818152602001838380828437600081840152601f19601f8201169050808301925050505050505091929192908035906020019064010000000081111561078757600080fd5b82018360208201111561079957600080fd5b803590602001918460018302840111640100000000831117156107bb57600080fd5b91908080601f016020809104026020016040519081016040528093929190818152602001838380828437600081840152601f19601f8201169050808301925050505050505091929192905050506117b0565b005b6108516004803603602081101561082557600080fd5b81019080803573ffffffffffffffffffffffffffffffffffffffff169060200190929190505050611ccd565b6040518080602001806020018863ffffffff1663ffffffff168152602001806020018763ffffffff1663ffffffff1681526020018663ffffffff1663ffffffff1681526020018060200185810385528c818151815260200191508051906020019080838360005b838110156108d35780820151818401526020810190506108b8565b50505050905090810190601f1680156109005780820380516001836020036101000a031916815260200191505b5085810384528b818151815260200191508051906020019080838360005b8381101561093957808201518184015260208101905061091e565b50505050905090810190601f1680156109665780820380516001836020036101000a031916815260200191505b50858103835289818151815260200191508051906020019080838360005b8381101561099f578082015181840152602081019050610984565b50505050905090810190601f1680156109cc5780820380516001836020036101000a031916815260200191505b50858103825286818151815260200191508051906020019080838360005b83811015610a055780820151818401526020810190506109ea565b50505050905090810190601f168015610a325780820380516001836020036101000a031916815260200191505b509b50505050505050505050505060405180910390f35b610a8b60048036036020811015610a5f57600080fd5b81019080803573ffffffffffffffffffffffffffffffffffffffff16906020019092919050505061215c565b604051808773ffffffffffffffffffffffffffffffffffffffff1673ffffffffffffffffffffffffffffffffffffffff168152602001806020018060200180602001806020018060200186810386528b818151815260200191508051906020019060200280838360005b83811015610b10578082015181840152602081019050610af5565b5050505090500186810385528a818151815260200191508051906020019060200280838360005b83811015610b52578082015181840152602081019050610b37565b50505050905001868103845289818151815260200191508051906020019060200280838360005b83811015610b94578082015181840152602081019050610b79565b50505050905001868103835288818151815260200191508051906020019060200280838360005b83811015610bd6578082015181840152602081019050610bbb565b50505050905001868103825287818151815260200191508051906020019060200280838360005b83811015610c18578082015181840152602081019050610bfd565b505050509050019b50505050505050505050505060405180910390f35b60058181548110610c4257fe5b906000526020600020016000915054906101000a900473ffffffffffffffffffffffffffffffffffffffff1681565b60606005805480602002602001604051908101604052809291908181526020018280548015610cf557602002820191906000526020600020905b8160009054906101000a900473ffffffffffffffffffffffffffffffffffffffff1673ffffffffffffffffffffffffffffffffffffffff1681526020019060010190808311610cab575b5050505050905090565b600080600033600260003373ffffffffffffffffffffffffffffffffffffffff1673ffffffffffffffffffffffffffffffffffffffff16815260200190815260200160002060000154600260003373ffffffffffffffffffffffffffffffffffffffff1673ffffffffffffffffffffffffffffffffffffffff16815260200190815260200160002060010160009054906101000a900463ffffffff16829250925092509250909192565b600080600160008473ffffffffffffffffffffffffffffffffffffffff1673ffffffffffffffffffffffffffffffffffffffff168152602001908152602001600020541115610dfb5760019050610e00565b600090505b919050565b60006060806000806000806000606080336000803373ffffffffffffffffffffffffffffffffffffffff1673ffffffffffffffffffffffffffffffffffffffff1681526020019081526020016000206000016000803373ffffffffffffffffffffffffffffffffffffffff1673ffffffffffffffffffffffffffffffffffffffff1681526020019081526020016000206001016000803373ffffffffffffffffffffffffffffffffffffffff1673ffffffffffffffffffffffffffffffffffffffff16815260200190815260200160002060020160009054906101000a900463ffffffff166000803373ffffffffffffffffffffffffffffffffffffffff1673ffffffffffffffffffffffffffffffffffffffff16815260200190815260200160002060020160049054906101000a900463ffffffff166000803373ffffffffffffffffffffffffffffffffffffffff1673ffffffffffffffffffffffffffffffffffffffff16815260200190815260200160002060020160089054906101000a900463ffffffff166000803373ffffffffffffffffffffffffffffffffffffffff1673ffffffffffffffffffffffffffffffffffffffff168152602001908152602001600020600201600c9054906101000a900463ffffffff166000803373ffffffffffffffffffffffffffffffffffffffff1673ffffffffffffffffffffffffffffffffffffffff16815260200190815260200160002060020160109054906101000a900463ffffffff166000803373ffffffffffffffffffffffffffffffffffffffff1673ffffffffffffffffffffffffffffffffffffffff1681526020019081526020016000206003016000803373ffffffffffffffffffffffffffffffffffffffff1673ffffffffffffffffffffffffffffffffffffffff168152602001908152602001600020600401899950888054600181600116156101000203166002900480601f01602080910402602001604051908101604052809291908181526020018280546001816001161561010002031660029004801561114c5780601f106111215761010080835404028352916020019161114c565b820191906000526020600020905b81548152906001019060200180831161112f57829003601f168201915b50505050509850878054600181600116156101000203166002900480601f0160208091040260200160405190810160405280929190818152602001828054600181600116156101000203166002900480156111e85780601f106111bd576101008083540402835291602001916111e8565b820191906000526020600020905b8154815290600101906020018083116111cb57829003601f168201915b50505050509750818054600181600116156101000203166002900480601f0160208091040260200160405190810160405280929190818152602001828054600181600116156101000203166002900480156112845780601f1061125957610100808354040283529160200191611284565b820191906000526020600020905b81548152906001019060200180831161126757829003601f168201915b50505050509150808054600181600116156101000203166002900480601f0160208091040260200160405190810160405280929190818152602001828054600181600116156101000203166002900480156113205780601f106112f557610100808354040283529160200191611320565b820191906000526020600020905b81548152906001019060200180831161130357829003601f168201915b50505050509050995099509950995099509950995099509950995090919293949596979899565b6000600160058054905003905090565b6000600360008373ffffffffffffffffffffffffffffffffffffffff1673ffffffffffffffffffffffffffffffffffffffff168152602001908152602001600020549050919050565b6113a933610da9565b15611712576040518060a001604052804281526020018263ffffffff168152602001438152602001600143034081526020013a815250600260003373ffffffffffffffffffffffffffffffffffffffff1673ffffffffffffffffffffffffffffffffffffffff1681526020019081526020016000206000820151816000015560208201518160010160006101000a81548163ffffffff021916908363ffffffff1602179055506040820151816002015560608201518160030155608082015181600401559050508063ffffffff16600360003373ffffffffffffffffffffffffffffffffffffffff1673ffffffffffffffffffffffffffffffffffffffff168152602001908152602001600020600082825401925050819055506001600460003373ffffffffffffffffffffffffffffffffffffffff1673ffffffffffffffffffffffffffffffffffffffff168152602001908152602001600020600001429080600181540180825580915050906001820390600052602060002001600090919290919091505550506001600460003373ffffffffffffffffffffffffffffffffffffffff1673ffffffffffffffffffffffffffffffffffffffff16815260200190815260200160002060010182908060018154018082558091505090600182039060005260206000209060089182820401919006600402909192909190916101000a81548163ffffffff021916908363ffffffff1602179055505050600460003373ffffffffffffffffffffffffffffffffffffffff1673ffffffffffffffffffffffffffffffffffffffff168152602001908152602001600020600201439080600181540180825580915050906001820390600052602060002001600090919290919091505550600460003373ffffffffffffffffffffffffffffffffffffffff1673ffffffffffffffffffffffffffffffffffffffff168152602001908152602001600020600301600143034090806001815401808255809150509060018203906000526020600020016000909192909190915055506001600460003373ffffffffffffffffffffffffffffffffffffffff1673ffffffffffffffffffffffffffffffffffffffff1681526020019081526020016000206004013a9080600181540180825580915050906001820390600052602060002001600090919290919091505550505b7f4178216373414aaa2ddc57647bea611333a1935e70d67456a8c0bdcefee958db3342834360014303403a604051808773ffffffffffffffffffffffffffffffffffffffff1673ffffffffffffffffffffffffffffffffffffffff1681526020018681526020018563ffffffff1663ffffffff168152602001848152602001838152602001828152602001965050505050505060405180910390a150565b6117b933610da9565b611cc257600580549050600160003373ffffffffffffffffffffffffffffffffffffffff1673ffffffffffffffffffffffffffffffffffffffff168152602001908152602001600020819055506040518061012001604052808a81526020018981526020018863ffffffff1681526020018763ffffffff1681526020018663ffffffff1681526020018563ffffffff1681526020018463ffffffff168152602001838152602001828152506000803373ffffffffffffffffffffffffffffffffffffffff1673ffffffffffffffffffffffffffffffffffffffff16815260200190815260200160002060008201518160000190805190602001906118be92919061248c565b5060208201518160010190805190602001906118db92919061248c565b5060408201518160020160006101000a81548163ffffffff021916908363ffffffff16021790555060608201518160020160046101000a81548163ffffffff021916908363ffffffff16021790555060808201518160020160086101000a81548163ffffffff021916908363ffffffff16021790555060a082015181600201600c6101000a81548163ffffffff021916908363ffffffff16021790555060c08201518160020160106101000a81548163ffffffff021916908363ffffffff16021790555060e08201518160030190805190602001906119bb92919061248c565b506101008201518160040190805190602001906119d992919061248c565b50905050600160053390806001815401808255809150509060018203906000526020600020016000909192909190916101000a81548173ffffffffffffffffffffffffffffffffffffffff021916908373ffffffffffffffffffffffffffffffffffffffff16021790555050507f71537b70bbd67fee09ad13f9c4280471a83004e2e7d0a3f0a9817677cd1cffd5338a8a8a8a8a8a8a8a8a604051808b73ffffffffffffffffffffffffffffffffffffffff1673ffffffffffffffffffffffffffffffffffffffff16815260200180602001806020018a63ffffffff1663ffffffff1681526020018963ffffffff1663ffffffff1681526020018863ffffffff1663ffffffff1681526020018763ffffffff1663ffffffff1681526020018663ffffffff1663ffffffff168152602001806020018060200185810385528e818151815260200191508051906020019080838360005b83811015611b49578082015181840152602081019050611b2e565b50505050905090810190601f168015611b765780820380516001836020036101000a031916815260200191505b5085810384528d818151815260200191508051906020019080838360005b83811015611baf578082015181840152602081019050611b94565b50505050905090810190601f168015611bdc5780820380516001836020036101000a031916815260200191505b50858103835287818151815260200191508051906020019080838360005b83811015611c15578082015181840152602081019050611bfa565b50505050905090810190601f168015611c425780820380516001836020036101000a031916815260200191505b50858103825286818151815260200191508051906020019080838360005b83811015611c7b578082015181840152602081019050611c60565b50505050905090810190601f168015611ca85780820380516001836020036101000a031916815260200191505b509e50505050505050505050505050505060405180910390a15b505050505050505050565b6060806000606060008060606000808973ffffffffffffffffffffffffffffffffffffffff1673ffffffffffffffffffffffffffffffffffffffff1681526020019081526020016000206000016000808a73ffffffffffffffffffffffffffffffffffffffff1673ffffffffffffffffffffffffffffffffffffffff1681526020019081526020016000206001016000808b73ffffffffffffffffffffffffffffffffffffffff1673ffffffffffffffffffffffffffffffffffffffff16815260200190815260200160002060020160009054906101000a900463ffffffff166000808c73ffffffffffffffffffffffffffffffffffffffff1673ffffffffffffffffffffffffffffffffffffffff1681526020019081526020016000206003016000808d73ffffffffffffffffffffffffffffffffffffffff1673ffffffffffffffffffffffffffffffffffffffff16815260200190815260200160002060020160089054906101000a900463ffffffff166000808e73ffffffffffffffffffffffffffffffffffffffff1673ffffffffffffffffffffffffffffffffffffffff168152602001908152602001600020600201600c9054906101000a900463ffffffff166000808f73ffffffffffffffffffffffffffffffffffffffff1673ffffffffffffffffffffffffffffffffffffffff168152602001908152602001600020600401868054600181600116156101000203166002900480601f016020809104026020016040519081016040528092919081815260200182805460018160011615610100020316600290048015611f685780601f10611f3d57610100808354040283529160200191611f68565b820191906000526020600020905b815481529060010190602001808311611f4b57829003601f168201915b50505050509650858054600181600116156101000203166002900480601f0160208091040260200160405190810160405280929190818152602001828054600181600116156101000203166002900480156120045780601f10611fd957610100808354040283529160200191612004565b820191906000526020600020905b815481529060010190602001808311611fe757829003601f168201915b50505050509550838054600181600116156101000203166002900480601f0160208091040260200160405190810160405280929190818152602001828054600181600116156101000203166002900480156120a05780601f10612075576101008083540402835291602001916120a0565b820191906000526020600020905b81548152906001019060200180831161208357829003601f168201915b50505050509350808054600181600116156101000203166002900480601f01602080910402602001604051908101604052809291908181526020018280546001816001161561010002031660029004801561213c5780601f106121115761010080835404028352916020019161213c565b820191906000526020600020905b81548152906001019060200180831161211f57829003601f168201915b505050505090509650965096509650965096509650919395979092949650565b6000606080606080606086600460008973ffffffffffffffffffffffffffffffffffffffff1673ffffffffffffffffffffffffffffffffffffffff168152602001908152602001600020600001600460008a73ffffffffffffffffffffffffffffffffffffffff1673ffffffffffffffffffffffffffffffffffffffff168152602001908152602001600020600101600460008b73ffffffffffffffffffffffffffffffffffffffff1673ffffffffffffffffffffffffffffffffffffffff168152602001908152602001600020600201600460008c73ffffffffffffffffffffffffffffffffffffffff1673ffffffffffffffffffffffffffffffffffffffff168152602001908152602001600020600301600460008d73ffffffffffffffffffffffffffffffffffffffff1673ffffffffffffffffffffffffffffffffffffffff168152602001908152602001600020600401848054806020026020016040519081016040528092919081815260200182805480156122fc57602002820191906000526020600020905b8154815260200190600101908083116122e8575b505050505094508380548060200260200160405190810160405280929190818152602001828054801561237a57602002820191906000526020600020906000905b82829054906101000a900463ffffffff1663ffffffff168152602001906004019060208260030104928301926001038202915080841161233d5790505b50505050509350828054806020026020016040519081016040528092919081815260200182805480156123cc57602002820191906000526020600020905b8154815260200190600101908083116123b8575b505050505092508180548060200260200160405190810160405280929190818152602001828054801561241e57602002820191906000526020600020905b81548152602001906001019080831161240a575b505050505091508080548060200260200160405190810160405280929190818152602001828054801561247057602002820191906000526020600020905b81548152602001906001019080831161245c575b5050505050905095509550955095509550955091939550919395565b828054600181600116156101000203166002900490600052602060002090601f016020900481019282601f106124cd57805160ff19168380011785556124fb565b828001600101855582156124fb579182015b828111156124fa5782518255916020019190600101906124df565b5b509050612508919061250c565b5090565b61252e91905b8082111561252a576000816000905550600101612512565b5090565b9056fea165627a7a723058204e27d919b696933074da0ebcf22c0f2a4e2880b51f8f8259155489d59a5e98720029",
  "source": "pragma solidity >=0.4.16 <0.6.0;\r\n\r\ncontract EnergyConsumption {\r\n\r\n    struct Consumer {\r\n        string owner;\r\n        string deviceType;\r\n        uint32 peakPowerPos;\r\n        uint32 peakPowerNeg;\r\n        uint32 latitude;\r\n        uint32 longitude;\r\n        uint32 voltageLevel;\r\n        string location;\r\n        string installDate;\r\n    }\r\n\r\n    struct EnerConsumption {\r\n        uint enerTime;\r\n        uint32 enerValue;\r\n        uint blockNumber;\r\n        bytes32 blockHash;\r\n        uint txGasPrice;\r\n    }\r\n\r\n    struct ConsTransaction {\r\n        uint[] txTime;\r\n        uint32[] txValue;\r\n        uint[] blockNumber;\r\n        bytes32[] blockHash;\r\n        uint[] txGasPrice;\r\n    }\r\n\r\n    event ConsumerRegs(address pvAddr, string owner, string deviceType, uint32 peakPowerPos, uint32 peakPowerNeg, uint32 latitude, uint32 longitude, uint32 voltageLevel, string location, string installDate);\r\n    event EnerConsumptionEvent(address oliAddr, uint256 eTime, uint32 enerAmount);\r\n    event TestEvent(address oliAddr, uint[] txTime, uint32[] txValue, uint[] blockNumber, bytes32[] blockHash, uint[] txGasPrice);\r\n    event ConsTransactionEvent(address oliAddr, uint256 eTime, uint32 enerAmount, uint blockNumber, bytes32 blockHash, uint txGasPrice);\r\n\r\n    mapping(address => Consumer) consumers;\r\n    mapping(address => uint) accntIndexArr;\r\n    mapping(address => EnerConsumption) enerConsumptions;\r\n    mapping(address => uint) consBalance;\r\n    mapping(address => ConsTransaction) transactions;\r\n\r\n    address[] public consAccntList;\r\n\r\n    /*\r\n    * Registration\r\n    */\r\n\r\n    function setConsumer(string memory _owner, string memory _deviceType, uint32 _peakPowerPos, uint32 _peakPowerNeg, uint32 _latitude, uint32 _longitude, uint32 _voltageLevel, string memory _location, string memory _installDate) public {\r\n        if (!consAccntsArr(msg.sender)) {\r\n            // mapping address to index\r\n            accntIndexArr[msg.sender] = consAccntList.length;\r\n            consumers[msg.sender] = Consumer(_owner, _deviceType, _peakPowerPos, _peakPowerNeg, _latitude, _longitude, _voltageLevel, _location, _installDate);\r\n            consAccntList.push(msg.sender) - 1;\r\n            emit ConsumerRegs(msg.sender, _owner, _deviceType, _peakPowerPos, _peakPowerNeg, _latitude, _longitude, _voltageLevel, _location, _installDate);\r\n        }\r\n    }\r\n\r\n    // check if an address is already registered or not\r\n    function consAccntsArr(address consumerAddr) public view returns (bool) {\r\n\r\n        if (accntIndexArr[consumerAddr] > 0) {\r\n            return true;\r\n        }\r\n        return false;\r\n    }\r\n\r\n    // getting registration details\r\n    function getConsumer() public view returns (address, string memory, string memory, uint32, uint32, uint32, uint32, uint32, string memory, string memory) {\r\n        return (msg.sender, consumers[msg.sender].owner, consumers[msg.sender].deviceType, consumers[msg.sender].peakPowerPos, consumers[msg.sender].peakPowerNeg, consumers[msg.sender].latitude, consumers[msg.sender].longitude, consumers[msg.sender].voltageLevel, consumers[msg.sender].location, consumers[msg.sender].installDate);\r\n    }\r\n\r\n    // get registation details for individual accounts\r\n    function getConsAccntDetails(address _consAccntAddr) public view returns (string memory, string memory, uint32, string memory, uint32, uint32, string memory) {\r\n        return (consumers[_consAccntAddr].owner, consumers[_consAccntAddr].deviceType, consumers[_consAccntAddr].peakPowerPos, consumers[_consAccntAddr].location, consumers[_consAccntAddr].latitude, consumers[_consAccntAddr].longitude, consumers[_consAccntAddr].installDate);\r\n    }\r\n\r\n    // consumer accounts list\r\n    function getConsAccntsList() public view returns (address[] memory) {\r\n        return consAccntList;\r\n    }\r\n\r\n    // count for consumer accounts\r\n    function countConsumers() public view returns (uint) {\r\n        return (consAccntList.length) - 1;\r\n    }\r\n\r\n    /*\r\n    * Energy mapping setup\r\n    */\r\n\r\n    // getting energy time and amount\r\n    function setEnerConsumption(uint32 _enerValue) public {\r\n        // check if consumer already exist\r\n        if (consAccntsArr(msg.sender)) {\r\n            enerConsumptions[msg.sender] = EnerConsumption(now, _enerValue, block.number, blockhash(block.number - 1), tx.gasprice);\r\n\r\n            // total energy balance\r\n            consBalance[msg.sender] += _enerValue;\r\n\r\n            // indidual accounts transaction history\r\n            transactions[msg.sender].txTime.push(now) - 1;\r\n            transactions[msg.sender].txValue.push(_enerValue) - 1;\r\n            transactions[msg.sender].blockNumber.push(block.number);\r\n            transactions[msg.sender].blockHash.push(blockhash(block.number - 1));\r\n            transactions[msg.sender].txGasPrice.push(tx.gasprice) - 1;\r\n        }\r\n\r\n        emit ConsTransactionEvent(msg.sender, now, _enerValue, block.number, blockhash(block.number - 1), tx.gasprice);\r\n\r\n    }\r\n\r\n    function getEnerConsumption() public view returns (address, uint, uint32) {\r\n        return (msg.sender, enerConsumptions[msg.sender].enerTime, enerConsumptions[msg.sender].enerValue);\r\n    }\r\n\r\n    // getting energy consumption details for individual accounts\r\n\r\n    function getConsEnerConsumption(address _consAccntAddr) public view returns (address, uint[] memory, uint32[] memory, uint[] memory, bytes32[] memory, uint[] memory) {\r\n        return (_consAccntAddr, transactions[_consAccntAddr].txTime, transactions[_consAccntAddr].txValue, transactions[_consAccntAddr].blockNumber, transactions[_consAccntAddr].blockHash, transactions[_consAccntAddr].txGasPrice);\r\n    }\r\n\r\n    // retrieving individula consumer total amount of energy consumed\r\n\r\n    function getConsBalance(address _consAccntAddr) public view returns (uint) {\r\n        return (consBalance[_consAccntAddr]);\r\n    }\r\n\r\n}\r\n",
  "sourcePath": "C:/Users/muhammad.yahya/Documents/GitHub/oli-portal/energy-browser/contracts/EnergyConsumption.sol",
  "compiler": {
    "name": "solc",
    "version": "0.5.8+commit.23d335f2.Emscripten.clang"
  },
  "schemaVersion": "3.0.11",
  "updatedAt": "2019-08-16T15:22:23.581Z",
  "devdoc": {
    "methods": {}
  },
  "userdoc": {
    "methods": {}
  }
}