{
  "contractName": "EnergyProduction",
  "abi": [
    {
      "inputs": [],
      "payable": false,
      "stateMutability": "nonpayable",
      "type": "constructor"
    },
    {
      "anonymous": false,
      "inputs": [
        {
          "indexed": false,
          "internalType": "address",
          "name": "oliAddr",
          "type": "address"
        },
        {
          "indexed": false,
          "internalType": "uint256",
          "name": "eTime",
          "type": "uint256"
        },
        {
          "indexed": false,
          "internalType": "uint32",
          "name": "enerAmount",
          "type": "uint32"
        }
      ],
      "name": "EnerProductionEvent",
      "type": "event"
    },
    {
      "anonymous": false,
      "inputs": [
        {
          "indexed": false,
          "internalType": "address",
          "name": "oliAddr",
          "type": "address"
        },
        {
          "indexed": false,
          "internalType": "uint256",
          "name": "eTime",
          "type": "uint256"
        },
        {
          "indexed": false,
          "internalType": "uint32",
          "name": "enerAmount",
          "type": "uint32"
        },
        {
          "indexed": false,
          "internalType": "uint256",
          "name": "blockNumber",
          "type": "uint256"
        },
        {
          "indexed": false,
          "internalType": "bytes32",
          "name": "blockHash",
          "type": "bytes32"
        },
        {
          "indexed": false,
          "internalType": "uint256",
          "name": "txGasPrice",
          "type": "uint256"
        }
      ],
      "name": "ProTransactionEvent",
      "type": "event"
    },
    {
      "anonymous": false,
      "inputs": [
        {
          "indexed": false,
          "internalType": "address",
          "name": "pvAddr",
          "type": "address"
        },
        {
          "indexed": false,
          "internalType": "string",
          "name": "owner",
          "type": "string"
        },
        {
          "indexed": false,
          "internalType": "string",
          "name": "deviceType",
          "type": "string"
        },
        {
          "indexed": false,
          "internalType": "uint32",
          "name": "peakPowerPos",
          "type": "uint32"
        },
        {
          "indexed": false,
          "internalType": "uint32",
          "name": "peakPowerNeg",
          "type": "uint32"
        },
        {
          "indexed": false,
          "internalType": "uint32",
          "name": "latitude",
          "type": "uint32"
        },
        {
          "indexed": false,
          "internalType": "uint32",
          "name": "longitude",
          "type": "uint32"
        },
        {
          "indexed": false,
          "internalType": "uint32",
          "name": "voltageLevel",
          "type": "uint32"
        },
        {
          "indexed": false,
          "internalType": "string",
          "name": "location",
          "type": "string"
        },
        {
          "indexed": false,
          "internalType": "string",
          "name": "installDate",
          "type": "string"
        }
      ],
      "name": "ProducerRegs",
      "type": "event"
    },
    {
      "constant": true,
      "inputs": [
        {
          "internalType": "uint256",
          "name": "",
          "type": "uint256"
        }
      ],
      "name": "proAccntList",
      "outputs": [
        {
          "internalType": "address",
          "name": "",
          "type": "address"
        }
      ],
      "payable": false,
      "stateMutability": "view",
      "type": "function"
    },
    {
      "constant": false,
      "inputs": [
        {
          "internalType": "string",
          "name": "_owner",
          "type": "string"
        },
        {
          "internalType": "string",
          "name": "_deviceType",
          "type": "string"
        },
        {
          "internalType": "uint32",
          "name": "_peakPowerPos",
          "type": "uint32"
        },
        {
          "internalType": "uint32",
          "name": "_peakPowerNeg",
          "type": "uint32"
        },
        {
          "internalType": "uint32",
          "name": "_latitude",
          "type": "uint32"
        },
        {
          "internalType": "uint32",
          "name": "_longitude",
          "type": "uint32"
        },
        {
          "internalType": "uint32",
          "name": "_voltageLevel",
          "type": "uint32"
        },
        {
          "internalType": "string",
          "name": "_location",
          "type": "string"
        },
        {
          "internalType": "string",
          "name": "_installDate",
          "type": "string"
        }
      ],
      "name": "setProducer",
      "outputs": [],
      "payable": false,
      "stateMutability": "nonpayable",
      "type": "function"
    },
    {
      "constant": true,
      "inputs": [
        {
          "internalType": "address",
          "name": "producerAddr",
          "type": "address"
        }
      ],
      "name": "proAccntsArr",
      "outputs": [
        {
          "internalType": "bool",
          "name": "",
          "type": "bool"
        }
      ],
      "payable": false,
      "stateMutability": "view",
      "type": "function"
    },
    {
      "constant": true,
      "inputs": [],
      "name": "getProducer",
      "outputs": [
        {
          "internalType": "address",
          "name": "",
          "type": "address"
        },
        {
          "internalType": "string",
          "name": "",
          "type": "string"
        },
        {
          "internalType": "string",
          "name": "",
          "type": "string"
        },
        {
          "internalType": "uint32",
          "name": "",
          "type": "uint32"
        },
        {
          "internalType": "uint32",
          "name": "",
          "type": "uint32"
        },
        {
          "internalType": "uint32",
          "name": "",
          "type": "uint32"
        },
        {
          "internalType": "uint32",
          "name": "",
          "type": "uint32"
        },
        {
          "internalType": "uint32",
          "name": "",
          "type": "uint32"
        },
        {
          "internalType": "string",
          "name": "",
          "type": "string"
        },
        {
          "internalType": "string",
          "name": "",
          "type": "string"
        }
      ],
      "payable": false,
      "stateMutability": "view",
      "type": "function"
    },
    {
      "constant": true,
      "inputs": [
        {
          "internalType": "address",
          "name": "_proAccntAddr",
          "type": "address"
        }
      ],
      "name": "getProAccntDetails",
      "outputs": [
        {
          "internalType": "string",
          "name": "",
          "type": "string"
        },
        {
          "internalType": "string",
          "name": "",
          "type": "string"
        },
        {
          "internalType": "uint32",
          "name": "",
          "type": "uint32"
        },
        {
          "internalType": "string",
          "name": "",
          "type": "string"
        },
        {
          "internalType": "uint32",
          "name": "",
          "type": "uint32"
        },
        {
          "internalType": "uint32",
          "name": "",
          "type": "uint32"
        },
        {
          "internalType": "string",
          "name": "",
          "type": "string"
        }
      ],
      "payable": false,
      "stateMutability": "view",
      "type": "function"
    },
    {
      "constant": true,
      "inputs": [],
      "name": "getProAccntsList",
      "outputs": [
        {
          "internalType": "address[]",
          "name": "",
          "type": "address[]"
        }
      ],
      "payable": false,
      "stateMutability": "view",
      "type": "function"
    },
    {
      "constant": true,
      "inputs": [],
      "name": "countProducers",
      "outputs": [
        {
          "internalType": "uint256",
          "name": "",
          "type": "uint256"
        }
      ],
      "payable": false,
      "stateMutability": "view",
      "type": "function"
    },
    {
      "constant": false,
      "inputs": [
        {
          "internalType": "uint32",
          "name": "_enerValue",
          "type": "uint32"
        }
      ],
      "name": "setEnerProduction",
      "outputs": [],
      "payable": false,
      "stateMutability": "nonpayable",
      "type": "function"
    },
    {
      "constant": true,
      "inputs": [],
      "name": "getEnerProduction",
      "outputs": [
        {
          "internalType": "address",
          "name": "",
          "type": "address"
        },
        {
          "internalType": "uint256",
          "name": "",
          "type": "uint256"
        },
        {
          "internalType": "uint32",
          "name": "",
          "type": "uint32"
        }
      ],
      "payable": false,
      "stateMutability": "view",
      "type": "function"
    },
    {
      "constant": true,
      "inputs": [
        {
          "internalType": "address",
          "name": "_proAccntAddr",
          "type": "address"
        }
      ],
      "name": "getProEnerProduction",
      "outputs": [
        {
          "internalType": "address",
          "name": "",
          "type": "address"
        },
        {
          "internalType": "uint256[]",
          "name": "",
          "type": "uint256[]"
        },
        {
          "internalType": "uint32[]",
          "name": "",
          "type": "uint32[]"
        },
        {
          "internalType": "uint256[]",
          "name": "",
          "type": "uint256[]"
        },
        {
          "internalType": "bytes32[]",
          "name": "",
          "type": "bytes32[]"
        },
        {
          "internalType": "uint256[]",
          "name": "",
          "type": "uint256[]"
        }
      ],
      "payable": false,
      "stateMutability": "view",
      "type": "function"
    },
    {
      "constant": true,
      "inputs": [
        {
          "internalType": "address",
          "name": "_proAccntAddr",
          "type": "address"
        }
      ],
      "name": "getProBalance",
      "outputs": [
        {
          "internalType": "uint256",
          "name": "",
          "type": "uint256"
        }
      ],
      "payable": false,
      "stateMutability": "view",
      "type": "function"
    }
  ],
  "bytecode": "0x608060405234801561001057600080fd5b506005600090806001815401808255809150509060018203906000526020600020016000909192909190916101000a81548173ffffffffffffffffffffffffffffffffffffffff021916908373ffffffffffffffffffffffffffffffffffffffff1602179055505061259f806100876000396000f3fe608060405234801561001057600080fd5b50600436106100a95760003560e01c8063ba0cfdce11610071578063ba0cfdce14610606578063c15ab97514610624578063ce0ccd0914610688578063dd1063aa146106f6578063e1a9249c14610930578063f1f1ecb714610c01576100a9565b806329b48069146100ae5780632f183cfd146101065780633ddc08351461035f5780634bb4577f1461054b5780637d0691fb146105aa575b600080fd5b6100f0600480360360208110156100c457600080fd5b81019080803573ffffffffffffffffffffffffffffffffffffffff169060200190929190505050610c35565b6040518082815260200191505060405180910390f35b61010e610c7e565b604051808b73ffffffffffffffffffffffffffffffffffffffff1673ffffffffffffffffffffffffffffffffffffffff16815260200180602001806020018a63ffffffff1663ffffffff1681526020018963ffffffff1663ffffffff1681526020018863ffffffff1663ffffffff1681526020018763ffffffff1663ffffffff1681526020018663ffffffff1663ffffffff168152602001806020018060200185810385528e818151815260200191508051906020019080838360005b838110156101e65780820151818401526020810190506101cb565b50505050905090810190601f1680156102135780820380516001836020036101000a031916815260200191505b5085810384528d818151815260200191508051906020019080838360005b8381101561024c578082015181840152602081019050610231565b50505050905090810190601f1680156102795780820380516001836020036101000a031916815260200191505b50858103835287818151815260200191508051906020019080838360005b838110156102b2578082015181840152602081019050610297565b50505050905090810190601f1680156102df5780820380516001836020036101000a031916815260200191505b50858103825286818151815260200191508051906020019080838360005b838110156103185780820151818401526020810190506102fd565b50505050905090810190601f1680156103455780820380516001836020036101000a031916815260200191505b509e50505050505050505050505050505060405180910390f35b6103a16004803603602081101561037557600080fd5b81019080803573ffffffffffffffffffffffffffffffffffffffff1690602001909291905050506111c0565b604051808773ffffffffffffffffffffffffffffffffffffffff1673ffffffffffffffffffffffffffffffffffffffff168152602001806020018060200180602001806020018060200186810386528b818151815260200191508051906020019060200280838360005b8381101561042657808201518184015260208101905061040b565b5050505090500186810385528a818151815260200191508051906020019060200280838360005b8381101561046857808201518184015260208101905061044d565b50505050905001868103845289818151815260200191508051906020019060200280838360005b838110156104aa57808201518184015260208101905061048f565b50505050905001868103835288818151815260200191508051906020019060200280838360005b838110156104ec5780820151818401526020810190506104d1565b50505050905001868103825287818151815260200191508051906020019060200280838360005b8381101561052e578082015181840152602081019050610513565b505050509050019b50505050505050505050505060405180910390f35b6105536114f0565b6040518080602001828103825283818151815260200191508051906020019060200280838360005b8381101561059657808201518184015260208101905061057b565b505050509050019250505060405180910390f35b6105ec600480360360208110156105c057600080fd5b81019080803573ffffffffffffffffffffffffffffffffffffffff16906020019092919050505061157e565b604051808215151515815260200191505060405180910390f35b61060e611613565b6040518082815260200191505060405180910390f35b61062c611623565b604051808473ffffffffffffffffffffffffffffffffffffffff1673ffffffffffffffffffffffffffffffffffffffff1681526020018381526020018263ffffffff1663ffffffff168152602001935050505060405180910390f35b6106b46004803603602081101561069e57600080fd5b81019080803590602001909291905050506116cd565b604051808273ffffffffffffffffffffffffffffffffffffffff1673ffffffffffffffffffffffffffffffffffffffff16815260200191505060405180910390f35b6107386004803603602081101561070c57600080fd5b81019080803573ffffffffffffffffffffffffffffffffffffffff169060200190929190505050611709565b6040518080602001806020018863ffffffff1663ffffffff168152602001806020018763ffffffff1663ffffffff1681526020018663ffffffff1663ffffffff1681526020018060200185810385528c818151815260200191508051906020019080838360005b838110156107ba57808201518184015260208101905061079f565b50505050905090810190601f1680156107e75780820380516001836020036101000a031916815260200191505b5085810384528b818151815260200191508051906020019080838360005b83811015610820578082015181840152602081019050610805565b50505050905090810190601f16801561084d5780820380516001836020036101000a031916815260200191505b50858103835289818151815260200191508051906020019080838360005b8381101561088657808201518184015260208101905061086b565b50505050905090810190601f1680156108b35780820380516001836020036101000a031916815260200191505b50858103825286818151815260200191508051906020019080838360005b838110156108ec5780820151818401526020810190506108d1565b50505050905090810190601f1680156109195780820380516001836020036101000a031916815260200191505b509b50505050505050505050505060405180910390f35b610bff600480360361012081101561094757600080fd5b810190808035906020019064010000000081111561096457600080fd5b82018360208201111561097657600080fd5b8035906020019184600183028401116401000000008311171561099857600080fd5b91908080601f016020809104026020016040519081016040528093929190818152602001838380828437600081840152601f19601f820116905080830192505050505050509192919290803590602001906401000000008111156109fb57600080fd5b820183602082011115610a0d57600080fd5b80359060200191846001830284011164010000000083111715610a2f57600080fd5b91908080601f016020809104026020016040519081016040528093929190818152602001838380828437600081840152601f19601f820116905080830192505050505050509192919290803563ffffffff169060200190929190803563ffffffff169060200190929190803563ffffffff169060200190929190803563ffffffff169060200190929190803563ffffffff16906020019092919080359060200190640100000000811115610ae257600080fd5b820183602082011115610af457600080fd5b80359060200191846001830284011164010000000083111715610b1657600080fd5b91908080601f016020809104026020016040519081016040528093929190818152602001838380828437600081840152601f19601f82011690508083019250505050505050919291929080359060200190640100000000811115610b7957600080fd5b820183602082011115610b8b57600080fd5b80359060200191846001830284011164010000000083111715610bad57600080fd5b91908080601f016020809104026020016040519081016040528093929190818152602001838380828437600081840152601f19601f820116905080830192505050505050509192919290505050611b98565b005b610c3360048036036020811015610c1757600080fd5b81019080803563ffffffff1690602001909291905050506120b5565b005b6000600360008373ffffffffffffffffffffffffffffffffffffffff1673ffffffffffffffffffffffffffffffffffffffff168152602001908152602001600020549050919050565b60006060806000806000806000606080336000803373ffffffffffffffffffffffffffffffffffffffff1673ffffffffffffffffffffffffffffffffffffffff1681526020019081526020016000206000016000803373ffffffffffffffffffffffffffffffffffffffff1673ffffffffffffffffffffffffffffffffffffffff1681526020019081526020016000206001016000803373ffffffffffffffffffffffffffffffffffffffff1673ffffffffffffffffffffffffffffffffffffffff16815260200190815260200160002060020160009054906101000a900463ffffffff166000803373ffffffffffffffffffffffffffffffffffffffff1673ffffffffffffffffffffffffffffffffffffffff16815260200190815260200160002060020160049054906101000a900463ffffffff166000803373ffffffffffffffffffffffffffffffffffffffff1673ffffffffffffffffffffffffffffffffffffffff16815260200190815260200160002060020160089054906101000a900463ffffffff166000803373ffffffffffffffffffffffffffffffffffffffff1673ffffffffffffffffffffffffffffffffffffffff168152602001908152602001600020600201600c9054906101000a900463ffffffff166000803373ffffffffffffffffffffffffffffffffffffffff1673ffffffffffffffffffffffffffffffffffffffff16815260200190815260200160002060020160109054906101000a900463ffffffff166000803373ffffffffffffffffffffffffffffffffffffffff1673ffffffffffffffffffffffffffffffffffffffff1681526020019081526020016000206003016000803373ffffffffffffffffffffffffffffffffffffffff1673ffffffffffffffffffffffffffffffffffffffff168152602001908152602001600020600401899950888054600181600116156101000203166002900480601f016020809104026020016040519081016040528092919081815260200182805460018160011615610100020316600290048015610fc55780601f10610f9a57610100808354040283529160200191610fc5565b820191906000526020600020905b815481529060010190602001808311610fa857829003601f168201915b50505050509850878054600181600116156101000203166002900480601f0160208091040260200160405190810160405280929190818152602001828054600181600116156101000203166002900480156110615780601f1061103657610100808354040283529160200191611061565b820191906000526020600020905b81548152906001019060200180831161104457829003601f168201915b50505050509750818054600181600116156101000203166002900480601f0160208091040260200160405190810160405280929190818152602001828054600181600116156101000203166002900480156110fd5780601f106110d2576101008083540402835291602001916110fd565b820191906000526020600020905b8154815290600101906020018083116110e057829003601f168201915b50505050509150808054600181600116156101000203166002900480601f0160208091040260200160405190810160405280929190818152602001828054600181600116156101000203166002900480156111995780601f1061116e57610100808354040283529160200191611199565b820191906000526020600020905b81548152906001019060200180831161117c57829003601f168201915b50505050509050995099509950995099509950995099509950995090919293949596979899565b6000606080606080606086600460008973ffffffffffffffffffffffffffffffffffffffff1673ffffffffffffffffffffffffffffffffffffffff168152602001908152602001600020600001600460008a73ffffffffffffffffffffffffffffffffffffffff1673ffffffffffffffffffffffffffffffffffffffff168152602001908152602001600020600101600460008b73ffffffffffffffffffffffffffffffffffffffff1673ffffffffffffffffffffffffffffffffffffffff168152602001908152602001600020600201600460008c73ffffffffffffffffffffffffffffffffffffffff1673ffffffffffffffffffffffffffffffffffffffff168152602001908152602001600020600301600460008d73ffffffffffffffffffffffffffffffffffffffff1673ffffffffffffffffffffffffffffffffffffffff1681526020019081526020016000206004018480548060200260200160405190810160405280929190818152602001828054801561136057602002820191906000526020600020905b81548152602001906001019080831161134c575b50505050509450838054806020026020016040519081016040528092919081815260200182805480156113de57602002820191906000526020600020906000905b82829054906101000a900463ffffffff1663ffffffff16815260200190600401906020826003010492830192600103820291508084116113a15790505b505050505093508280548060200260200160405190810160405280929190818152602001828054801561143057602002820191906000526020600020905b81548152602001906001019080831161141c575b505050505092508180548060200260200160405190810160405280929190818152602001828054801561148257602002820191906000526020600020905b81548152602001906001019080831161146e575b50505050509150808054806020026020016040519081016040528092919081815260200182805480156114d457602002820191906000526020600020905b8154815260200190600101908083116114c0575b5050505050905095509550955095509550955091939550919395565b6060600580548060200260200160405190810160405280929190818152602001828054801561157457602002820191906000526020600020905b8160009054906101000a900473ffffffffffffffffffffffffffffffffffffffff1673ffffffffffffffffffffffffffffffffffffffff168152602001906001019080831161152a575b5050505050905090565b60008073ffffffffffffffffffffffffffffffffffffffff168273ffffffffffffffffffffffffffffffffffffffff16141580156115fb57506000600160008473ffffffffffffffffffffffffffffffffffffffff1673ffffffffffffffffffffffffffffffffffffffff16815260200190815260200160002054115b15611609576001905061160e565b600090505b919050565b6000600160058054905003905090565b600080600033600260003373ffffffffffffffffffffffffffffffffffffffff1673ffffffffffffffffffffffffffffffffffffffff16815260200190815260200160002060000154600260003373ffffffffffffffffffffffffffffffffffffffff1673ffffffffffffffffffffffffffffffffffffffff16815260200190815260200160002060010160009054906101000a900463ffffffff16829250925092509250909192565b600581815481106116da57fe5b906000526020600020016000915054906101000a900473ffffffffffffffffffffffffffffffffffffffff1681565b6060806000606060008060606000808973ffffffffffffffffffffffffffffffffffffffff1673ffffffffffffffffffffffffffffffffffffffff1681526020019081526020016000206000016000808a73ffffffffffffffffffffffffffffffffffffffff1673ffffffffffffffffffffffffffffffffffffffff1681526020019081526020016000206001016000808b73ffffffffffffffffffffffffffffffffffffffff1673ffffffffffffffffffffffffffffffffffffffff16815260200190815260200160002060020160009054906101000a900463ffffffff166000808c73ffffffffffffffffffffffffffffffffffffffff1673ffffffffffffffffffffffffffffffffffffffff1681526020019081526020016000206003016000808d73ffffffffffffffffffffffffffffffffffffffff1673ffffffffffffffffffffffffffffffffffffffff16815260200190815260200160002060020160089054906101000a900463ffffffff166000808e73ffffffffffffffffffffffffffffffffffffffff1673ffffffffffffffffffffffffffffffffffffffff168152602001908152602001600020600201600c9054906101000a900463ffffffff166000808f73ffffffffffffffffffffffffffffffffffffffff1673ffffffffffffffffffffffffffffffffffffffff168152602001908152602001600020600401868054600181600116156101000203166002900480601f0160208091040260200160405190810160405280929190818152602001828054600181600116156101000203166002900480156119a45780601f10611979576101008083540402835291602001916119a4565b820191906000526020600020905b81548152906001019060200180831161198757829003601f168201915b50505050509650858054600181600116156101000203166002900480601f016020809104026020016040519081016040528092919081815260200182805460018160011615610100020316600290048015611a405780601f10611a1557610100808354040283529160200191611a40565b820191906000526020600020905b815481529060010190602001808311611a2357829003601f168201915b50505050509550838054600181600116156101000203166002900480601f016020809104026020016040519081016040528092919081815260200182805460018160011615610100020316600290048015611adc5780601f10611ab157610100808354040283529160200191611adc565b820191906000526020600020905b815481529060010190602001808311611abf57829003601f168201915b50505050509350808054600181600116156101000203166002900480601f016020809104026020016040519081016040528092919081815260200182805460018160011615610100020316600290048015611b785780601f10611b4d57610100808354040283529160200191611b78565b820191906000526020600020905b815481529060010190602001808311611b5b57829003601f168201915b505050505090509650965096509650965096509650919395979092949650565b611ba13361157e565b6120aa57600580549050600160003373ffffffffffffffffffffffffffffffffffffffff1673ffffffffffffffffffffffffffffffffffffffff168152602001908152602001600020819055506040518061012001604052808a81526020018981526020018863ffffffff1681526020018763ffffffff1681526020018663ffffffff1681526020018563ffffffff1681526020018463ffffffff168152602001838152602001828152506000803373ffffffffffffffffffffffffffffffffffffffff1673ffffffffffffffffffffffffffffffffffffffff1681526020019081526020016000206000820151816000019080519060200190611ca69291906124c5565b506020820151816001019080519060200190611cc39291906124c5565b5060408201518160020160006101000a81548163ffffffff021916908363ffffffff16021790555060608201518160020160046101000a81548163ffffffff021916908363ffffffff16021790555060808201518160020160086101000a81548163ffffffff021916908363ffffffff16021790555060a082015181600201600c6101000a81548163ffffffff021916908363ffffffff16021790555060c08201518160020160106101000a81548163ffffffff021916908363ffffffff16021790555060e0820151816003019080519060200190611da39291906124c5565b50610100820151816004019080519060200190611dc19291906124c5565b50905050600160053390806001815401808255809150509060018203906000526020600020016000909192909190916101000a81548173ffffffffffffffffffffffffffffffffffffffff021916908373ffffffffffffffffffffffffffffffffffffffff16021790555050507f5bba84d3568a0b013b9eac75d4ba0c2aa6affa2d3d931aff1565c817e7438c40338a8a8a8a8a8a8a8a8a604051808b73ffffffffffffffffffffffffffffffffffffffff1673ffffffffffffffffffffffffffffffffffffffff16815260200180602001806020018a63ffffffff1663ffffffff1681526020018963ffffffff1663ffffffff1681526020018863ffffffff1663ffffffff1681526020018763ffffffff1663ffffffff1681526020018663ffffffff1663ffffffff168152602001806020018060200185810385528e818151815260200191508051906020019080838360005b83811015611f31578082015181840152602081019050611f16565b50505050905090810190601f168015611f5e5780820380516001836020036101000a031916815260200191505b5085810384528d818151815260200191508051906020019080838360005b83811015611f97578082015181840152602081019050611f7c565b50505050905090810190601f168015611fc45780820380516001836020036101000a031916815260200191505b50858103835287818151815260200191508051906020019080838360005b83811015611ffd578082015181840152602081019050611fe2565b50505050905090810190601f16801561202a5780820380516001836020036101000a031916815260200191505b50858103825286818151815260200191508051906020019080838360005b83811015612063578082015181840152602081019050612048565b50505050905090810190601f1680156120905780820380516001836020036101000a031916815260200191505b509e50505050505050505050505050505060405180910390a15b505050505050505050565b6120be3361157e565b15612427576040518060a001604052804281526020018263ffffffff168152602001438152602001600143034081526020013a815250600260003373ffffffffffffffffffffffffffffffffffffffff1673ffffffffffffffffffffffffffffffffffffffff1681526020019081526020016000206000820151816000015560208201518160010160006101000a81548163ffffffff021916908363ffffffff1602179055506040820151816002015560608201518160030155608082015181600401559050508063ffffffff16600360003373ffffffffffffffffffffffffffffffffffffffff1673ffffffffffffffffffffffffffffffffffffffff168152602001908152602001600020600082825401925050819055506001600460003373ffffffffffffffffffffffffffffffffffffffff1673ffffffffffffffffffffffffffffffffffffffff168152602001908152602001600020600001429080600181540180825580915050906001820390600052602060002001600090919290919091505550506001600460003373ffffffffffffffffffffffffffffffffffffffff1673ffffffffffffffffffffffffffffffffffffffff16815260200190815260200160002060010182908060018154018082558091505090600182039060005260206000209060089182820401919006600402909192909190916101000a81548163ffffffff021916908363ffffffff1602179055505050600460003373ffffffffffffffffffffffffffffffffffffffff1673ffffffffffffffffffffffffffffffffffffffff168152602001908152602001600020600201439080600181540180825580915050906001820390600052602060002001600090919290919091505550600460003373ffffffffffffffffffffffffffffffffffffffff1673ffffffffffffffffffffffffffffffffffffffff168152602001908152602001600020600301600143034090806001815401808255809150509060018203906000526020600020016000909192909190915055506001600460003373ffffffffffffffffffffffffffffffffffffffff1673ffffffffffffffffffffffffffffffffffffffff1681526020019081526020016000206004013a9080600181540180825580915050906001820390600052602060002001600090919290919091505550505b7fe347f86fcdca34abcd53a9182178f7819057387ce2d5b3ffae27cd924f02018d3342834360014303403a604051808773ffffffffffffffffffffffffffffffffffffffff1673ffffffffffffffffffffffffffffffffffffffff1681526020018681526020018563ffffffff1663ffffffff168152602001848152602001838152602001828152602001965050505050505060405180910390a150565b828054600181600116156101000203166002900490600052602060002090601f016020900481019282601f1061250657805160ff1916838001178555612534565b82800160010185558215612534579182015b82811115612533578251825591602001919060010190612518565b5b5090506125419190612545565b5090565b61256791905b8082111561256357600081600090555060010161254b565b5090565b9056fea265627a7a72315820ebb4a318f8f8ad9508f91270000234f1e6f4b72da023d6e0d35fe58bc8eee85d64736f6c63430005100032",
  "source": "pragma solidity >=0.4.16 <0.6.0;\n\ncontract EnergyProduction {\n    struct Producer {\n        string owner;\n        string deviceType;\n        uint32 peakPowerPos;\n        uint32 peakPowerNeg;\n        uint32 latitude;\n        uint32 longitude;\n        uint32 voltageLevel;\n        string location;\n        string installDate;\n    }\n\n    struct EnerProduction {\n        uint256 enerTime;\n        uint32 enerValue;\n        uint256 blockNumber;\n        bytes32 blockHash;\n        uint256 txGasPrice;\n    }\n\n    struct ProTransaction {\n        uint256[] txTime;\n        uint32[] txValue;\n        uint256[] blockNumber;\n        bytes32[] blockHash;\n        uint256[] txGasPrice;\n    }\n\n    event ProducerRegs(\n        address pvAddr,\n        string owner,\n        string deviceType,\n        uint32 peakPowerPos,\n        uint32 peakPowerNeg,\n        uint32 latitude,\n        uint32 longitude,\n        uint32 voltageLevel,\n        string location,\n        string installDate\n    );\n\n    event EnerProductionEvent(\n        address oliAddr,\n        uint256 eTime,\n        uint32 enerAmount\n    );\n\n    event ProTransactionEvent(\n        address oliAddr,\n        uint256 eTime,\n        uint32 enerAmount,\n        uint256 blockNumber,\n        bytes32 blockHash,\n        uint256 txGasPrice\n    );\n\n    mapping(address => Producer) producers;\n    mapping(address => uint256) accntIndexArr;\n    mapping(address => EnerProduction) enerProductions;\n    mapping(address => uint256) proBalance;\n    mapping(address => ProTransaction) transactions;\n\n    address[] public proAccntList;\n\n    constructor() public {\n        /**\n         * position 0 flag invalid address\n         * because if the address is not found in the list\n         * it will return 0 and 0 will also be returned\n         * for the first address in the array\n         * So we will always start our check from index 1 (>0)\n         */\n        proAccntList.push(address(0));\n    }\n\n    /*\n     * Registration\n     */\n\n    function setProducer(\n        string memory _owner,\n        string memory _deviceType,\n        uint32 _peakPowerPos,\n        uint32 _peakPowerNeg,\n        uint32 _latitude,\n        uint32 _longitude,\n        uint32 _voltageLevel,\n        string memory _location,\n        string memory _installDate\n    ) public {\n        if (!proAccntsArr(msg.sender)) {\n            // mapping address to index\n            accntIndexArr[msg.sender] = proAccntList.length;\n            producers[msg.sender] = Producer(\n                _owner,\n                _deviceType,\n                _peakPowerPos,\n                _peakPowerNeg,\n                _latitude,\n                _longitude,\n                _voltageLevel,\n                _location,\n                _installDate\n            );\n            proAccntList.push(msg.sender) - 1;\n            emit ProducerRegs(\n                msg.sender,\n                _owner,\n                _deviceType,\n                _peakPowerPos,\n                _peakPowerNeg,\n                _latitude,\n                _longitude,\n                _voltageLevel,\n                _location,\n                _installDate\n            );\n        }\n    }\n\n    // check if an address is already registered or not\n    function proAccntsArr(address producerAddr) public view returns (bool) {\n        if (producerAddr != address(0) && accntIndexArr[producerAddr] > 0) {\n            return true;\n        }\n        return false;\n    }\n\n    // getting registration details\n    function getProducer()\n        public\n        view\n        returns (\n            address,\n            string memory,\n            string memory,\n            uint32,\n            uint32,\n            uint32,\n            uint32,\n            uint32,\n            string memory,\n            string memory\n        )\n    {\n        return (\n            msg.sender,\n            producers[msg.sender].owner,\n            producers[msg.sender].deviceType,\n            producers[msg.sender].peakPowerPos,\n            producers[msg.sender].peakPowerNeg,\n            producers[msg.sender].latitude,\n            producers[msg.sender].longitude,\n            producers[msg.sender].voltageLevel,\n            producers[msg.sender].location,\n            producers[msg.sender].installDate\n        );\n    }\n\n    // get registation details for individual accounts\n    function getProAccntDetails(address _proAccntAddr)\n        public\n        view\n        returns (\n            string memory,\n            string memory,\n            uint32,\n            string memory,\n            uint32,\n            uint32,\n            string memory\n        )\n    {\n        return (\n            producers[_proAccntAddr].owner,\n            producers[_proAccntAddr].deviceType,\n            producers[_proAccntAddr].peakPowerPos,\n            producers[_proAccntAddr].location,\n            producers[_proAccntAddr].latitude,\n            producers[_proAccntAddr].longitude,\n            producers[_proAccntAddr].installDate\n        );\n    }\n\n    // producer accounts list\n    function getProAccntsList() public view returns (address[] memory) {\n        return proAccntList;\n    }\n\n    // count for producer accounts\n    function countProducers() public view returns (uint256) {\n        return proAccntList.length - 1;\n    }\n\n    /*\n     * Energy mapping setup\n     */\n\n    // getting energy time and amount\n    function setEnerProduction(uint32 _enerValue) public {\n        // check if producer already exist\n        if (proAccntsArr(msg.sender)) {\n            enerProductions[msg.sender] = EnerProduction(\n                now,\n                _enerValue,\n                block.number,\n                blockhash(block.number - 1),\n                tx.gasprice\n            );\n\n            // total energy balance\n            proBalance[msg.sender] += _enerValue;\n\n            // indidual accounts transaction history\n            transactions[msg.sender].txTime.push(now) - 1;\n            transactions[msg.sender].txValue.push(_enerValue) - 1;\n            transactions[msg.sender].blockNumber.push(block.number);\n            transactions[msg.sender].blockHash.push(\n                blockhash(block.number - 1)\n            );\n            transactions[msg.sender].txGasPrice.push(tx.gasprice) - 1;\n        }\n\n        // emit EnerProductionEvent(msg.sender, now, _enerValue);\n        emit ProTransactionEvent(\n            msg.sender,\n            now,\n            _enerValue,\n            block.number,\n            blockhash(block.number - 1),\n            tx.gasprice\n        );\n    }\n\n    function getEnerProduction()\n        public\n        view\n        returns (\n            address,\n            uint256,\n            uint32\n        )\n    {\n        return (\n            msg.sender,\n            enerProductions[msg.sender].enerTime,\n            enerProductions[msg.sender].enerValue\n        );\n    }\n\n    // getting energy production details for individual accounts\n\n    function getProEnerProduction(address _proAccntAddr)\n        public\n        view\n        returns (\n            address,\n            uint256[] memory,\n            uint32[] memory,\n            uint256[] memory,\n            bytes32[] memory,\n            uint256[] memory\n        )\n    {\n        return (\n            _proAccntAddr,\n            transactions[_proAccntAddr].txTime,\n            transactions[_proAccntAddr].txValue,\n            transactions[_proAccntAddr].blockNumber,\n            transactions[_proAccntAddr].blockHash,\n            transactions[_proAccntAddr].txGasPrice\n        );\n    }\n\n    // retrieving individula producer total amount of energy produced\n\n    function getProBalance(address _proAccntAddr)\n        public\n        view\n        returns (uint256)\n    {\n        return proBalance[_proAccntAddr];\n    }\n}\n",
  "sourcePath": "/home/yahya/Documents/GitHub/energy-browser/truffle/contracts/EnergyProduction.sol",
  "compiler": {
    "name": "solc",
    "version": "0.5.16+commit.9c3226ce.Emscripten.clang"
  },
  "schemaVersion": "3.3.2",
  "updatedAt": "2021-04-18T14:12:00.660Z",
  "networkType": "ethereum",
  "devdoc": {
    "methods": {}
  },
  "userdoc": {
    "methods": {}
  }
}