{
  "contractName": "EnergyConsumption",
  "abi": [
    {
      "inputs": [],
      "payable": false,
      "stateMutability": "nonpayable",
      "type": "constructor"
    },
    {
      "anonymous": false,
      "inputs": [
        {
          "indexed": false,
          "internalType": "address",
          "name": "oliAddr",
          "type": "address"
        },
        {
          "indexed": false,
          "internalType": "uint256",
          "name": "eTime",
          "type": "uint256"
        },
        {
          "indexed": false,
          "internalType": "uint32",
          "name": "enerAmount",
          "type": "uint32"
        },
        {
          "indexed": false,
          "internalType": "uint256",
          "name": "blockNumber",
          "type": "uint256"
        },
        {
          "indexed": false,
          "internalType": "bytes32",
          "name": "blockHash",
          "type": "bytes32"
        },
        {
          "indexed": false,
          "internalType": "uint256",
          "name": "txGasPrice",
          "type": "uint256"
        }
      ],
      "name": "ConsTransactionEvent",
      "type": "event"
    },
    {
      "anonymous": false,
      "inputs": [
        {
          "indexed": false,
          "internalType": "address",
          "name": "pvAddr",
          "type": "address"
        },
        {
          "indexed": false,
          "internalType": "string",
          "name": "owner",
          "type": "string"
        },
        {
          "indexed": false,
          "internalType": "string",
          "name": "deviceType",
          "type": "string"
        },
        {
          "indexed": false,
          "internalType": "uint32",
          "name": "peakPowerPos",
          "type": "uint32"
        },
        {
          "indexed": false,
          "internalType": "uint32",
          "name": "peakPowerNeg",
          "type": "uint32"
        },
        {
          "indexed": false,
          "internalType": "uint32",
          "name": "latitude",
          "type": "uint32"
        },
        {
          "indexed": false,
          "internalType": "uint32",
          "name": "longitude",
          "type": "uint32"
        },
        {
          "indexed": false,
          "internalType": "uint32",
          "name": "voltageLevel",
          "type": "uint32"
        },
        {
          "indexed": false,
          "internalType": "string",
          "name": "location",
          "type": "string"
        },
        {
          "indexed": false,
          "internalType": "string",
          "name": "installDate",
          "type": "string"
        }
      ],
      "name": "ConsumerRegs",
      "type": "event"
    },
    {
      "anonymous": false,
      "inputs": [
        {
          "indexed": false,
          "internalType": "address",
          "name": "oliAddr",
          "type": "address"
        },
        {
          "indexed": false,
          "internalType": "uint256",
          "name": "eTime",
          "type": "uint256"
        },
        {
          "indexed": false,
          "internalType": "uint32",
          "name": "enerAmount",
          "type": "uint32"
        }
      ],
      "name": "EnerConsumptionEvent",
      "type": "event"
    },
    {
      "constant": true,
      "inputs": [
        {
          "internalType": "uint256",
          "name": "",
          "type": "uint256"
        }
      ],
      "name": "consAccntList",
      "outputs": [
        {
          "internalType": "address",
          "name": "",
          "type": "address"
        }
      ],
      "payable": false,
      "stateMutability": "view",
      "type": "function"
    },
    {
      "constant": false,
      "inputs": [
        {
          "internalType": "string",
          "name": "_owner",
          "type": "string"
        },
        {
          "internalType": "string",
          "name": "_deviceType",
          "type": "string"
        },
        {
          "internalType": "uint32",
          "name": "_peakPowerPos",
          "type": "uint32"
        },
        {
          "internalType": "uint32",
          "name": "_peakPowerNeg",
          "type": "uint32"
        },
        {
          "internalType": "uint32",
          "name": "_latitude",
          "type": "uint32"
        },
        {
          "internalType": "uint32",
          "name": "_longitude",
          "type": "uint32"
        },
        {
          "internalType": "uint32",
          "name": "_voltageLevel",
          "type": "uint32"
        },
        {
          "internalType": "string",
          "name": "_location",
          "type": "string"
        },
        {
          "internalType": "string",
          "name": "_installDate",
          "type": "string"
        }
      ],
      "name": "setConsumer",
      "outputs": [],
      "payable": false,
      "stateMutability": "nonpayable",
      "type": "function"
    },
    {
      "constant": true,
      "inputs": [
        {
          "internalType": "address",
          "name": "consumerAddr",
          "type": "address"
        }
      ],
      "name": "consAccntsArr",
      "outputs": [
        {
          "internalType": "bool",
          "name": "",
          "type": "bool"
        }
      ],
      "payable": false,
      "stateMutability": "view",
      "type": "function"
    },
    {
      "constant": true,
      "inputs": [],
      "name": "getConsumer",
      "outputs": [
        {
          "internalType": "address",
          "name": "",
          "type": "address"
        },
        {
          "internalType": "string",
          "name": "",
          "type": "string"
        },
        {
          "internalType": "string",
          "name": "",
          "type": "string"
        },
        {
          "internalType": "uint32",
          "name": "",
          "type": "uint32"
        },
        {
          "internalType": "uint32",
          "name": "",
          "type": "uint32"
        },
        {
          "internalType": "uint32",
          "name": "",
          "type": "uint32"
        },
        {
          "internalType": "uint32",
          "name": "",
          "type": "uint32"
        },
        {
          "internalType": "uint32",
          "name": "",
          "type": "uint32"
        },
        {
          "internalType": "string",
          "name": "",
          "type": "string"
        },
        {
          "internalType": "string",
          "name": "",
          "type": "string"
        }
      ],
      "payable": false,
      "stateMutability": "view",
      "type": "function"
    },
    {
      "constant": true,
      "inputs": [
        {
          "internalType": "address",
          "name": "_consAccntAddr",
          "type": "address"
        }
      ],
      "name": "getConsAccntDetails",
      "outputs": [
        {
          "internalType": "string",
          "name": "",
          "type": "string"
        },
        {
          "internalType": "string",
          "name": "",
          "type": "string"
        },
        {
          "internalType": "uint32",
          "name": "",
          "type": "uint32"
        },
        {
          "internalType": "string",
          "name": "",
          "type": "string"
        },
        {
          "internalType": "uint32",
          "name": "",
          "type": "uint32"
        },
        {
          "internalType": "uint32",
          "name": "",
          "type": "uint32"
        },
        {
          "internalType": "string",
          "name": "",
          "type": "string"
        }
      ],
      "payable": false,
      "stateMutability": "view",
      "type": "function"
    },
    {
      "constant": true,
      "inputs": [],
      "name": "getConsAccntsList",
      "outputs": [
        {
          "internalType": "address[]",
          "name": "",
          "type": "address[]"
        }
      ],
      "payable": false,
      "stateMutability": "view",
      "type": "function"
    },
    {
      "constant": true,
      "inputs": [],
      "name": "countConsumers",
      "outputs": [
        {
          "internalType": "uint256",
          "name": "",
          "type": "uint256"
        }
      ],
      "payable": false,
      "stateMutability": "view",
      "type": "function"
    },
    {
      "constant": false,
      "inputs": [
        {
          "internalType": "uint32",
          "name": "_enerValue",
          "type": "uint32"
        }
      ],
      "name": "setEnerConsumption",
      "outputs": [],
      "payable": false,
      "stateMutability": "nonpayable",
      "type": "function"
    },
    {
      "constant": true,
      "inputs": [],
      "name": "getEnerConsumption",
      "outputs": [
        {
          "internalType": "address",
          "name": "",
          "type": "address"
        },
        {
          "internalType": "uint256",
          "name": "",
          "type": "uint256"
        },
        {
          "internalType": "uint32",
          "name": "",
          "type": "uint32"
        }
      ],
      "payable": false,
      "stateMutability": "view",
      "type": "function"
    },
    {
      "constant": true,
      "inputs": [
        {
          "internalType": "address",
          "name": "_consAccntAddr",
          "type": "address"
        }
      ],
      "name": "getConsEnerConsumption",
      "outputs": [
        {
          "internalType": "address",
          "name": "",
          "type": "address"
        },
        {
          "internalType": "uint256[]",
          "name": "",
          "type": "uint256[]"
        },
        {
          "internalType": "uint32[]",
          "name": "",
          "type": "uint32[]"
        },
        {
          "internalType": "uint256[]",
          "name": "",
          "type": "uint256[]"
        },
        {
          "internalType": "bytes32[]",
          "name": "",
          "type": "bytes32[]"
        },
        {
          "internalType": "uint256[]",
          "name": "",
          "type": "uint256[]"
        }
      ],
      "payable": false,
      "stateMutability": "view",
      "type": "function"
    },
    {
      "constant": true,
      "inputs": [
        {
          "internalType": "address",
          "name": "_consAccntAddr",
          "type": "address"
        }
      ],
      "name": "getConsBalance",
      "outputs": [
        {
          "internalType": "uint256",
          "name": "",
          "type": "uint256"
        }
      ],
      "payable": false,
      "stateMutability": "view",
      "type": "function"
    }
  ],
  "bytecode": "0x608060405234801561001057600080fd5b506005600090806001815401808255809150509060018203906000526020600020016000909192909190916101000a81548173ffffffffffffffffffffffffffffffffffffffff021916908373ffffffffffffffffffffffffffffffffffffffff1602179055505061259f806100876000396000f3fe608060405234801561001057600080fd5b50600436106100a95760003560e01c8063739ae78511610071578063739ae785146104945780637ed8917f146104b25780639926188f1461050a578063a64062fc1461053e578063b1b79dbf1461080f578063fd3c13ab14610a49576100a9565b806318cbdce3146100ae57806319bccb9c1461011c578063203aec331461017b57806324a0d6bc146101df5780636c07681f1461023b575b600080fd5b6100da600480360360208110156100c457600080fd5b8101908080359060200190929190505050610c35565b604051808273ffffffffffffffffffffffffffffffffffffffff1673ffffffffffffffffffffffffffffffffffffffff16815260200191505060405180910390f35b610124610c71565b6040518080602001828103825283818151815260200191508051906020019060200280838360005b8381101561016757808201518184015260208101905061014c565b505050509050019250505060405180910390f35b610183610cff565b604051808473ffffffffffffffffffffffffffffffffffffffff1673ffffffffffffffffffffffffffffffffffffffff1681526020018381526020018263ffffffff1663ffffffff168152602001935050505060405180910390f35b610221600480360360208110156101f557600080fd5b81019080803573ffffffffffffffffffffffffffffffffffffffff169060200190929190505050610da9565b604051808215151515815260200191505060405180910390f35b610243610e3e565b604051808b73ffffffffffffffffffffffffffffffffffffffff1673ffffffffffffffffffffffffffffffffffffffff16815260200180602001806020018a63ffffffff1663ffffffff1681526020018963ffffffff1663ffffffff1681526020018863ffffffff1663ffffffff1681526020018763ffffffff1663ffffffff1681526020018663ffffffff1663ffffffff168152602001806020018060200185810385528e818151815260200191508051906020019080838360005b8381101561031b578082015181840152602081019050610300565b50505050905090810190601f1680156103485780820380516001836020036101000a031916815260200191505b5085810384528d818151815260200191508051906020019080838360005b83811015610381578082015181840152602081019050610366565b50505050905090810190601f1680156103ae5780820380516001836020036101000a031916815260200191505b50858103835287818151815260200191508051906020019080838360005b838110156103e75780820151818401526020810190506103cc565b50505050905090810190601f1680156104145780820380516001836020036101000a031916815260200191505b50858103825286818151815260200191508051906020019080838360005b8381101561044d578082015181840152602081019050610432565b50505050905090810190601f16801561047a5780820380516001836020036101000a031916815260200191505b509e50505050505050505050505050505060405180910390f35b61049c611380565b6040518082815260200191505060405180910390f35b6104f4600480360360208110156104c857600080fd5b81019080803573ffffffffffffffffffffffffffffffffffffffff169060200190929190505050611390565b6040518082815260200191505060405180910390f35b61053c6004803603602081101561052057600080fd5b81019080803563ffffffff1690602001909291905050506113d9565b005b61080d600480360361012081101561055557600080fd5b810190808035906020019064010000000081111561057257600080fd5b82018360208201111561058457600080fd5b803590602001918460018302840111640100000000831117156105a657600080fd5b91908080601f016020809104026020016040519081016040528093929190818152602001838380828437600081840152601f19601f8201169050808301925050505050505091929192908035906020019064010000000081111561060957600080fd5b82018360208201111561061b57600080fd5b8035906020019184600183028401116401000000008311171561063d57600080fd5b91908080601f016020809104026020016040519081016040528093929190818152602001838380828437600081840152601f19601f820116905080830192505050505050509192919290803563ffffffff169060200190929190803563ffffffff169060200190929190803563ffffffff169060200190929190803563ffffffff169060200190929190803563ffffffff169060200190929190803590602001906401000000008111156106f057600080fd5b82018360208201111561070257600080fd5b8035906020019184600183028401116401000000008311171561072457600080fd5b91908080601f016020809104026020016040519081016040528093929190818152602001838380828437600081840152601f19601f8201169050808301925050505050505091929192908035906020019064010000000081111561078757600080fd5b82018360208201111561079957600080fd5b803590602001918460018302840111640100000000831117156107bb57600080fd5b91908080601f016020809104026020016040519081016040528093929190818152602001838380828437600081840152601f19601f8201169050808301925050505050505091929192905050506117e9565b005b6108516004803603602081101561082557600080fd5b81019080803573ffffffffffffffffffffffffffffffffffffffff169060200190929190505050611d06565b6040518080602001806020018863ffffffff1663ffffffff168152602001806020018763ffffffff1663ffffffff1681526020018663ffffffff1663ffffffff1681526020018060200185810385528c818151815260200191508051906020019080838360005b838110156108d35780820151818401526020810190506108b8565b50505050905090810190601f1680156109005780820380516001836020036101000a031916815260200191505b5085810384528b818151815260200191508051906020019080838360005b8381101561093957808201518184015260208101905061091e565b50505050905090810190601f1680156109665780820380516001836020036101000a031916815260200191505b50858103835289818151815260200191508051906020019080838360005b8381101561099f578082015181840152602081019050610984565b50505050905090810190601f1680156109cc5780820380516001836020036101000a031916815260200191505b50858103825286818151815260200191508051906020019080838360005b83811015610a055780820151818401526020810190506109ea565b50505050905090810190601f168015610a325780820380516001836020036101000a031916815260200191505b509b50505050505050505050505060405180910390f35b610a8b60048036036020811015610a5f57600080fd5b81019080803573ffffffffffffffffffffffffffffffffffffffff169060200190929190505050612195565b604051808773ffffffffffffffffffffffffffffffffffffffff1673ffffffffffffffffffffffffffffffffffffffff168152602001806020018060200180602001806020018060200186810386528b818151815260200191508051906020019060200280838360005b83811015610b10578082015181840152602081019050610af5565b5050505090500186810385528a818151815260200191508051906020019060200280838360005b83811015610b52578082015181840152602081019050610b37565b50505050905001868103845289818151815260200191508051906020019060200280838360005b83811015610b94578082015181840152602081019050610b79565b50505050905001868103835288818151815260200191508051906020019060200280838360005b83811015610bd6578082015181840152602081019050610bbb565b50505050905001868103825287818151815260200191508051906020019060200280838360005b83811015610c18578082015181840152602081019050610bfd565b505050509050019b50505050505050505050505060405180910390f35b60058181548110610c4257fe5b906000526020600020016000915054906101000a900473ffffffffffffffffffffffffffffffffffffffff1681565b60606005805480602002602001604051908101604052809291908181526020018280548015610cf557602002820191906000526020600020905b8160009054906101000a900473ffffffffffffffffffffffffffffffffffffffff1673ffffffffffffffffffffffffffffffffffffffff1681526020019060010190808311610cab575b5050505050905090565b600080600033600260003373ffffffffffffffffffffffffffffffffffffffff1673ffffffffffffffffffffffffffffffffffffffff16815260200190815260200160002060000154600260003373ffffffffffffffffffffffffffffffffffffffff1673ffffffffffffffffffffffffffffffffffffffff16815260200190815260200160002060010160009054906101000a900463ffffffff16829250925092509250909192565b60008073ffffffffffffffffffffffffffffffffffffffff168273ffffffffffffffffffffffffffffffffffffffff1614158015610e2657506000600160008473ffffffffffffffffffffffffffffffffffffffff1673ffffffffffffffffffffffffffffffffffffffff16815260200190815260200160002054115b15610e345760019050610e39565b600090505b919050565b60006060806000806000806000606080336000803373ffffffffffffffffffffffffffffffffffffffff1673ffffffffffffffffffffffffffffffffffffffff1681526020019081526020016000206000016000803373ffffffffffffffffffffffffffffffffffffffff1673ffffffffffffffffffffffffffffffffffffffff1681526020019081526020016000206001016000803373ffffffffffffffffffffffffffffffffffffffff1673ffffffffffffffffffffffffffffffffffffffff16815260200190815260200160002060020160009054906101000a900463ffffffff166000803373ffffffffffffffffffffffffffffffffffffffff1673ffffffffffffffffffffffffffffffffffffffff16815260200190815260200160002060020160049054906101000a900463ffffffff166000803373ffffffffffffffffffffffffffffffffffffffff1673ffffffffffffffffffffffffffffffffffffffff16815260200190815260200160002060020160089054906101000a900463ffffffff166000803373ffffffffffffffffffffffffffffffffffffffff1673ffffffffffffffffffffffffffffffffffffffff168152602001908152602001600020600201600c9054906101000a900463ffffffff166000803373ffffffffffffffffffffffffffffffffffffffff1673ffffffffffffffffffffffffffffffffffffffff16815260200190815260200160002060020160109054906101000a900463ffffffff166000803373ffffffffffffffffffffffffffffffffffffffff1673ffffffffffffffffffffffffffffffffffffffff1681526020019081526020016000206003016000803373ffffffffffffffffffffffffffffffffffffffff1673ffffffffffffffffffffffffffffffffffffffff168152602001908152602001600020600401899950888054600181600116156101000203166002900480601f0160208091040260200160405190810160405280929190818152602001828054600181600116156101000203166002900480156111855780601f1061115a57610100808354040283529160200191611185565b820191906000526020600020905b81548152906001019060200180831161116857829003601f168201915b50505050509850878054600181600116156101000203166002900480601f0160208091040260200160405190810160405280929190818152602001828054600181600116156101000203166002900480156112215780601f106111f657610100808354040283529160200191611221565b820191906000526020600020905b81548152906001019060200180831161120457829003601f168201915b50505050509750818054600181600116156101000203166002900480601f0160208091040260200160405190810160405280929190818152602001828054600181600116156101000203166002900480156112bd5780601f10611292576101008083540402835291602001916112bd565b820191906000526020600020905b8154815290600101906020018083116112a057829003601f168201915b50505050509150808054600181600116156101000203166002900480601f0160208091040260200160405190810160405280929190818152602001828054600181600116156101000203166002900480156113595780601f1061132e57610100808354040283529160200191611359565b820191906000526020600020905b81548152906001019060200180831161133c57829003601f168201915b50505050509050995099509950995099509950995099509950995090919293949596979899565b6000600160058054905003905090565b6000600360008373ffffffffffffffffffffffffffffffffffffffff1673ffffffffffffffffffffffffffffffffffffffff168152602001908152602001600020549050919050565b6113e233610da9565b1561174b576040518060a001604052804281526020018263ffffffff168152602001438152602001600143034081526020013a815250600260003373ffffffffffffffffffffffffffffffffffffffff1673ffffffffffffffffffffffffffffffffffffffff1681526020019081526020016000206000820151816000015560208201518160010160006101000a81548163ffffffff021916908363ffffffff1602179055506040820151816002015560608201518160030155608082015181600401559050508063ffffffff16600360003373ffffffffffffffffffffffffffffffffffffffff1673ffffffffffffffffffffffffffffffffffffffff168152602001908152602001600020600082825401925050819055506001600460003373ffffffffffffffffffffffffffffffffffffffff1673ffffffffffffffffffffffffffffffffffffffff168152602001908152602001600020600001429080600181540180825580915050906001820390600052602060002001600090919290919091505550506001600460003373ffffffffffffffffffffffffffffffffffffffff1673ffffffffffffffffffffffffffffffffffffffff16815260200190815260200160002060010182908060018154018082558091505090600182039060005260206000209060089182820401919006600402909192909190916101000a81548163ffffffff021916908363ffffffff1602179055505050600460003373ffffffffffffffffffffffffffffffffffffffff1673ffffffffffffffffffffffffffffffffffffffff168152602001908152602001600020600201439080600181540180825580915050906001820390600052602060002001600090919290919091505550600460003373ffffffffffffffffffffffffffffffffffffffff1673ffffffffffffffffffffffffffffffffffffffff168152602001908152602001600020600301600143034090806001815401808255809150509060018203906000526020600020016000909192909190915055506001600460003373ffffffffffffffffffffffffffffffffffffffff1673ffffffffffffffffffffffffffffffffffffffff1681526020019081526020016000206004013a9080600181540180825580915050906001820390600052602060002001600090919290919091505550505b7f4178216373414aaa2ddc57647bea611333a1935e70d67456a8c0bdcefee958db3342834360014303403a604051808773ffffffffffffffffffffffffffffffffffffffff1673ffffffffffffffffffffffffffffffffffffffff1681526020018681526020018563ffffffff1663ffffffff168152602001848152602001838152602001828152602001965050505050505060405180910390a150565b6117f233610da9565b611cfb57600580549050600160003373ffffffffffffffffffffffffffffffffffffffff1673ffffffffffffffffffffffffffffffffffffffff168152602001908152602001600020819055506040518061012001604052808a81526020018981526020018863ffffffff1681526020018763ffffffff1681526020018663ffffffff1681526020018563ffffffff1681526020018463ffffffff168152602001838152602001828152506000803373ffffffffffffffffffffffffffffffffffffffff1673ffffffffffffffffffffffffffffffffffffffff16815260200190815260200160002060008201518160000190805190602001906118f79291906124c5565b5060208201518160010190805190602001906119149291906124c5565b5060408201518160020160006101000a81548163ffffffff021916908363ffffffff16021790555060608201518160020160046101000a81548163ffffffff021916908363ffffffff16021790555060808201518160020160086101000a81548163ffffffff021916908363ffffffff16021790555060a082015181600201600c6101000a81548163ffffffff021916908363ffffffff16021790555060c08201518160020160106101000a81548163ffffffff021916908363ffffffff16021790555060e08201518160030190805190602001906119f49291906124c5565b50610100820151816004019080519060200190611a129291906124c5565b50905050600160053390806001815401808255809150509060018203906000526020600020016000909192909190916101000a81548173ffffffffffffffffffffffffffffffffffffffff021916908373ffffffffffffffffffffffffffffffffffffffff16021790555050507f71537b70bbd67fee09ad13f9c4280471a83004e2e7d0a3f0a9817677cd1cffd5338a8a8a8a8a8a8a8a8a604051808b73ffffffffffffffffffffffffffffffffffffffff1673ffffffffffffffffffffffffffffffffffffffff16815260200180602001806020018a63ffffffff1663ffffffff1681526020018963ffffffff1663ffffffff1681526020018863ffffffff1663ffffffff1681526020018763ffffffff1663ffffffff1681526020018663ffffffff1663ffffffff168152602001806020018060200185810385528e818151815260200191508051906020019080838360005b83811015611b82578082015181840152602081019050611b67565b50505050905090810190601f168015611baf5780820380516001836020036101000a031916815260200191505b5085810384528d818151815260200191508051906020019080838360005b83811015611be8578082015181840152602081019050611bcd565b50505050905090810190601f168015611c155780820380516001836020036101000a031916815260200191505b50858103835287818151815260200191508051906020019080838360005b83811015611c4e578082015181840152602081019050611c33565b50505050905090810190601f168015611c7b5780820380516001836020036101000a031916815260200191505b50858103825286818151815260200191508051906020019080838360005b83811015611cb4578082015181840152602081019050611c99565b50505050905090810190601f168015611ce15780820380516001836020036101000a031916815260200191505b509e50505050505050505050505050505060405180910390a15b505050505050505050565b6060806000606060008060606000808973ffffffffffffffffffffffffffffffffffffffff1673ffffffffffffffffffffffffffffffffffffffff1681526020019081526020016000206000016000808a73ffffffffffffffffffffffffffffffffffffffff1673ffffffffffffffffffffffffffffffffffffffff1681526020019081526020016000206001016000808b73ffffffffffffffffffffffffffffffffffffffff1673ffffffffffffffffffffffffffffffffffffffff16815260200190815260200160002060020160009054906101000a900463ffffffff166000808c73ffffffffffffffffffffffffffffffffffffffff1673ffffffffffffffffffffffffffffffffffffffff1681526020019081526020016000206003016000808d73ffffffffffffffffffffffffffffffffffffffff1673ffffffffffffffffffffffffffffffffffffffff16815260200190815260200160002060020160089054906101000a900463ffffffff166000808e73ffffffffffffffffffffffffffffffffffffffff1673ffffffffffffffffffffffffffffffffffffffff168152602001908152602001600020600201600c9054906101000a900463ffffffff166000808f73ffffffffffffffffffffffffffffffffffffffff1673ffffffffffffffffffffffffffffffffffffffff168152602001908152602001600020600401868054600181600116156101000203166002900480601f016020809104026020016040519081016040528092919081815260200182805460018160011615610100020316600290048015611fa15780601f10611f7657610100808354040283529160200191611fa1565b820191906000526020600020905b815481529060010190602001808311611f8457829003601f168201915b50505050509650858054600181600116156101000203166002900480601f01602080910402602001604051908101604052809291908181526020018280546001816001161561010002031660029004801561203d5780601f106120125761010080835404028352916020019161203d565b820191906000526020600020905b81548152906001019060200180831161202057829003601f168201915b50505050509550838054600181600116156101000203166002900480601f0160208091040260200160405190810160405280929190818152602001828054600181600116156101000203166002900480156120d95780601f106120ae576101008083540402835291602001916120d9565b820191906000526020600020905b8154815290600101906020018083116120bc57829003601f168201915b50505050509350808054600181600116156101000203166002900480601f0160208091040260200160405190810160405280929190818152602001828054600181600116156101000203166002900480156121755780601f1061214a57610100808354040283529160200191612175565b820191906000526020600020905b81548152906001019060200180831161215857829003601f168201915b505050505090509650965096509650965096509650919395979092949650565b6000606080606080606086600460008973ffffffffffffffffffffffffffffffffffffffff1673ffffffffffffffffffffffffffffffffffffffff168152602001908152602001600020600001600460008a73ffffffffffffffffffffffffffffffffffffffff1673ffffffffffffffffffffffffffffffffffffffff168152602001908152602001600020600101600460008b73ffffffffffffffffffffffffffffffffffffffff1673ffffffffffffffffffffffffffffffffffffffff168152602001908152602001600020600201600460008c73ffffffffffffffffffffffffffffffffffffffff1673ffffffffffffffffffffffffffffffffffffffff168152602001908152602001600020600301600460008d73ffffffffffffffffffffffffffffffffffffffff1673ffffffffffffffffffffffffffffffffffffffff1681526020019081526020016000206004018480548060200260200160405190810160405280929190818152602001828054801561233557602002820191906000526020600020905b815481526020019060010190808311612321575b50505050509450838054806020026020016040519081016040528092919081815260200182805480156123b357602002820191906000526020600020906000905b82829054906101000a900463ffffffff1663ffffffff16815260200190600401906020826003010492830192600103820291508084116123765790505b505050505093508280548060200260200160405190810160405280929190818152602001828054801561240557602002820191906000526020600020905b8154815260200190600101908083116123f1575b505050505092508180548060200260200160405190810160405280929190818152602001828054801561245757602002820191906000526020600020905b815481526020019060010190808311612443575b50505050509150808054806020026020016040519081016040528092919081815260200182805480156124a957602002820191906000526020600020905b815481526020019060010190808311612495575b5050505050905095509550955095509550955091939550919395565b828054600181600116156101000203166002900490600052602060002090601f016020900481019282601f1061250657805160ff1916838001178555612534565b82800160010185558215612534579182015b82811115612533578251825591602001919060010190612518565b5b5090506125419190612545565b5090565b61256791905b8082111561256357600081600090555060010161254b565b5090565b9056fea265627a7a723158209b3b14fe671a45a92801dce89415d969244d83d28135d6178c0bb707192ac57e64736f6c63430005100032",
  "source": "pragma solidity >=0.4.16 <0.6.0;\n\ncontract EnergyConsumption {\n    struct Consumer {\n        string owner;\n        string deviceType;\n        uint32 peakPowerPos;\n        uint32 peakPowerNeg;\n        uint32 latitude;\n        uint32 longitude;\n        uint32 voltageLevel;\n        string location;\n        string installDate;\n    }\n\n    struct EnerConsumption {\n        uint256 enerTime;\n        uint32 enerValue;\n        uint256 blockNumber;\n        bytes32 blockHash;\n        uint256 txGasPrice;\n    }\n\n    struct ConsTransaction {\n        uint256[] txTime;\n        uint32[] txValue;\n        uint256[] blockNumber;\n        bytes32[] blockHash;\n        uint256[] txGasPrice;\n    }\n\n    event ConsumerRegs(\n        address pvAddr,\n        string owner,\n        string deviceType,\n        uint32 peakPowerPos,\n        uint32 peakPowerNeg,\n        uint32 latitude,\n        uint32 longitude,\n        uint32 voltageLevel,\n        string location,\n        string installDate\n    );\n\n    event EnerConsumptionEvent(\n        address oliAddr,\n        uint256 eTime,\n        uint32 enerAmount\n    );\n\n    event ConsTransactionEvent(\n        address oliAddr,\n        uint256 eTime,\n        uint32 enerAmount,\n        uint256 blockNumber,\n        bytes32 blockHash,\n        uint256 txGasPrice\n    );\n\n    mapping(address => Consumer) consumers;\n    mapping(address => uint256) accntIndexArr;\n    mapping(address => EnerConsumption) enerConsumptions;\n    mapping(address => uint256) consBalance;\n    mapping(address => ConsTransaction) transactions;\n\n    address[] public consAccntList;\n\n    constructor() public {\n        /**\n         * position 0 flag invalid address\n         * because if the address is not found in the list\n         * it will return 0 and 0 will also be returned\n         * for the first address in the array\n         * So we will always start our check from index 1 (>0)\n         */\n        consAccntList.push(address(0));\n    }\n\n    /*\n     * Registration\n     */\n\n    function setConsumer(\n        string memory _owner,\n        string memory _deviceType,\n        uint32 _peakPowerPos,\n        uint32 _peakPowerNeg,\n        uint32 _latitude,\n        uint32 _longitude,\n        uint32 _voltageLevel,\n        string memory _location,\n        string memory _installDate\n    ) public {\n        if (!consAccntsArr(msg.sender)) {\n            // mapping address to index\n            accntIndexArr[msg.sender] = consAccntList.length;\n            consumers[msg.sender] = Consumer(\n                _owner,\n                _deviceType,\n                _peakPowerPos,\n                _peakPowerNeg,\n                _latitude,\n                _longitude,\n                _voltageLevel,\n                _location,\n                _installDate\n            );\n            consAccntList.push(msg.sender) - 1;\n            emit ConsumerRegs(\n                msg.sender,\n                _owner,\n                _deviceType,\n                _peakPowerPos,\n                _peakPowerNeg,\n                _latitude,\n                _longitude,\n                _voltageLevel,\n                _location,\n                _installDate\n            );\n        }\n    }\n\n    // check if an address is already registered or not\n    function consAccntsArr(address consumerAddr) public view returns (bool) {\n        if (consumerAddr != address(0) && accntIndexArr[consumerAddr] > 0) {\n            return true;\n        }\n        return false;\n    }\n\n    // getting registration details\n    function getConsumer()\n        public\n        view\n        returns (\n            address,\n            string memory,\n            string memory,\n            uint32,\n            uint32,\n            uint32,\n            uint32,\n            uint32,\n            string memory,\n            string memory\n        )\n    {\n        return (\n            msg.sender,\n            consumers[msg.sender].owner,\n            consumers[msg.sender].deviceType,\n            consumers[msg.sender].peakPowerPos,\n            consumers[msg.sender].peakPowerNeg,\n            consumers[msg.sender].latitude,\n            consumers[msg.sender].longitude,\n            consumers[msg.sender].voltageLevel,\n            consumers[msg.sender].location,\n            consumers[msg.sender].installDate\n        );\n    }\n\n    // get registation details for individual accounts\n    function getConsAccntDetails(address _consAccntAddr)\n        public\n        view\n        returns (\n            string memory,\n            string memory,\n            uint32,\n            string memory,\n            uint32,\n            uint32,\n            string memory\n        )\n    {\n        return (\n            consumers[_consAccntAddr].owner,\n            consumers[_consAccntAddr].deviceType,\n            consumers[_consAccntAddr].peakPowerPos,\n            consumers[_consAccntAddr].location,\n            consumers[_consAccntAddr].latitude,\n            consumers[_consAccntAddr].longitude,\n            consumers[_consAccntAddr].installDate\n        );\n    }\n\n    // consumer accounts list\n    function getConsAccntsList() public view returns (address[] memory) {\n        return consAccntList;\n    }\n\n    // count for consumer accounts\n    function countConsumers() public view returns (uint256) {\n        return consAccntList.length - 1;\n    }\n\n    /*\n     * Energy mapping setup\n     */\n\n    // getting energy time and amount\n    function setEnerConsumption(uint32 _enerValue) public {\n        // check if consumer already exist\n        if (consAccntsArr(msg.sender)) {\n            enerConsumptions[msg.sender] = EnerConsumption(\n                now,\n                _enerValue,\n                block.number,\n                blockhash(block.number - 1),\n                tx.gasprice\n            );\n\n            // total energy balance\n            consBalance[msg.sender] += _enerValue;\n\n            // indidual accounts transaction history\n            transactions[msg.sender].txTime.push(now) - 1;\n            transactions[msg.sender].txValue.push(_enerValue) - 1;\n            transactions[msg.sender].blockNumber.push(block.number);\n            transactions[msg.sender].blockHash.push(\n                blockhash(block.number - 1)\n            );\n            transactions[msg.sender].txGasPrice.push(tx.gasprice) - 1;\n        }\n\n        emit ConsTransactionEvent(\n            msg.sender,\n            now,\n            _enerValue,\n            block.number,\n            blockhash(block.number - 1),\n            tx.gasprice\n        );\n    }\n\n    function getEnerConsumption()\n        public\n        view\n        returns (\n            address,\n            uint256,\n            uint32\n        )\n    {\n        return (\n            msg.sender,\n            enerConsumptions[msg.sender].enerTime,\n            enerConsumptions[msg.sender].enerValue\n        );\n    }\n\n    // getting energy consumption details for individual accounts\n\n    function getConsEnerConsumption(address _consAccntAddr)\n        public\n        view\n        returns (\n            address,\n            uint256[] memory,\n            uint32[] memory,\n            uint256[] memory,\n            bytes32[] memory,\n            uint256[] memory\n        )\n    {\n        return (\n            _consAccntAddr,\n            transactions[_consAccntAddr].txTime,\n            transactions[_consAccntAddr].txValue,\n            transactions[_consAccntAddr].blockNumber,\n            transactions[_consAccntAddr].blockHash,\n            transactions[_consAccntAddr].txGasPrice\n        );\n    }\n\n    // retrieving individula consumer total amount of energy consumed\n\n    function getConsBalance(address _consAccntAddr)\n        public\n        view\n        returns (uint256)\n    {\n        return consBalance[_consAccntAddr];\n    }\n}\n",
  "sourcePath": "/home/yahya/Documents/GitHub/energy-browser/truffle/contracts/EnergyConsumption.sol",
  "compiler": {
    "name": "solc",
    "version": "0.5.16+commit.9c3226ce.Emscripten.clang"
  },
  "schemaVersion": "3.3.2",
  "updatedAt": "2021-04-18T14:12:15.356Z",
  "networkType": "ethereum",
  "devdoc": {
    "methods": {}
  },
  "userdoc": {
    "methods": {}
  }
}