{
  "contractName": "OliCoin",
  "abi": [
    {
      "constant": true,
      "inputs": [],
      "name": "totalEnergyProduced",
      "outputs": [
        {
          "name": "",
          "type": "uint256"
        }
      ],
      "payable": false,
      "stateMutability": "view",
      "type": "function"
    },
    {
      "constant": true,
      "inputs": [],
      "name": "name",
      "outputs": [
        {
          "name": "",
          "type": "string"
        }
      ],
      "payable": false,
      "stateMutability": "view",
      "type": "function"
    },
    {
      "constant": true,
      "inputs": [],
      "name": "totalTokenSupply",
      "outputs": [
        {
          "name": "",
          "type": "uint256"
        }
      ],
      "payable": false,
      "stateMutability": "view",
      "type": "function"
    },
    {
      "constant": true,
      "inputs": [],
      "name": "decimals",
      "outputs": [
        {
          "name": "",
          "type": "uint8"
        }
      ],
      "payable": false,
      "stateMutability": "view",
      "type": "function"
    },
    {
      "constant": true,
      "inputs": [],
      "name": "totalMintedCoins",
      "outputs": [
        {
          "name": "",
          "type": "uint256"
        }
      ],
      "payable": false,
      "stateMutability": "view",
      "type": "function"
    },
    {
      "constant": true,
      "inputs": [],
      "name": "symbol",
      "outputs": [
        {
          "name": "",
          "type": "string"
        }
      ],
      "payable": false,
      "stateMutability": "view",
      "type": "function"
    },
    {
      "constant": true,
      "inputs": [
        {
          "name": "",
          "type": "uint256"
        }
      ],
      "name": "producerAccountsList",
      "outputs": [
        {
          "name": "",
          "type": "address"
        }
      ],
      "payable": false,
      "stateMutability": "view",
      "type": "function"
    },
    {
      "inputs": [],
      "payable": false,
      "stateMutability": "nonpayable",
      "type": "constructor"
    },
    {
      "anonymous": false,
      "inputs": [
        {
          "indexed": false,
          "name": "pvAddr",
          "type": "address"
        },
        {
          "indexed": false,
          "name": "owner",
          "type": "string"
        },
        {
          "indexed": false,
          "name": "deviceType",
          "type": "string"
        },
        {
          "indexed": false,
          "name": "peakPowerPos",
          "type": "uint32"
        },
        {
          "indexed": false,
          "name": "peakPowerNeg",
          "type": "uint32"
        },
        {
          "indexed": false,
          "name": "latitude",
          "type": "uint32"
        },
        {
          "indexed": false,
          "name": "longitude",
          "type": "uint32"
        },
        {
          "indexed": false,
          "name": "voltageLevel",
          "type": "uint32"
        },
        {
          "indexed": false,
          "name": "location",
          "type": "string"
        },
        {
          "indexed": false,
          "name": "installDate",
          "type": "string"
        }
      ],
      "name": "ProducerRegistrationEvent",
      "type": "event"
    },
    {
      "anonymous": false,
      "inputs": [
        {
          "indexed": false,
          "name": "oliAddr",
          "type": "address"
        },
        {
          "indexed": false,
          "name": "eTime",
          "type": "uint256"
        },
        {
          "indexed": false,
          "name": "enerAmount",
          "type": "uint32"
        }
      ],
      "name": "EnergyProductionEvent",
      "type": "event"
    },
    {
      "anonymous": false,
      "inputs": [
        {
          "indexed": false,
          "name": "totalMintedTokens",
          "type": "uint256"
        }
      ],
      "name": "TotalMintedTokens",
      "type": "event"
    },
    {
      "anonymous": false,
      "inputs": [
        {
          "indexed": false,
          "name": "totalEnergy",
          "type": "uint256"
        }
      ],
      "name": "TotalEnergyEvent",
      "type": "event"
    },
    {
      "anonymous": false,
      "inputs": [
        {
          "indexed": true,
          "name": "_from",
          "type": "address"
        },
        {
          "indexed": true,
          "name": "_to",
          "type": "address"
        },
        {
          "indexed": false,
          "name": "_tokens",
          "type": "uint256"
        }
      ],
      "name": "Transfer",
      "type": "event"
    },
    {
      "anonymous": false,
      "inputs": [
        {
          "indexed": true,
          "name": "_tokenOwner",
          "type": "address"
        },
        {
          "indexed": true,
          "name": "_spender",
          "type": "address"
        },
        {
          "indexed": false,
          "name": "_tokens",
          "type": "uint256"
        }
      ],
      "name": "Approval",
      "type": "event"
    },
    {
      "constant": true,
      "inputs": [],
      "name": "getTotalSupply",
      "outputs": [
        {
          "name": "",
          "type": "uint256"
        }
      ],
      "payable": false,
      "stateMutability": "view",
      "type": "function"
    },
    {
      "constant": false,
      "inputs": [
        {
          "name": "_to",
          "type": "address"
        },
        {
          "name": "_tokens",
          "type": "uint256"
        }
      ],
      "name": "transfer",
      "outputs": [
        {
          "name": "",
          "type": "bool"
        }
      ],
      "payable": false,
      "stateMutability": "nonpayable",
      "type": "function"
    },
    {
      "constant": true,
      "inputs": [
        {
          "name": "_tokenOwner",
          "type": "address"
        }
      ],
      "name": "balanceOf",
      "outputs": [
        {
          "name": "_tokens",
          "type": "uint256"
        }
      ],
      "payable": false,
      "stateMutability": "view",
      "type": "function"
    },
    {
      "constant": false,
      "inputs": [
        {
          "name": "_spender",
          "type": "address"
        },
        {
          "name": "_tokens",
          "type": "uint256"
        }
      ],
      "name": "approve",
      "outputs": [
        {
          "name": "success",
          "type": "bool"
        }
      ],
      "payable": false,
      "stateMutability": "nonpayable",
      "type": "function"
    },
    {
      "constant": true,
      "inputs": [
        {
          "name": "_tokenOwner",
          "type": "address"
        },
        {
          "name": "_spender",
          "type": "address"
        }
      ],
      "name": "allowance",
      "outputs": [
        {
          "name": "remaining",
          "type": "uint256"
        }
      ],
      "payable": false,
      "stateMutability": "view",
      "type": "function"
    },
    {
      "constant": false,
      "inputs": [
        {
          "name": "_from",
          "type": "address"
        },
        {
          "name": "_to",
          "type": "address"
        },
        {
          "name": "_tokens",
          "type": "uint256"
        }
      ],
      "name": "transferFrom",
      "outputs": [
        {
          "name": "success",
          "type": "bool"
        }
      ],
      "payable": false,
      "stateMutability": "nonpayable",
      "type": "function"
    },
    {
      "constant": false,
      "inputs": [
        {
          "name": "_owner",
          "type": "string"
        },
        {
          "name": "_deviceType",
          "type": "string"
        },
        {
          "name": "_peakPowerPos",
          "type": "uint32"
        },
        {
          "name": "_peakPowerNeg",
          "type": "uint32"
        },
        {
          "name": "_latitude",
          "type": "uint32"
        },
        {
          "name": "_longitude",
          "type": "uint32"
        },
        {
          "name": "_voltageLevel",
          "type": "uint32"
        },
        {
          "name": "_location",
          "type": "string"
        },
        {
          "name": "_installDate",
          "type": "string"
        }
      ],
      "name": "setProducer",
      "outputs": [],
      "payable": false,
      "stateMutability": "nonpayable",
      "type": "function"
    },
    {
      "constant": true,
      "inputs": [
        {
          "name": "_producerAddress",
          "type": "address"
        }
      ],
      "name": "checkProducerRegistration",
      "outputs": [
        {
          "name": "",
          "type": "bool"
        }
      ],
      "payable": false,
      "stateMutability": "view",
      "type": "function"
    },
    {
      "constant": true,
      "inputs": [
        {
          "name": "_producerAddress",
          "type": "address"
        }
      ],
      "name": "getProducerAccountDetails",
      "outputs": [
        {
          "name": "",
          "type": "string"
        },
        {
          "name": "",
          "type": "string"
        },
        {
          "name": "",
          "type": "uint32"
        },
        {
          "name": "",
          "type": "string"
        },
        {
          "name": "",
          "type": "uint32"
        },
        {
          "name": "",
          "type": "uint32"
        },
        {
          "name": "",
          "type": "string"
        }
      ],
      "payable": false,
      "stateMutability": "view",
      "type": "function"
    },
    {
      "constant": true,
      "inputs": [],
      "name": "getProducerAccountsList",
      "outputs": [
        {
          "name": "",
          "type": "address[]"
        }
      ],
      "payable": false,
      "stateMutability": "view",
      "type": "function"
    },
    {
      "constant": false,
      "inputs": [
        {
          "name": "_energyValue",
          "type": "uint32"
        }
      ],
      "name": "setEnergyProduction",
      "outputs": [],
      "payable": false,
      "stateMutability": "nonpayable",
      "type": "function"
    },
    {
      "constant": true,
      "inputs": [
        {
          "name": "_proAccntAddr",
          "type": "address"
        }
      ],
      "name": "getProducerEnergyBalance",
      "outputs": [
        {
          "name": "",
          "type": "uint256"
        }
      ],
      "payable": false,
      "stateMutability": "view",
      "type": "function"
    },
    {
      "constant": false,
      "inputs": [
        {
          "name": "_energyValue",
          "type": "uint32"
        }
      ],
      "name": "mintToken",
      "outputs": [],
      "payable": false,
      "stateMutability": "nonpayable",
      "type": "function"
    }
  ],
  "bytecode": "0x608060405234801561001057600080fd5b50633b9aca0060008190555061237c8061002b6000396000f3fe608060405234801561001057600080fd5b506004361061012c5760003560e01c806370a08231116100ad578063c8f863ec11610071578063c8f863ec146107ca578063ccbb0b7a146107fe578063dd62ed3e1461086c578063e1a9249c146108e4578063fd09ee7814610bb55761012c565b806370a082311461043157806395d89b411461048957806396eac8781461050c578063a9059cbb14610746578063c4e41b22146107ac5761012c565b80631ca8b6cb116100f45780631ca8b6cb146102ec57806323b872dd1461030a578063313ce567146103905780633d16d5ff146103b45780636b696620146104135761012c565b806301b218c81461013157806306fdde031461014f578063095ea7b3146101d25780630bd87911146102385780631c35fb5f14610294575b600080fd5b610139610be9565b6040518082815260200191505060405180910390f35b610157610bef565b6040518080602001828103825283818151815260200191508051906020019080838360005b8381101561019757808201518184015260208101905061017c565b50505050905090810190601f1680156101c45780820380516001836020036101000a031916815260200191505b509250505060405180910390f35b61021e600480360360408110156101e857600080fd5b81019080803573ffffffffffffffffffffffffffffffffffffffff16906020019092919080359060200190929190505050610c28565b604051808215151515815260200191505060405180910390f35b61027a6004803603602081101561024e57600080fd5b81019080803573ffffffffffffffffffffffffffffffffffffffff169060200190929190505050610d71565b604051808215151515815260200191505060405180910390f35b6102d6600480360360208110156102aa57600080fd5b81019080803573ffffffffffffffffffffffffffffffffffffffff169060200190929190505050610dcd565b6040518082815260200191505060405180910390f35b6102f4610e16565b6040518082815260200191505060405180910390f35b6103766004803603606081101561032057600080fd5b81019080803573ffffffffffffffffffffffffffffffffffffffff169060200190929190803573ffffffffffffffffffffffffffffffffffffffff16906020019092919080359060200190929190505050610e1c565b604051808215151515815260200191505060405180910390f35b6103986111a6565b604051808260ff1660ff16815260200191505060405180910390f35b6103bc6111ab565b6040518080602001828103825283818151815260200191508051906020019060200280838360005b838110156103ff5780820151818401526020810190506103e4565b505050509050019250505060405180910390f35b61041b611239565b6040518082815260200191505060405180910390f35b6104736004803603602081101561044757600080fd5b81019080803573ffffffffffffffffffffffffffffffffffffffff16906020019092919050505061123f565b6040518082815260200191505060405180910390f35b610491611288565b6040518080602001828103825283818151815260200191508051906020019080838360005b838110156104d15780820151818401526020810190506104b6565b50505050905090810190601f1680156104fe5780820380516001836020036101000a031916815260200191505b509250505060405180910390f35b61054e6004803603602081101561052257600080fd5b81019080803573ffffffffffffffffffffffffffffffffffffffff1690602001909291905050506112c1565b6040518080602001806020018863ffffffff1663ffffffff168152602001806020018763ffffffff1663ffffffff1681526020018663ffffffff1663ffffffff1681526020018060200185810385528c818151815260200191508051906020019080838360005b838110156105d05780820151818401526020810190506105b5565b50505050905090810190601f1680156105fd5780820380516001836020036101000a031916815260200191505b5085810384528b818151815260200191508051906020019080838360005b8381101561063657808201518184015260208101905061061b565b50505050905090810190601f1680156106635780820380516001836020036101000a031916815260200191505b50858103835289818151815260200191508051906020019080838360005b8381101561069c578082015181840152602081019050610681565b50505050905090810190601f1680156106c95780820380516001836020036101000a031916815260200191505b50858103825286818151815260200191508051906020019080838360005b838110156107025780820151818401526020810190506106e7565b50505050905090810190601f16801561072f5780820380516001836020036101000a031916815260200191505b509b50505050505050505050505060405180910390f35b6107926004803603604081101561075c57600080fd5b81019080803573ffffffffffffffffffffffffffffffffffffffff16906020019092919080359060200190929190505050611757565b604051808215151515815260200191505060405180910390f35b6107b461194a565b6040518082815260200191505060405180910390f35b6107fc600480360360208110156107e057600080fd5b81019080803563ffffffff169060200190929190505050611953565b005b61082a6004803603602081101561081457600080fd5b8101908080359060200190929190505050611a4b565b604051808273ffffffffffffffffffffffffffffffffffffffff1673ffffffffffffffffffffffffffffffffffffffff16815260200191505060405180910390f35b6108ce6004803603604081101561088257600080fd5b81019080803573ffffffffffffffffffffffffffffffffffffffff169060200190929190803573ffffffffffffffffffffffffffffffffffffffff169060200190929190505050611a87565b6040518082815260200191505060405180910390f35b610bb360048036036101208110156108fb57600080fd5b810190808035906020019064010000000081111561091857600080fd5b82018360208201111561092a57600080fd5b8035906020019184600183028401116401000000008311171561094c57600080fd5b91908080601f016020809104026020016040519081016040528093929190818152602001838380828437600081840152601f19601f820116905080830192505050505050509192919290803590602001906401000000008111156109af57600080fd5b8201836020820111156109c157600080fd5b803590602001918460018302840111640100000000831117156109e357600080fd5b91908080601f016020809104026020016040519081016040528093929190818152602001838380828437600081840152601f19601f820116905080830192505050505050509192919290803563ffffffff169060200190929190803563ffffffff169060200190929190803563ffffffff169060200190929190803563ffffffff169060200190929190803563ffffffff16906020019092919080359060200190640100000000811115610a9657600080fd5b820183602082011115610aa857600080fd5b80359060200191846001830284011164010000000083111715610aca57600080fd5b91908080601f016020809104026020016040519081016040528093929190818152602001838380828437600081840152601f19601f82011690508083019250505050505050919291929080359060200190640100000000811115610b2d57600080fd5b820183602082011115610b3f57600080fd5b80359060200191846001830284011164010000000083111715610b6157600080fd5b91908080601f016020809104026020016040519081016040528093929190818152602001838380828437600081840152601f19601f820116905080830192505050505050509192919290505050611b0e565b005b610be760048036036020811015610bcb57600080fd5b81019080803563ffffffff169060200190929190505050612029565b005b60085481565b6040518060400160405280600881526020017f4f6c6920436f696e00000000000000000000000000000000000000000000000081525081565b60008082118015610c7857506000600160003373ffffffffffffffffffffffffffffffffffffffff1673ffffffffffffffffffffffffffffffffffffffff16815260200190815260200160002054115b610c8157600080fd5b81600260003373ffffffffffffffffffffffffffffffffffffffff1673ffffffffffffffffffffffffffffffffffffffff16815260200190815260200160002060008573ffffffffffffffffffffffffffffffffffffffff1673ffffffffffffffffffffffffffffffffffffffff168152602001908152602001600020819055508273ffffffffffffffffffffffffffffffffffffffff163373ffffffffffffffffffffffffffffffffffffffff167f8c5be1e5ebec7d5bd14f71427d1e84f3dd0314c0f7b2291e5b200ac8c7c3b925846040518082815260200191505060405180910390a36001905092915050565b600080600460008473ffffffffffffffffffffffffffffffffffffffff1673ffffffffffffffffffffffffffffffffffffffff168152602001908152602001600020541115610dc35760019050610dc8565b600090505b919050565b6000600660008373ffffffffffffffffffffffffffffffffffffffff1673ffffffffffffffffffffffffffffffffffffffff168152602001908152602001600020549050919050565b60005481565b60008082118015610e6c575081600160008673ffffffffffffffffffffffffffffffffffffffff1673ffffffffffffffffffffffffffffffffffffffff1681526020019081526020016000205410155b8015610ef4575081600260008673ffffffffffffffffffffffffffffffffffffffff1673ffffffffffffffffffffffffffffffffffffffff16815260200190815260200160002060003373ffffffffffffffffffffffffffffffffffffffff1673ffffffffffffffffffffffffffffffffffffffff1681526020019081526020016000205410155b610efd57600080fd5b610f4f82600160008773ffffffffffffffffffffffffffffffffffffffff1673ffffffffffffffffffffffffffffffffffffffff1681526020019081526020016000205461227a90919063ffffffff16565b600160008673ffffffffffffffffffffffffffffffffffffffff1673ffffffffffffffffffffffffffffffffffffffff16815260200190815260200160002081905550610fe482600160008673ffffffffffffffffffffffffffffffffffffffff1673ffffffffffffffffffffffffffffffffffffffff1681526020019081526020016000205461229190919063ffffffff16565b600160008573ffffffffffffffffffffffffffffffffffffffff1673ffffffffffffffffffffffffffffffffffffffff168152602001908152602001600020819055506110b682600260008773ffffffffffffffffffffffffffffffffffffffff1673ffffffffffffffffffffffffffffffffffffffff16815260200190815260200160002060003373ffffffffffffffffffffffffffffffffffffffff1673ffffffffffffffffffffffffffffffffffffffff1681526020019081526020016000205461227a90919063ffffffff16565b600260008673ffffffffffffffffffffffffffffffffffffffff1673ffffffffffffffffffffffffffffffffffffffff16815260200190815260200160002060003373ffffffffffffffffffffffffffffffffffffffff1673ffffffffffffffffffffffffffffffffffffffff168152602001908152602001600020819055508273ffffffffffffffffffffffffffffffffffffffff168473ffffffffffffffffffffffffffffffffffffffff167fddf252ad1be2c89b69c2b068fc378daa952ba7f163c4a11628f55a4df523b3ef846040518082815260200191505060405180910390a3600190509392505050565b600281565b6060600780548060200260200160405190810160405280929190818152602001828054801561122f57602002820191906000526020600020905b8160009054906101000a900473ffffffffffffffffffffffffffffffffffffffff1673ffffffffffffffffffffffffffffffffffffffff16815260200190600101908083116111e5575b5050505050905090565b60095481565b6000600160008373ffffffffffffffffffffffffffffffffffffffff1673ffffffffffffffffffffffffffffffffffffffff168152602001908152602001600020549050919050565b6040518060400160405280600381526020017f4f4c43000000000000000000000000000000000000000000000000000000000081525081565b606080600060606000806060600360008973ffffffffffffffffffffffffffffffffffffffff1673ffffffffffffffffffffffffffffffffffffffff168152602001908152602001600020600001600360008a73ffffffffffffffffffffffffffffffffffffffff1673ffffffffffffffffffffffffffffffffffffffff168152602001908152602001600020600101600360008b73ffffffffffffffffffffffffffffffffffffffff1673ffffffffffffffffffffffffffffffffffffffff16815260200190815260200160002060020160009054906101000a900463ffffffff16600360008c73ffffffffffffffffffffffffffffffffffffffff1673ffffffffffffffffffffffffffffffffffffffff168152602001908152602001600020600301600360008d73ffffffffffffffffffffffffffffffffffffffff1673ffffffffffffffffffffffffffffffffffffffff16815260200190815260200160002060020160089054906101000a900463ffffffff16600360008e73ffffffffffffffffffffffffffffffffffffffff1673ffffffffffffffffffffffffffffffffffffffff168152602001908152602001600020600201600c9054906101000a900463ffffffff16600360008f73ffffffffffffffffffffffffffffffffffffffff1673ffffffffffffffffffffffffffffffffffffffff168152602001908152602001600020600401868054600181600116156101000203166002900480601f0160208091040260200160405190810160405280929190818152602001828054600181600116156101000203166002900480156115635780601f1061153857610100808354040283529160200191611563565b820191906000526020600020905b81548152906001019060200180831161154657829003601f168201915b50505050509650858054600181600116156101000203166002900480601f0160208091040260200160405190810160405280929190818152602001828054600181600116156101000203166002900480156115ff5780601f106115d4576101008083540402835291602001916115ff565b820191906000526020600020905b8154815290600101906020018083116115e257829003601f168201915b50505050509550838054600181600116156101000203166002900480601f01602080910402602001604051908101604052809291908181526020018280546001816001161561010002031660029004801561169b5780601f106116705761010080835404028352916020019161169b565b820191906000526020600020905b81548152906001019060200180831161167e57829003601f168201915b50505050509350808054600181600116156101000203166002900480601f0160208091040260200160405190810160405280929190818152602001828054600181600116156101000203166002900480156117375780601f1061170c57610100808354040283529160200191611737565b820191906000526020600020905b81548152906001019060200180831161171a57829003601f168201915b505050505090509650965096509650965096509650919395979092949650565b600081600160003373ffffffffffffffffffffffffffffffffffffffff1673ffffffffffffffffffffffffffffffffffffffff16815260200190815260200160002054101580156117a85750600082115b6117b157600080fd5b61180382600160003373ffffffffffffffffffffffffffffffffffffffff1673ffffffffffffffffffffffffffffffffffffffff1681526020019081526020016000205461227a90919063ffffffff16565b600160003373ffffffffffffffffffffffffffffffffffffffff1673ffffffffffffffffffffffffffffffffffffffff1681526020019081526020016000208190555061189882600160008673ffffffffffffffffffffffffffffffffffffffff1673ffffffffffffffffffffffffffffffffffffffff1681526020019081526020016000205461229190919063ffffffff16565b600160008573ffffffffffffffffffffffffffffffffffffffff1673ffffffffffffffffffffffffffffffffffffffff168152602001908152602001600020819055508273ffffffffffffffffffffffffffffffffffffffff163373ffffffffffffffffffffffffffffffffffffffff167fddf252ad1be2c89b69c2b068fc378daa952ba7f163c4a11628f55a4df523b3ef846040518082815260200191505060405180910390a36001905092915050565b60008054905090565b6119ab8163ffffffff16600160003373ffffffffffffffffffffffffffffffffffffffff1673ffffffffffffffffffffffffffffffffffffffff1681526020019081526020016000205461229190919063ffffffff16565b600160003373ffffffffffffffffffffffffffffffffffffffff1673ffffffffffffffffffffffffffffffffffffffff16815260200190815260200160002081905550611a098163ffffffff1660095461229190919063ffffffff16565b6009819055507fb93801bc342defb23a24195b78c7145529c52c24ffbda2cfe3be3e8168d0a2af6009546040518082815260200191505060405180910390a150565b60078181548110611a5857fe5b906000526020600020016000915054906101000a900473ffffffffffffffffffffffffffffffffffffffff1681565b6000600260008473ffffffffffffffffffffffffffffffffffffffff1673ffffffffffffffffffffffffffffffffffffffff16815260200190815260200160002060008373ffffffffffffffffffffffffffffffffffffffff1673ffffffffffffffffffffffffffffffffffffffff16815260200190815260200160002054905092915050565b611b1733610d71565b61201e57600780549050600460003373ffffffffffffffffffffffffffffffffffffffff1673ffffffffffffffffffffffffffffffffffffffff168152602001908152602001600020819055506040518061012001604052808a81526020018981526020018863ffffffff1681526020018763ffffffff1681526020018663ffffffff1681526020018563ffffffff1681526020018463ffffffff16815260200183815260200182815250600360003373ffffffffffffffffffffffffffffffffffffffff1673ffffffffffffffffffffffffffffffffffffffff1681526020019081526020016000206000820151816000019080519060200190611c1d9291906122ab565b506020820151816001019080519060200190611c3a9291906122ab565b5060408201518160020160006101000a81548163ffffffff021916908363ffffffff16021790555060608201518160020160046101000a81548163ffffffff021916908363ffffffff16021790555060808201518160020160086101000a81548163ffffffff021916908363ffffffff16021790555060a082015181600201600c6101000a81548163ffffffff021916908363ffffffff16021790555060c08201518160020160106101000a81548163ffffffff021916908363ffffffff16021790555060e0820151816003019080519060200190611d1a9291906122ab565b50610100820151816004019080519060200190611d389291906122ab565b5090505060073390806001815401808255809150509060018203906000526020600020016000909192909190916101000a81548173ffffffffffffffffffffffffffffffffffffffff021916908373ffffffffffffffffffffffffffffffffffffffff160217905550507f169d64aff14044ca4323ed48b3d638e84ea04927facc8699c9186391eaa6076d338a8a8a8a8a8a8a8a8a604051808b73ffffffffffffffffffffffffffffffffffffffff1673ffffffffffffffffffffffffffffffffffffffff16815260200180602001806020018a63ffffffff1663ffffffff1681526020018963ffffffff1663ffffffff1681526020018863ffffffff1663ffffffff1681526020018763ffffffff1663ffffffff1681526020018663ffffffff1663ffffffff168152602001806020018060200185810385528e818151815260200191508051906020019080838360005b83811015611ea5578082015181840152602081019050611e8a565b50505050905090810190601f168015611ed25780820380516001836020036101000a031916815260200191505b5085810384528d818151815260200191508051906020019080838360005b83811015611f0b578082015181840152602081019050611ef0565b50505050905090810190601f168015611f385780820380516001836020036101000a031916815260200191505b50858103835287818151815260200191508051906020019080838360005b83811015611f71578082015181840152602081019050611f56565b50505050905090810190601f168015611f9e5780820380516001836020036101000a031916815260200191505b50858103825286818151815260200191508051906020019080838360005b83811015611fd7578082015181840152602081019050611fbc565b50505050905090810190601f1680156120045780820380516001836020036101000a031916815260200191505b509e50505050505050505050505050505060405180910390a15b505050505050505050565b61203233610d71565b15612277576040518060a001604052804281526020018263ffffffff168152602001438152602001600143034081526020013a815250600560003373ffffffffffffffffffffffffffffffffffffffff1673ffffffffffffffffffffffffffffffffffffffff1681526020019081526020016000206000820151816000015560208201518160010160006101000a81548163ffffffff021916908363ffffffff1602179055506040820151816002015560608201518160030155608082015181600401559050506121518163ffffffff16600660003373ffffffffffffffffffffffffffffffffffffffff1673ffffffffffffffffffffffffffffffffffffffff1681526020019081526020016000205461229190919063ffffffff16565b600660003373ffffffffffffffffffffffffffffffffffffffff1673ffffffffffffffffffffffffffffffffffffffff168152602001908152602001600020819055506121af8163ffffffff1660085461229190919063ffffffff16565b6008819055507fabe7121b7c5173e0739d7adad113e1e94c7728ab426b447dfca495b554a12997334283604051808473ffffffffffffffffffffffffffffffffffffffff1673ffffffffffffffffffffffffffffffffffffffff1681526020018381526020018263ffffffff1663ffffffff168152602001935050505060405180910390a17f7fb996afddf24957276fc4eea470c9450c47a21fb8a617d34e8b32904df10ec96008546040518082815260200191505060405180910390a161227681611953565b5b50565b60008282111561228657fe5b818303905092915050565b60008183019050828110156122a257fe5b80905092915050565b828054600181600116156101000203166002900490600052602060002090601f016020900481019282601f106122ec57805160ff191683800117855561231a565b8280016001018555821561231a579182015b828111156123195782518255916020019190600101906122fe565b5b509050612327919061232b565b5090565b61234d91905b80821115612349576000816000905550600101612331565b5090565b9056fea165627a7a723058200babe81f257c325eba134867227231a6e0e1c5921dbdbd5abae82ec4187e1f330029",
  "source": "pragma solidity >=0.4.16 <0.6.0;\n\nimport \"./IERC20.sol\";\nimport \"./SafeMath.sol\";\n\ncontract OliCoin is IERC20 {\n\n    using SafeMath for uint;\n    uint256 public totalTokenSupply;\n\n    // 1. declaring the meta information for the coin\n    string public constant name = 'Oli Coin';\n    string public constant symbol = 'OLC';\n\n    /*\n     * E.g. decimals = 2, value 100 => 1.00\n     * E.g. decimals = 1, value 100 => 10.0\n     */\n    uint8 public constant decimals = 2;\n\n    // 2. mapping \n    mapping(address => uint256) private balances;\n    mapping(address => mapping(address => uint256)) private allowances;\n\n    /* custom functions stuff */\n    struct Producer {\n        string owner;\n        string deviceType;\n        uint32 peakPowerPos;\n        uint32 peakPowerNeg;\n        uint32 latitude;\n        uint32 longitude;\n        uint32 voltageLevel;\n        string location;\n        string installDate;\n    }\n\n    struct EnergyProduction {\n        uint enerTime;\n        uint32 enerValue;\n        uint blockNumber;\n        bytes32 blockHash;\n        uint txGasPrice;\n    }\n\n    event ProducerRegistrationEvent (address pvAddr, string owner, string deviceType, uint32 peakPowerPos, uint32 peakPowerNeg, uint32 latitude, uint32 longitude, uint32 voltageLevel, string location, string installDate);\n    event EnergyProductionEvent (address oliAddr, uint256 eTime, uint32 enerAmount);\n    event TotalMintedTokens (uint256 totalMintedTokens);\n    event TotalEnergyEvent (uint256 totalEnergy);\n\n    mapping(address => Producer) producers;\n    mapping(address => uint) accountIndexArray;\n    mapping(address => EnergyProduction) energyProductions;\n    mapping(address => uint) producerEnergyBalance;\n\n    address[] public producerAccountsList;\n    uint256 public totalEnergyProduced;\n    uint256 public totalMintedCoins;\n\n    constructor() public{\n        totalTokenSupply = 1000000000;\n    }\n\n    // get total token supply \n    function getTotalSupply() public view returns (uint256){\n        return totalTokenSupply;\n    }\n\n    // transfer tokens function\n    function transfer(address _to, uint256 _tokens) public returns (bool) {\n        // check if sender has enough token to transfer\n        require(balances[msg.sender] >= _tokens && _tokens > 0);\n\n        balances[msg.sender] = balances[msg.sender].sub(_tokens);\n        balances[_to] = balances[_to].add(_tokens);\n\n        emit Transfer(msg.sender, _to, _tokens);\n        return true;\n    }\n\n    // checking out the balances\n    function balanceOf(address _tokenOwner) public view returns (uint256 _tokens) {\n        return balances[_tokenOwner];\n    }\n\n    // approve spender to spend tokens\n    function approve(address _spender, uint256 _tokens) public returns (bool success) {\n        require(_tokens > 0\n            && balances[msg.sender] > 0);\n\n        allowances[msg.sender][_spender] = _tokens;\n        emit Approval(msg.sender, _spender, _tokens);\n        return true;\n    }\n\n    // checking the amount of allowed tokens\n    function allowance(address _tokenOwner, address _spender) public view returns (uint remaining) {\n        return allowances[_tokenOwner][_spender];\n    }\n\n    // spending allowed tokens on behalf of owner\n    function transferFrom(address _from, address _to, uint256 _tokens) public returns (bool success) {\n        require(_tokens > 0\n        && balances[_from] >= _tokens\n            && allowances[_from][msg.sender] >= _tokens);\n\n        balances[_from] = balances[_from].sub(_tokens);\n        balances[_to] = balances[_to].add(_tokens);\n\n        allowances[_from][msg.sender] = allowances[_from][msg.sender].sub(_tokens);\n        emit Transfer(_from, _to, _tokens);\n        return true;\n    }\n\n    // custom functions\n    function setProducer(string memory _owner, string memory _deviceType, uint32 _peakPowerPos, uint32 _peakPowerNeg, uint32 _latitude, uint32 _longitude, uint32 _voltageLevel, string memory _location, string memory _installDate) public {\n        if (!checkProducerRegistration(msg.sender)) {\n            // mapping address to index\n            accountIndexArray[msg.sender] = producerAccountsList.length;\n            producers[msg.sender] = Producer(_owner, _deviceType, _peakPowerPos, _peakPowerNeg, _latitude, _longitude, _voltageLevel, _location, _installDate);\n            producerAccountsList.push(msg.sender);\n            emit ProducerRegistrationEvent(msg.sender, _owner, _deviceType, _peakPowerPos, _peakPowerNeg, _latitude, _longitude, _voltageLevel, _location, _installDate);\n        }\n    }\n\n    // check producer registration\n    function checkProducerRegistration(address _producerAddress) public view returns (bool) {\n        if (accountIndexArray[_producerAddress] > 0) {\n            return true;\n        }\n        return false;\n    }\n\n    // get registration details for individual producer\n    function getProducerAccountDetails(address _producerAddress) public view returns (string memory, string memory, uint32, string memory, uint32, uint32, string memory) {\n        return (producers[_producerAddress].owner, producers[_producerAddress].deviceType, producers[_producerAddress].peakPowerPos, producers[_producerAddress].location, producers[_producerAddress].latitude, producers[_producerAddress].longitude, producers[_producerAddress].installDate);\n    }\n\n    // get producer accounts list\n    function getProducerAccountsList() public view returns (address[] memory) {\n        return producerAccountsList;\n    }\n\n    /*\n     * energy mapping setup\n     */\n\n    function setEnergyProduction(uint32 _energyValue) public {\n        // check producer registration\n        if (checkProducerRegistration(msg.sender)) {\n            energyProductions[msg.sender] = EnergyProduction(now, _energyValue, block.number, blockhash(block.number - 1), tx.gasprice);\n\n            // energy balance\n            producerEnergyBalance[msg.sender] = producerEnergyBalance[msg.sender].add(_energyValue);\n            totalEnergyProduced = totalEnergyProduced.add(_energyValue);\n\n            emit EnergyProductionEvent(msg.sender, now, _energyValue);\n            emit TotalEnergyEvent(totalEnergyProduced);\n\n            // minting tokens\n            mintToken(_energyValue);\n        }\n    }\n\n    // retrieving individula producer total amount of energy produced\n    function getProducerEnergyBalance(address _proAccntAddr) public view returns (uint) {\n        return (producerEnergyBalance[_proAccntAddr]);\n    }\n\n    // minting new coins\n    function mintToken(uint32 _energyValue) public {\n        balances[msg.sender] = balances[msg.sender].add(_energyValue);\n        totalMintedCoins = totalMintedCoins.add(_energyValue);\n\n        emit TotalMintedTokens(totalMintedCoins);\n    }\n\n}",
  "sourcePath": "/home/yahya/Documents/GitHub/energy-browser/contracts/OliCoin.sol",
  "compiler": {
    "name": "solc",
    "version": "0.5.8+commit.23d335f2.Emscripten.clang"
  },
  "schemaVersion": "3.0.16",
  "updatedAt": "2020-04-06T10:48:25.963Z",
  "devdoc": {
    "methods": {}
  },
  "userdoc": {
    "methods": {}
  }
}