{
  "contractName": "OliCoin",
  "abi": [
    {
      "inputs": [],
      "payable": false,
      "stateMutability": "nonpayable",
      "type": "constructor"
    },
    {
      "anonymous": false,
      "inputs": [
        {
          "indexed": true,
          "internalType": "address",
          "name": "_tokenOwner",
          "type": "address"
        },
        {
          "indexed": true,
          "internalType": "address",
          "name": "_spender",
          "type": "address"
        },
        {
          "indexed": false,
          "internalType": "uint256",
          "name": "_tokens",
          "type": "uint256"
        }
      ],
      "name": "Approval",
      "type": "event"
    },
    {
      "anonymous": false,
      "inputs": [
        {
          "indexed": false,
          "internalType": "address",
          "name": "oliAddr",
          "type": "address"
        },
        {
          "indexed": false,
          "internalType": "uint256",
          "name": "eTime",
          "type": "uint256"
        },
        {
          "indexed": false,
          "internalType": "uint32",
          "name": "enerAmount",
          "type": "uint32"
        }
      ],
      "name": "EnergyProductionEvent",
      "type": "event"
    },
    {
      "anonymous": false,
      "inputs": [
        {
          "indexed": false,
          "internalType": "address",
          "name": "pvAddr",
          "type": "address"
        },
        {
          "indexed": false,
          "internalType": "string",
          "name": "owner",
          "type": "string"
        },
        {
          "indexed": false,
          "internalType": "string",
          "name": "deviceType",
          "type": "string"
        },
        {
          "indexed": false,
          "internalType": "uint32",
          "name": "peakPowerPos",
          "type": "uint32"
        },
        {
          "indexed": false,
          "internalType": "uint32",
          "name": "peakPowerNeg",
          "type": "uint32"
        },
        {
          "indexed": false,
          "internalType": "uint32",
          "name": "latitude",
          "type": "uint32"
        },
        {
          "indexed": false,
          "internalType": "uint32",
          "name": "longitude",
          "type": "uint32"
        },
        {
          "indexed": false,
          "internalType": "uint32",
          "name": "voltageLevel",
          "type": "uint32"
        },
        {
          "indexed": false,
          "internalType": "string",
          "name": "location",
          "type": "string"
        },
        {
          "indexed": false,
          "internalType": "string",
          "name": "installDate",
          "type": "string"
        }
      ],
      "name": "ProducerRegistrationEvent",
      "type": "event"
    },
    {
      "anonymous": false,
      "inputs": [
        {
          "indexed": false,
          "internalType": "uint256",
          "name": "totalEnergy",
          "type": "uint256"
        }
      ],
      "name": "TotalEnergyEvent",
      "type": "event"
    },
    {
      "anonymous": false,
      "inputs": [
        {
          "indexed": false,
          "internalType": "uint256",
          "name": "totalMintedTokens",
          "type": "uint256"
        }
      ],
      "name": "TotalMintedTokens",
      "type": "event"
    },
    {
      "anonymous": false,
      "inputs": [
        {
          "indexed": true,
          "internalType": "address",
          "name": "_from",
          "type": "address"
        },
        {
          "indexed": true,
          "internalType": "address",
          "name": "_to",
          "type": "address"
        },
        {
          "indexed": false,
          "internalType": "uint256",
          "name": "_tokens",
          "type": "uint256"
        }
      ],
      "name": "Transfer",
      "type": "event"
    },
    {
      "constant": true,
      "inputs": [],
      "name": "decimals",
      "outputs": [
        {
          "internalType": "uint8",
          "name": "",
          "type": "uint8"
        }
      ],
      "payable": false,
      "stateMutability": "view",
      "type": "function"
    },
    {
      "constant": true,
      "inputs": [],
      "name": "name",
      "outputs": [
        {
          "internalType": "string",
          "name": "",
          "type": "string"
        }
      ],
      "payable": false,
      "stateMutability": "view",
      "type": "function"
    },
    {
      "constant": true,
      "inputs": [
        {
          "internalType": "uint256",
          "name": "",
          "type": "uint256"
        }
      ],
      "name": "producerAccountsList",
      "outputs": [
        {
          "internalType": "address",
          "name": "",
          "type": "address"
        }
      ],
      "payable": false,
      "stateMutability": "view",
      "type": "function"
    },
    {
      "constant": true,
      "inputs": [],
      "name": "symbol",
      "outputs": [
        {
          "internalType": "string",
          "name": "",
          "type": "string"
        }
      ],
      "payable": false,
      "stateMutability": "view",
      "type": "function"
    },
    {
      "constant": true,
      "inputs": [],
      "name": "totalEnergyProduced",
      "outputs": [
        {
          "internalType": "uint256",
          "name": "",
          "type": "uint256"
        }
      ],
      "payable": false,
      "stateMutability": "view",
      "type": "function"
    },
    {
      "constant": true,
      "inputs": [],
      "name": "totalMintedCoins",
      "outputs": [
        {
          "internalType": "uint256",
          "name": "",
          "type": "uint256"
        }
      ],
      "payable": false,
      "stateMutability": "view",
      "type": "function"
    },
    {
      "constant": true,
      "inputs": [],
      "name": "totalTokenSupply",
      "outputs": [
        {
          "internalType": "uint256",
          "name": "",
          "type": "uint256"
        }
      ],
      "payable": false,
      "stateMutability": "view",
      "type": "function"
    },
    {
      "constant": true,
      "inputs": [],
      "name": "getTotalSupply",
      "outputs": [
        {
          "internalType": "uint256",
          "name": "",
          "type": "uint256"
        }
      ],
      "payable": false,
      "stateMutability": "view",
      "type": "function"
    },
    {
      "constant": false,
      "inputs": [
        {
          "internalType": "address",
          "name": "_to",
          "type": "address"
        },
        {
          "internalType": "uint256",
          "name": "_tokens",
          "type": "uint256"
        }
      ],
      "name": "transfer",
      "outputs": [
        {
          "internalType": "bool",
          "name": "",
          "type": "bool"
        }
      ],
      "payable": false,
      "stateMutability": "nonpayable",
      "type": "function"
    },
    {
      "constant": true,
      "inputs": [
        {
          "internalType": "address",
          "name": "_tokenOwner",
          "type": "address"
        }
      ],
      "name": "balanceOf",
      "outputs": [
        {
          "internalType": "uint256",
          "name": "_tokens",
          "type": "uint256"
        }
      ],
      "payable": false,
      "stateMutability": "view",
      "type": "function"
    },
    {
      "constant": false,
      "inputs": [
        {
          "internalType": "address",
          "name": "_spender",
          "type": "address"
        },
        {
          "internalType": "uint256",
          "name": "_tokens",
          "type": "uint256"
        }
      ],
      "name": "approve",
      "outputs": [
        {
          "internalType": "bool",
          "name": "success",
          "type": "bool"
        }
      ],
      "payable": false,
      "stateMutability": "nonpayable",
      "type": "function"
    },
    {
      "constant": true,
      "inputs": [
        {
          "internalType": "address",
          "name": "_tokenOwner",
          "type": "address"
        },
        {
          "internalType": "address",
          "name": "_spender",
          "type": "address"
        }
      ],
      "name": "allowance",
      "outputs": [
        {
          "internalType": "uint256",
          "name": "remaining",
          "type": "uint256"
        }
      ],
      "payable": false,
      "stateMutability": "view",
      "type": "function"
    },
    {
      "constant": false,
      "inputs": [
        {
          "internalType": "address",
          "name": "_from",
          "type": "address"
        },
        {
          "internalType": "address",
          "name": "_to",
          "type": "address"
        },
        {
          "internalType": "uint256",
          "name": "_tokens",
          "type": "uint256"
        }
      ],
      "name": "transferFrom",
      "outputs": [
        {
          "internalType": "bool",
          "name": "success",
          "type": "bool"
        }
      ],
      "payable": false,
      "stateMutability": "nonpayable",
      "type": "function"
    },
    {
      "constant": false,
      "inputs": [
        {
          "internalType": "string",
          "name": "_owner",
          "type": "string"
        },
        {
          "internalType": "string",
          "name": "_deviceType",
          "type": "string"
        },
        {
          "internalType": "uint32",
          "name": "_peakPowerPos",
          "type": "uint32"
        },
        {
          "internalType": "uint32",
          "name": "_peakPowerNeg",
          "type": "uint32"
        },
        {
          "internalType": "uint32",
          "name": "_latitude",
          "type": "uint32"
        },
        {
          "internalType": "uint32",
          "name": "_longitude",
          "type": "uint32"
        },
        {
          "internalType": "uint32",
          "name": "_voltageLevel",
          "type": "uint32"
        },
        {
          "internalType": "string",
          "name": "_location",
          "type": "string"
        },
        {
          "internalType": "string",
          "name": "_installDate",
          "type": "string"
        }
      ],
      "name": "setProducer",
      "outputs": [],
      "payable": false,
      "stateMutability": "nonpayable",
      "type": "function"
    },
    {
      "constant": true,
      "inputs": [
        {
          "internalType": "address",
          "name": "_producerAddress",
          "type": "address"
        }
      ],
      "name": "checkProducerRegistration",
      "outputs": [
        {
          "internalType": "bool",
          "name": "",
          "type": "bool"
        }
      ],
      "payable": false,
      "stateMutability": "view",
      "type": "function"
    },
    {
      "constant": true,
      "inputs": [
        {
          "internalType": "address",
          "name": "_producerAddress",
          "type": "address"
        }
      ],
      "name": "getProducerAccountDetails",
      "outputs": [
        {
          "internalType": "string",
          "name": "",
          "type": "string"
        },
        {
          "internalType": "string",
          "name": "",
          "type": "string"
        },
        {
          "internalType": "uint32",
          "name": "",
          "type": "uint32"
        },
        {
          "internalType": "string",
          "name": "",
          "type": "string"
        },
        {
          "internalType": "uint32",
          "name": "",
          "type": "uint32"
        },
        {
          "internalType": "uint32",
          "name": "",
          "type": "uint32"
        },
        {
          "internalType": "string",
          "name": "",
          "type": "string"
        }
      ],
      "payable": false,
      "stateMutability": "view",
      "type": "function"
    },
    {
      "constant": true,
      "inputs": [],
      "name": "getProducerAccountsList",
      "outputs": [
        {
          "internalType": "address[]",
          "name": "",
          "type": "address[]"
        }
      ],
      "payable": false,
      "stateMutability": "view",
      "type": "function"
    },
    {
      "constant": false,
      "inputs": [
        {
          "internalType": "uint32",
          "name": "_energyValue",
          "type": "uint32"
        }
      ],
      "name": "setEnergyProduction",
      "outputs": [],
      "payable": false,
      "stateMutability": "nonpayable",
      "type": "function"
    },
    {
      "constant": true,
      "inputs": [
        {
          "internalType": "address",
          "name": "_proAccntAddr",
          "type": "address"
        }
      ],
      "name": "getProducerEnergyBalance",
      "outputs": [
        {
          "internalType": "uint256",
          "name": "",
          "type": "uint256"
        }
      ],
      "payable": false,
      "stateMutability": "view",
      "type": "function"
    },
    {
      "constant": false,
      "inputs": [
        {
          "internalType": "uint32",
          "name": "_energyValue",
          "type": "uint32"
        }
      ],
      "name": "mintToken",
      "outputs": [],
      "payable": false,
      "stateMutability": "nonpayable",
      "type": "function"
    }
  ],
  "bytecode": "0x608060405234801561001057600080fd5b506007600090806001815401808255809150509060018203906000526020600020016000909192909190916101000a81548173ffffffffffffffffffffffffffffffffffffffff021916908373ffffffffffffffffffffffffffffffffffffffff16021790555050633b9aca006000819055506123be806100926000396000f3fe608060405234801561001057600080fd5b506004361061012c5760003560e01c806370a08231116100ad578063c8f863ec11610071578063c8f863ec146107ca578063ccbb0b7a146107fe578063dd62ed3e1461086c578063e1a9249c146108e4578063fd09ee7814610bb55761012c565b806370a082311461043157806395d89b411461048957806396eac8781461050c578063a9059cbb14610746578063c4e41b22146107ac5761012c565b80631ca8b6cb116100f45780631ca8b6cb146102ec57806323b872dd1461030a578063313ce567146103905780633d16d5ff146103b45780636b696620146104135761012c565b806301b218c81461013157806306fdde031461014f578063095ea7b3146101d25780630bd87911146102385780631c35fb5f14610294575b600080fd5b610139610be9565b6040518082815260200191505060405180910390f35b610157610bef565b6040518080602001828103825283818151815260200191508051906020019080838360005b8381101561019757808201518184015260208101905061017c565b50505050905090810190601f1680156101c45780820380516001836020036101000a031916815260200191505b509250505060405180910390f35b61021e600480360360408110156101e857600080fd5b81019080803573ffffffffffffffffffffffffffffffffffffffff16906020019092919080359060200190929190505050610c28565b604051808215151515815260200191505060405180910390f35b61027a6004803603602081101561024e57600080fd5b81019080803573ffffffffffffffffffffffffffffffffffffffff169060200190929190505050610d71565b604051808215151515815260200191505060405180910390f35b6102d6600480360360208110156102aa57600080fd5b81019080803573ffffffffffffffffffffffffffffffffffffffff169060200190929190505050610e06565b6040518082815260200191505060405180910390f35b6102f4610e4f565b6040518082815260200191505060405180910390f35b6103766004803603606081101561032057600080fd5b81019080803573ffffffffffffffffffffffffffffffffffffffff169060200190929190803573ffffffffffffffffffffffffffffffffffffffff16906020019092919080359060200190929190505050610e55565b604051808215151515815260200191505060405180910390f35b6103986111df565b604051808260ff1660ff16815260200191505060405180910390f35b6103bc6111e4565b6040518080602001828103825283818151815260200191508051906020019060200280838360005b838110156103ff5780820151818401526020810190506103e4565b505050509050019250505060405180910390f35b61041b611272565b6040518082815260200191505060405180910390f35b6104736004803603602081101561044757600080fd5b81019080803573ffffffffffffffffffffffffffffffffffffffff169060200190929190505050611278565b6040518082815260200191505060405180910390f35b6104916112c1565b6040518080602001828103825283818151815260200191508051906020019080838360005b838110156104d15780820151818401526020810190506104b6565b50505050905090810190601f1680156104fe5780820380516001836020036101000a031916815260200191505b509250505060405180910390f35b61054e6004803603602081101561052257600080fd5b81019080803573ffffffffffffffffffffffffffffffffffffffff1690602001909291905050506112fa565b6040518080602001806020018863ffffffff1663ffffffff168152602001806020018763ffffffff1663ffffffff1681526020018663ffffffff1663ffffffff1681526020018060200185810385528c818151815260200191508051906020019080838360005b838110156105d05780820151818401526020810190506105b5565b50505050905090810190601f1680156105fd5780820380516001836020036101000a031916815260200191505b5085810384528b818151815260200191508051906020019080838360005b8381101561063657808201518184015260208101905061061b565b50505050905090810190601f1680156106635780820380516001836020036101000a031916815260200191505b50858103835289818151815260200191508051906020019080838360005b8381101561069c578082015181840152602081019050610681565b50505050905090810190601f1680156106c95780820380516001836020036101000a031916815260200191505b50858103825286818151815260200191508051906020019080838360005b838110156107025780820151818401526020810190506106e7565b50505050905090810190601f16801561072f5780820380516001836020036101000a031916815260200191505b509b50505050505050505050505060405180910390f35b6107926004803603604081101561075c57600080fd5b81019080803573ffffffffffffffffffffffffffffffffffffffff16906020019092919080359060200190929190505050611790565b604051808215151515815260200191505060405180910390f35b6107b4611983565b6040518082815260200191505060405180910390f35b6107fc600480360360208110156107e057600080fd5b81019080803563ffffffff16906020019092919050505061198c565b005b61082a6004803603602081101561081457600080fd5b8101908080359060200190929190505050611a84565b604051808273ffffffffffffffffffffffffffffffffffffffff1673ffffffffffffffffffffffffffffffffffffffff16815260200191505060405180910390f35b6108ce6004803603604081101561088257600080fd5b81019080803573ffffffffffffffffffffffffffffffffffffffff169060200190929190803573ffffffffffffffffffffffffffffffffffffffff169060200190929190505050611ac0565b6040518082815260200191505060405180910390f35b610bb360048036036101208110156108fb57600080fd5b810190808035906020019064010000000081111561091857600080fd5b82018360208201111561092a57600080fd5b8035906020019184600183028401116401000000008311171561094c57600080fd5b91908080601f016020809104026020016040519081016040528093929190818152602001838380828437600081840152601f19601f820116905080830192505050505050509192919290803590602001906401000000008111156109af57600080fd5b8201836020820111156109c157600080fd5b803590602001918460018302840111640100000000831117156109e357600080fd5b91908080601f016020809104026020016040519081016040528093929190818152602001838380828437600081840152601f19601f820116905080830192505050505050509192919290803563ffffffff169060200190929190803563ffffffff169060200190929190803563ffffffff169060200190929190803563ffffffff169060200190929190803563ffffffff16906020019092919080359060200190640100000000811115610a9657600080fd5b820183602082011115610aa857600080fd5b80359060200191846001830284011164010000000083111715610aca57600080fd5b91908080601f016020809104026020016040519081016040528093929190818152602001838380828437600081840152601f19601f82011690508083019250505050505050919291929080359060200190640100000000811115610b2d57600080fd5b820183602082011115610b3f57600080fd5b80359060200191846001830284011164010000000083111715610b6157600080fd5b91908080601f016020809104026020016040519081016040528093929190818152602001838380828437600081840152601f19601f820116905080830192505050505050509192919290505050611b47565b005b610be760048036036020811015610bcb57600080fd5b81019080803563ffffffff169060200190929190505050612062565b005b60085481565b6040518060400160405280600881526020017f4f6c6920436f696e00000000000000000000000000000000000000000000000081525081565b60008082118015610c7857506000600160003373ffffffffffffffffffffffffffffffffffffffff1673ffffffffffffffffffffffffffffffffffffffff16815260200190815260200160002054115b610c8157600080fd5b81600260003373ffffffffffffffffffffffffffffffffffffffff1673ffffffffffffffffffffffffffffffffffffffff16815260200190815260200160002060008573ffffffffffffffffffffffffffffffffffffffff1673ffffffffffffffffffffffffffffffffffffffff168152602001908152602001600020819055508273ffffffffffffffffffffffffffffffffffffffff163373ffffffffffffffffffffffffffffffffffffffff167f8c5be1e5ebec7d5bd14f71427d1e84f3dd0314c0f7b2291e5b200ac8c7c3b925846040518082815260200191505060405180910390a36001905092915050565b60008073ffffffffffffffffffffffffffffffffffffffff168273ffffffffffffffffffffffffffffffffffffffff1614158015610dee57506000600460008473ffffffffffffffffffffffffffffffffffffffff1673ffffffffffffffffffffffffffffffffffffffff16815260200190815260200160002054115b15610dfc5760019050610e01565b600090505b919050565b6000600660008373ffffffffffffffffffffffffffffffffffffffff1673ffffffffffffffffffffffffffffffffffffffff168152602001908152602001600020549050919050565b60005481565b60008082118015610ea5575081600160008673ffffffffffffffffffffffffffffffffffffffff1673ffffffffffffffffffffffffffffffffffffffff1681526020019081526020016000205410155b8015610f2d575081600260008673ffffffffffffffffffffffffffffffffffffffff1673ffffffffffffffffffffffffffffffffffffffff16815260200190815260200160002060003373ffffffffffffffffffffffffffffffffffffffff1673ffffffffffffffffffffffffffffffffffffffff1681526020019081526020016000205410155b610f3657600080fd5b610f8882600160008773ffffffffffffffffffffffffffffffffffffffff1673ffffffffffffffffffffffffffffffffffffffff168152602001908152602001600020546122b390919063ffffffff16565b600160008673ffffffffffffffffffffffffffffffffffffffff1673ffffffffffffffffffffffffffffffffffffffff1681526020019081526020016000208190555061101d82600160008673ffffffffffffffffffffffffffffffffffffffff1673ffffffffffffffffffffffffffffffffffffffff168152602001908152602001600020546122ca90919063ffffffff16565b600160008573ffffffffffffffffffffffffffffffffffffffff1673ffffffffffffffffffffffffffffffffffffffff168152602001908152602001600020819055506110ef82600260008773ffffffffffffffffffffffffffffffffffffffff1673ffffffffffffffffffffffffffffffffffffffff16815260200190815260200160002060003373ffffffffffffffffffffffffffffffffffffffff1673ffffffffffffffffffffffffffffffffffffffff168152602001908152602001600020546122b390919063ffffffff16565b600260008673ffffffffffffffffffffffffffffffffffffffff1673ffffffffffffffffffffffffffffffffffffffff16815260200190815260200160002060003373ffffffffffffffffffffffffffffffffffffffff1673ffffffffffffffffffffffffffffffffffffffff168152602001908152602001600020819055508273ffffffffffffffffffffffffffffffffffffffff168473ffffffffffffffffffffffffffffffffffffffff167fddf252ad1be2c89b69c2b068fc378daa952ba7f163c4a11628f55a4df523b3ef846040518082815260200191505060405180910390a3600190509392505050565b600281565b6060600780548060200260200160405190810160405280929190818152602001828054801561126857602002820191906000526020600020905b8160009054906101000a900473ffffffffffffffffffffffffffffffffffffffff1673ffffffffffffffffffffffffffffffffffffffff168152602001906001019080831161121e575b5050505050905090565b60095481565b6000600160008373ffffffffffffffffffffffffffffffffffffffff1673ffffffffffffffffffffffffffffffffffffffff168152602001908152602001600020549050919050565b6040518060400160405280600381526020017f4f4c43000000000000000000000000000000000000000000000000000000000081525081565b606080600060606000806060600360008973ffffffffffffffffffffffffffffffffffffffff1673ffffffffffffffffffffffffffffffffffffffff168152602001908152602001600020600001600360008a73ffffffffffffffffffffffffffffffffffffffff1673ffffffffffffffffffffffffffffffffffffffff168152602001908152602001600020600101600360008b73ffffffffffffffffffffffffffffffffffffffff1673ffffffffffffffffffffffffffffffffffffffff16815260200190815260200160002060020160009054906101000a900463ffffffff16600360008c73ffffffffffffffffffffffffffffffffffffffff1673ffffffffffffffffffffffffffffffffffffffff168152602001908152602001600020600301600360008d73ffffffffffffffffffffffffffffffffffffffff1673ffffffffffffffffffffffffffffffffffffffff16815260200190815260200160002060020160089054906101000a900463ffffffff16600360008e73ffffffffffffffffffffffffffffffffffffffff1673ffffffffffffffffffffffffffffffffffffffff168152602001908152602001600020600201600c9054906101000a900463ffffffff16600360008f73ffffffffffffffffffffffffffffffffffffffff1673ffffffffffffffffffffffffffffffffffffffff168152602001908152602001600020600401868054600181600116156101000203166002900480601f01602080910402602001604051908101604052809291908181526020018280546001816001161561010002031660029004801561159c5780601f106115715761010080835404028352916020019161159c565b820191906000526020600020905b81548152906001019060200180831161157f57829003601f168201915b50505050509650858054600181600116156101000203166002900480601f0160208091040260200160405190810160405280929190818152602001828054600181600116156101000203166002900480156116385780601f1061160d57610100808354040283529160200191611638565b820191906000526020600020905b81548152906001019060200180831161161b57829003601f168201915b50505050509550838054600181600116156101000203166002900480601f0160208091040260200160405190810160405280929190818152602001828054600181600116156101000203166002900480156116d45780601f106116a9576101008083540402835291602001916116d4565b820191906000526020600020905b8154815290600101906020018083116116b757829003601f168201915b50505050509350808054600181600116156101000203166002900480601f0160208091040260200160405190810160405280929190818152602001828054600181600116156101000203166002900480156117705780601f1061174557610100808354040283529160200191611770565b820191906000526020600020905b81548152906001019060200180831161175357829003601f168201915b505050505090509650965096509650965096509650919395979092949650565b600081600160003373ffffffffffffffffffffffffffffffffffffffff1673ffffffffffffffffffffffffffffffffffffffff16815260200190815260200160002054101580156117e15750600082115b6117ea57600080fd5b61183c82600160003373ffffffffffffffffffffffffffffffffffffffff1673ffffffffffffffffffffffffffffffffffffffff168152602001908152602001600020546122b390919063ffffffff16565b600160003373ffffffffffffffffffffffffffffffffffffffff1673ffffffffffffffffffffffffffffffffffffffff168152602001908152602001600020819055506118d182600160008673ffffffffffffffffffffffffffffffffffffffff1673ffffffffffffffffffffffffffffffffffffffff168152602001908152602001600020546122ca90919063ffffffff16565b600160008573ffffffffffffffffffffffffffffffffffffffff1673ffffffffffffffffffffffffffffffffffffffff168152602001908152602001600020819055508273ffffffffffffffffffffffffffffffffffffffff163373ffffffffffffffffffffffffffffffffffffffff167fddf252ad1be2c89b69c2b068fc378daa952ba7f163c4a11628f55a4df523b3ef846040518082815260200191505060405180910390a36001905092915050565b60008054905090565b6119e48163ffffffff16600160003373ffffffffffffffffffffffffffffffffffffffff1673ffffffffffffffffffffffffffffffffffffffff168152602001908152602001600020546122ca90919063ffffffff16565b600160003373ffffffffffffffffffffffffffffffffffffffff1673ffffffffffffffffffffffffffffffffffffffff16815260200190815260200160002081905550611a428163ffffffff166009546122ca90919063ffffffff16565b6009819055507fb93801bc342defb23a24195b78c7145529c52c24ffbda2cfe3be3e8168d0a2af6009546040518082815260200191505060405180910390a150565b60078181548110611a9157fe5b906000526020600020016000915054906101000a900473ffffffffffffffffffffffffffffffffffffffff1681565b6000600260008473ffffffffffffffffffffffffffffffffffffffff1673ffffffffffffffffffffffffffffffffffffffff16815260200190815260200160002060008373ffffffffffffffffffffffffffffffffffffffff1673ffffffffffffffffffffffffffffffffffffffff16815260200190815260200160002054905092915050565b611b5033610d71565b61205757600780549050600460003373ffffffffffffffffffffffffffffffffffffffff1673ffffffffffffffffffffffffffffffffffffffff168152602001908152602001600020819055506040518061012001604052808a81526020018981526020018863ffffffff1681526020018763ffffffff1681526020018663ffffffff1681526020018563ffffffff1681526020018463ffffffff16815260200183815260200182815250600360003373ffffffffffffffffffffffffffffffffffffffff1673ffffffffffffffffffffffffffffffffffffffff1681526020019081526020016000206000820151816000019080519060200190611c569291906122e4565b506020820151816001019080519060200190611c739291906122e4565b5060408201518160020160006101000a81548163ffffffff021916908363ffffffff16021790555060608201518160020160046101000a81548163ffffffff021916908363ffffffff16021790555060808201518160020160086101000a81548163ffffffff021916908363ffffffff16021790555060a082015181600201600c6101000a81548163ffffffff021916908363ffffffff16021790555060c08201518160020160106101000a81548163ffffffff021916908363ffffffff16021790555060e0820151816003019080519060200190611d539291906122e4565b50610100820151816004019080519060200190611d719291906122e4565b5090505060073390806001815401808255809150509060018203906000526020600020016000909192909190916101000a81548173ffffffffffffffffffffffffffffffffffffffff021916908373ffffffffffffffffffffffffffffffffffffffff160217905550507f169d64aff14044ca4323ed48b3d638e84ea04927facc8699c9186391eaa6076d338a8a8a8a8a8a8a8a8a604051808b73ffffffffffffffffffffffffffffffffffffffff1673ffffffffffffffffffffffffffffffffffffffff16815260200180602001806020018a63ffffffff1663ffffffff1681526020018963ffffffff1663ffffffff1681526020018863ffffffff1663ffffffff1681526020018763ffffffff1663ffffffff1681526020018663ffffffff1663ffffffff168152602001806020018060200185810385528e818151815260200191508051906020019080838360005b83811015611ede578082015181840152602081019050611ec3565b50505050905090810190601f168015611f0b5780820380516001836020036101000a031916815260200191505b5085810384528d818151815260200191508051906020019080838360005b83811015611f44578082015181840152602081019050611f29565b50505050905090810190601f168015611f715780820380516001836020036101000a031916815260200191505b50858103835287818151815260200191508051906020019080838360005b83811015611faa578082015181840152602081019050611f8f565b50505050905090810190601f168015611fd75780820380516001836020036101000a031916815260200191505b50858103825286818151815260200191508051906020019080838360005b83811015612010578082015181840152602081019050611ff5565b50505050905090810190601f16801561203d5780820380516001836020036101000a031916815260200191505b509e50505050505050505050505050505060405180910390a15b505050505050505050565b61206b33610d71565b156122b0576040518060a001604052804281526020018263ffffffff168152602001438152602001600143034081526020013a815250600560003373ffffffffffffffffffffffffffffffffffffffff1673ffffffffffffffffffffffffffffffffffffffff1681526020019081526020016000206000820151816000015560208201518160010160006101000a81548163ffffffff021916908363ffffffff16021790555060408201518160020155606082015181600301556080820151816004015590505061218a8163ffffffff16600660003373ffffffffffffffffffffffffffffffffffffffff1673ffffffffffffffffffffffffffffffffffffffff168152602001908152602001600020546122ca90919063ffffffff16565b600660003373ffffffffffffffffffffffffffffffffffffffff1673ffffffffffffffffffffffffffffffffffffffff168152602001908152602001600020819055506121e88163ffffffff166008546122ca90919063ffffffff16565b6008819055507fabe7121b7c5173e0739d7adad113e1e94c7728ab426b447dfca495b554a12997334283604051808473ffffffffffffffffffffffffffffffffffffffff1673ffffffffffffffffffffffffffffffffffffffff1681526020018381526020018263ffffffff1663ffffffff168152602001935050505060405180910390a17f7fb996afddf24957276fc4eea470c9450c47a21fb8a617d34e8b32904df10ec96008546040518082815260200191505060405180910390a16122af8161198c565b5b50565b6000828211156122bf57fe5b818303905092915050565b60008183019050828110156122db57fe5b80905092915050565b828054600181600116156101000203166002900490600052602060002090601f016020900481019282601f1061232557805160ff1916838001178555612353565b82800160010185558215612353579182015b82811115612352578251825591602001919060010190612337565b5b5090506123609190612364565b5090565b61238691905b8082111561238257600081600090555060010161236a565b5090565b9056fea265627a7a72315820b2c8e309a1cc7a3dafabac3777712e66cad00d4daa1d5d315e64869a63d487ab64736f6c63430005100032",
  "source": "pragma solidity >=0.4.16 <0.6.0;\n\nimport \"./IERC20.sol\";\nimport \"./SafeMath.sol\";\n\ncontract OliCoin is IERC20 {\n    using SafeMath for uint256;\n    uint256 public totalTokenSupply;\n\n    // 1. declaring the meta information for the coin\n    string public constant name = \"Oli Coin\";\n    string public constant symbol = \"OLC\";\n\n    /*\n     * E.g. decimals = 2, value 100 => 1.00\n     * E.g. decimals = 1, value 100 => 10.0\n     */\n    uint8 public constant decimals = 2;\n\n    // 2. mapping\n    mapping(address => uint256) private balances;\n    mapping(address => mapping(address => uint256)) private allowances;\n\n    /* custom functions stuff */\n    struct Producer {\n        string owner;\n        string deviceType;\n        uint32 peakPowerPos;\n        uint32 peakPowerNeg;\n        uint32 latitude;\n        uint32 longitude;\n        uint32 voltageLevel;\n        string location;\n        string installDate;\n    }\n\n    struct EnergyProduction {\n        uint256 enerTime;\n        uint32 enerValue;\n        uint256 blockNumber;\n        bytes32 blockHash;\n        uint256 txGasPrice;\n    }\n\n    event ProducerRegistrationEvent(\n        address pvAddr,\n        string owner,\n        string deviceType,\n        uint32 peakPowerPos,\n        uint32 peakPowerNeg,\n        uint32 latitude,\n        uint32 longitude,\n        uint32 voltageLevel,\n        string location,\n        string installDate\n    );\n    event EnergyProductionEvent(\n        address oliAddr,\n        uint256 eTime,\n        uint32 enerAmount\n    );\n    event TotalMintedTokens(uint256 totalMintedTokens);\n    event TotalEnergyEvent(uint256 totalEnergy);\n\n    mapping(address => Producer) producers;\n    mapping(address => uint256) accountIndexArray;\n    mapping(address => EnergyProduction) energyProductions;\n    mapping(address => uint256) producerEnergyBalance;\n\n    address[] public producerAccountsList;\n    uint256 public totalEnergyProduced;\n    uint256 public totalMintedCoins;\n\n    constructor() public {\n        producerAccountsList.push(address(0));\n        totalTokenSupply = 1000000000;\n    }\n\n    // get total token supply\n    function getTotalSupply() public view returns (uint256) {\n        return totalTokenSupply;\n    }\n\n    // transfer tokens function\n    function transfer(address _to, uint256 _tokens) public returns (bool) {\n        // check if sender has enough token to transfer\n        require(balances[msg.sender] >= _tokens && _tokens > 0);\n\n        balances[msg.sender] = balances[msg.sender].sub(_tokens);\n        balances[_to] = balances[_to].add(_tokens);\n\n        emit Transfer(msg.sender, _to, _tokens);\n        return true;\n    }\n\n    // checking out the balances\n    function balanceOf(address _tokenOwner)\n        public\n        view\n        returns (uint256 _tokens)\n    {\n        return balances[_tokenOwner];\n    }\n\n    // approve spender to spend tokens\n    function approve(address _spender, uint256 _tokens)\n        public\n        returns (bool success)\n    {\n        require(_tokens > 0 && balances[msg.sender] > 0);\n\n        allowances[msg.sender][_spender] = _tokens;\n        emit Approval(msg.sender, _spender, _tokens);\n        return true;\n    }\n\n    // checking the amount of allowed tokens\n    function allowance(address _tokenOwner, address _spender)\n        public\n        view\n        returns (uint256 remaining)\n    {\n        return allowances[_tokenOwner][_spender];\n    }\n\n    // spending allowed tokens on behalf of owner\n    function transferFrom(\n        address _from,\n        address _to,\n        uint256 _tokens\n    ) public returns (bool success) {\n        require(\n            _tokens > 0 &&\n                balances[_from] >= _tokens &&\n                allowances[_from][msg.sender] >= _tokens\n        );\n\n        balances[_from] = balances[_from].sub(_tokens);\n        balances[_to] = balances[_to].add(_tokens);\n\n        allowances[_from][msg.sender] = allowances[_from][msg.sender].sub(\n            _tokens\n        );\n        emit Transfer(_from, _to, _tokens);\n        return true;\n    }\n\n    // custom functions\n    function setProducer(\n        string memory _owner,\n        string memory _deviceType,\n        uint32 _peakPowerPos,\n        uint32 _peakPowerNeg,\n        uint32 _latitude,\n        uint32 _longitude,\n        uint32 _voltageLevel,\n        string memory _location,\n        string memory _installDate\n    ) public {\n        if (!checkProducerRegistration(msg.sender)) {\n            // mapping address to index\n            accountIndexArray[msg.sender] = producerAccountsList.length;\n            producers[msg.sender] = Producer(\n                _owner,\n                _deviceType,\n                _peakPowerPos,\n                _peakPowerNeg,\n                _latitude,\n                _longitude,\n                _voltageLevel,\n                _location,\n                _installDate\n            );\n            producerAccountsList.push(msg.sender);\n            emit ProducerRegistrationEvent(\n                msg.sender,\n                _owner,\n                _deviceType,\n                _peakPowerPos,\n                _peakPowerNeg,\n                _latitude,\n                _longitude,\n                _voltageLevel,\n                _location,\n                _installDate\n            );\n        }\n    }\n\n    // check producer registration\n    function checkProducerRegistration(address _producerAddress)\n        public\n        view\n        returns (bool)\n    {\n        if (\n            _producerAddress != address(0) &&\n            accountIndexArray[_producerAddress] > 0\n        ) {\n            return true;\n        }\n        return false;\n    }\n\n    // get registration details for individual producer\n    function getProducerAccountDetails(address _producerAddress)\n        public\n        view\n        returns (\n            string memory,\n            string memory,\n            uint32,\n            string memory,\n            uint32,\n            uint32,\n            string memory\n        )\n    {\n        return (\n            producers[_producerAddress].owner,\n            producers[_producerAddress].deviceType,\n            producers[_producerAddress].peakPowerPos,\n            producers[_producerAddress].location,\n            producers[_producerAddress].latitude,\n            producers[_producerAddress].longitude,\n            producers[_producerAddress].installDate\n        );\n    }\n\n    // get producer accounts list\n    function getProducerAccountsList() public view returns (address[] memory) {\n        return producerAccountsList;\n    }\n\n    /*\n     * energy mapping setup\n     */\n\n    function setEnergyProduction(uint32 _energyValue) public {\n        // check producer registration\n        if (checkProducerRegistration(msg.sender)) {\n            energyProductions[msg.sender] = EnergyProduction(\n                now,\n                _energyValue,\n                block.number,\n                blockhash(block.number - 1),\n                tx.gasprice\n            );\n\n            // energy balance\n            producerEnergyBalance[msg.sender] = producerEnergyBalance[msg\n                .sender]\n                .add(_energyValue);\n            totalEnergyProduced = totalEnergyProduced.add(_energyValue);\n\n            emit EnergyProductionEvent(msg.sender, now, _energyValue);\n            emit TotalEnergyEvent(totalEnergyProduced);\n\n            // minting tokens\n            mintToken(_energyValue);\n        }\n    }\n\n    // retrieving individula producer total amount of energy produced\n    function getProducerEnergyBalance(address _proAccntAddr)\n        public\n        view\n        returns (uint256)\n    {\n        return (producerEnergyBalance[_proAccntAddr]);\n    }\n\n    // minting new coins\n    function mintToken(uint32 _energyValue) public {\n        balances[msg.sender] = balances[msg.sender].add(_energyValue);\n        totalMintedCoins = totalMintedCoins.add(_energyValue);\n\n        emit TotalMintedTokens(totalMintedCoins);\n    }\n}\n",
  "sourcePath": "/home/yahya/Documents/GitHub/energy-browser/truffle/contracts/OliCoin.sol",
  "compiler": {
    "name": "solc",
    "version": "0.5.16+commit.9c3226ce.Emscripten.clang"
  },
  "schemaVersion": "3.3.2",
  "updatedAt": "2021-02-09T00:10:35.862Z",
  "networkType": "ethereum",
  "devdoc": {
    "methods": {}
  },
  "userdoc": {
    "methods": {}
  }
}